{"contracts/Medical.sol":{"Healthcare":{"abi":[{"inputs":[],"stateMutability":"nonpayable","type":"constructor"},{"anonymous":false,"inputs":[{"indexed":false,"internalType":"uint256","name":"id","type":"uint256"},{"indexed":false,"internalType":"uint256","name":"patientId","type":"uint256"},{"indexed":false,"internalType":"uint256","name":"doctorId","type":"uint256"},{"indexed":false,"internalType":"uint256","name":"date","type":"uint256"}],"name":"APPOINTMENT_BOOKED","type":"event"},{"anonymous":false,"inputs":[{"indexed":false,"internalType":"uint256","name":"id","type":"uint256"},{"indexed":false,"internalType":"bool","name":"isApproved","type":"bool"}],"name":"APPROVE_DOCTOR_STATUSD","type":"event"},{"anonymous":false,"inputs":[{"indexed":false,"internalType":"uint256","name":"id","type":"uint256"},{"indexed":false,"internalType":"address","name":"accountAddress","type":"address"}],"name":"DOCTOR_REGISTERED","type":"event"},{"anonymous":false,"inputs":[{"indexed":false,"internalType":"uint256","name":"id","type":"uint256"},{"indexed":false,"internalType":"bool","name":"active","type":"bool"}],"name":"MEDICINE_ACTIVE","type":"event"},{"anonymous":false,"inputs":[{"indexed":false,"internalType":"uint256","name":"id","type":"uint256"},{"indexed":false,"internalType":"string","name":"url","type":"string"},{"indexed":false,"internalType":"string","name":"location","type":"string"}],"name":"MEDICINE_ADDED","type":"event"},{"anonymous":false,"inputs":[{"indexed":false,"internalType":"uint256","name":"patientId","type":"uint256"},{"indexed":false,"internalType":"uint256","name":"medicineId","type":"uint256"}],"name":"MEDICINE_BOUGHT","type":"event"},{"anonymous":false,"inputs":[{"indexed":false,"internalType":"uint256","name":"id","type":"uint256"},{"indexed":false,"internalType":"uint256","name":"discount","type":"uint256"}],"name":"MEDICINE_DISCOUNT","type":"event"},{"anonymous":false,"inputs":[{"indexed":false,"internalType":"uint256","name":"id","type":"uint256"},{"indexed":false,"internalType":"string","name":"newLocation","type":"string"}],"name":"MEDICINE_LOCATION","type":"event"},{"anonymous":false,"inputs":[{"indexed":false,"internalType":"uint256","name":"id","type":"uint256"},{"indexed":false,"internalType":"uint256","name":"medicineId","type":"uint256"},{"indexed":false,"internalType":"uint256","name":"patientId","type":"uint256"},{"indexed":false,"internalType":"uint256","name":"doctorId","type":"uint256"},{"indexed":false,"internalType":"uint256","name":"date","type":"uint256"}],"name":"MEDICINE_PRESCRIBED","type":"event"},{"anonymous":false,"inputs":[{"indexed":false,"internalType":"uint256","name":"id","type":"uint256"},{"indexed":false,"internalType":"uint256","name":"price","type":"uint256"}],"name":"MEDICINE_PRICE","type":"event"},{"anonymous":false,"inputs":[{"indexed":false,"internalType":"uint256","name":"id","type":"uint256"},{"indexed":false,"internalType":"uint256","name":"quantity","type":"uint256"}],"name":"MEDICINE_QUANTITY","type":"event"},{"anonymous":false,"inputs":[{"indexed":true,"internalType":"address","name":"user","type":"address"},{"indexed":false,"internalType":"string","name":"message","type":"string"},{"indexed":false,"internalType":"uint256","name":"timestamp","type":"uint256"}],"name":"NOTIFICATiON_SENT","type":"event"},{"anonymous":false,"inputs":[{"indexed":false,"internalType":"uint256","name":"id","type":"uint256"},{"indexed":false,"internalType":"string","name":"_IPFS_URL","type":"string"},{"indexed":false,"internalType":"string[]","name":"medicalHistory","type":"string[]"}],"name":"PATIENT_ADDED","type":"event"},{"anonymous":false,"inputs":[{"indexed":false,"internalType":"uint256","name":"id","type":"uint256"},{"indexed":false,"internalType":"address","name":"accountAddress","type":"address"}],"name":"PATIENT_REGISTERED","type":"event"},{"inputs":[{"internalType":"string","name":"_IPFS_URL","type":"string"},{"internalType":"uint256","name":"_price","type":"uint256"},{"internalType":"uint256","name":"_quantity","type":"uint256"},{"internalType":"uint256","name":"_discount","type":"uint256"},{"internalType":"string","name":"_currentLocation","type":"string"}],"name":"ADD_MEDICINE","outputs":[],"stateMutability":"nonpayable","type":"function"},{"inputs":[{"internalType":"uint256","name":"_doctorId","type":"uint256"}],"name":"APPROVE_DOCTOR_STATUS","outputs":[],"stateMutability":"nonpayable","type":"function"},{"inputs":[{"internalType":"uint256","name":"_patientId","type":"uint256"},{"internalType":"string","name":"_recordHash","type":"string"},{"internalType":"string","name":"_encryptedFileUrl","type":"string"}],"name":"AddMedicalRecord","outputs":[],"stateMutability":"nonpayable","type":"function"},{"inputs":[{"internalType":"uint256","name":"_patientId","type":"uint256"},{"internalType":"uint256","name":"_doctorId","type":"uint256"},{"internalType":"string","name":"_from","type":"string"},{"internalType":"string","name":"_to","type":"string"},{"internalType":"string","name":"_appointmentDate","type":"string"},{"internalType":"string","name":"_condition","type":"string"},{"internalType":"string","name":"_message","type":"string"},{"internalType":"address","name":"_doctorAddress","type":"address"},{"internalType":"string","name":"_name","type":"string"}],"name":"BOOK_APPOINTMENT","outputs":[],"stateMutability":"payable","type":"function"},{"inputs":[{"internalType":"uint256","name":"_patientId","type":"uint256"},{"internalType":"uint256","name":"_medicineId","type":"uint256"},{"internalType":"uint256","name":"_quantity","type":"uint256"}],"name":"BUY_MEDICINE","outputs":[],"stateMutability":"payable","type":"function"},{"inputs":[{"internalType":"address","name":"pubkey","type":"address"}],"name":"CHECK_USER_EXISTS","outputs":[{"internalType":"bool","name":"","type":"bool"}],"stateMutability":"view","type":"function"},{"inputs":[{"internalType":"uint256","name":"_appointmentId","type":"uint256"}],"name":"COMPLETE_APPOINTMENT","outputs":[],"stateMutability":"nonpayable","type":"function"},{"inputs":[{"internalType":"uint256","name":"_patientId","type":"uint256"},{"internalType":"uint256","name":"_recordIndex","type":"uint256"}],"name":"FetchMedicalRecord","outputs":[{"internalType":"string","name":"","type":"string"}],"stateMutability":"view","type":"function"},{"inputs":[],"name":"GET_ALL_APPOINTMENTS","outputs":[{"components":[{"internalType":"uint256","name":"id","type":"uint256"},{"internalType":"uint256","name":"patientId","type":"uint256"},{"internalType":"uint256","name":"doctorId","type":"uint256"},{"internalType":"uint256","name":"date","type":"uint256"},{"internalType":"string","name":"from","type":"string"},{"internalType":"string","name":"to","type":"string"},{"internalType":"string","name":"appointmentDate","type":"string"},{"internalType":"string","name":"condition","type":"string"},{"internalType":"string","name":"message","type":"string"},{"internalType":"bool","name":"isOpen","type":"bool"}],"internalType":"struct DataTypes.Appointment[]","name":"","type":"tuple[]"}],"stateMutability":"view","type":"function"},{"inputs":[],"name":"GET_ALL_APPROVED_DOCTORS","outputs":[{"components":[{"internalType":"uint256","name":"id","type":"uint256"},{"internalType":"string","name":"IPFS_URL","type":"string"},{"internalType":"address","name":"accountAddress","type":"address"},{"internalType":"uint256","name":"appointmentCount","type":"uint256"},{"internalType":"uint256","name":"successfulTreatmentCount","type":"uint256"},{"internalType":"bool","name":"isApproved","type":"bool"}],"internalType":"struct DataTypes.Doctor[]","name":"","type":"tuple[]"}],"stateMutability":"view","type":"function"},{"inputs":[],"name":"GET_ALL_APP_USER","outputs":[{"components":[{"internalType":"string","name":"name","type":"string"},{"internalType":"address","name":"accountAddress","type":"address"}],"internalType":"struct DataTypes.AllUserStruck[]","name":"","type":"tuple[]"}],"stateMutability":"view","type":"function"},{"inputs":[{"internalType":"uint256","name":"patientId","type":"uint256"}],"name":"GET_ALL_PATIENT_ORDERS","outputs":[{"components":[{"internalType":"uint256","name":"medicineId","type":"uint256"},{"internalType":"uint256","name":"price","type":"uint256"},{"internalType":"uint256","name":"payAmount","type":"uint256"},{"internalType":"uint256","name":"quantity","type":"uint256"},{"internalType":"uint256","name":"patientId","type":"uint256"},{"internalType":"uint256","name":"date","type":"uint256"}],"internalType":"struct DataTypes.Order[]","name":"","type":"tuple[]"}],"stateMutability":"view","type":"function"},{"inputs":[],"name":"GET_ALL_PRESCRIBED_MEDICINES","outputs":[{"components":[{"internalType":"uint256","name":"id","type":"uint256"},{"internalType":"uint256","name":"medicineId","type":"uint256"},{"internalType":"uint256","name":"patientId","type":"uint256"},{"internalType":"uint256","name":"doctorId","type":"uint256"},{"internalType":"uint256","name":"date","type":"uint256"}],"internalType":"struct DataTypes.Prescription[]","name":"","type":"tuple[]"}],"stateMutability":"view","type":"function"},{"inputs":[{"internalType":"uint256","name":"patientId","type":"uint256"}],"name":"GET_ALL_PRESCRIBED_MEDICINES_OF_PATIENT","outputs":[{"components":[{"internalType":"uint256","name":"id","type":"uint256"},{"internalType":"uint256","name":"medicineId","type":"uint256"},{"internalType":"uint256","name":"patientId","type":"uint256"},{"internalType":"uint256","name":"doctorId","type":"uint256"},{"internalType":"uint256","name":"date","type":"uint256"}],"internalType":"struct DataTypes.Prescription[]","name":"","type":"tuple[]"}],"stateMutability":"view","type":"function"},{"inputs":[],"name":"GET_ALL_REGISTERED_DOCTORS","outputs":[{"components":[{"internalType":"uint256","name":"id","type":"uint256"},{"internalType":"string","name":"IPFS_URL","type":"string"},{"internalType":"address","name":"accountAddress","type":"address"},{"internalType":"uint256","name":"appointmentCount","type":"uint256"},{"internalType":"uint256","name":"successfulTreatmentCount","type":"uint256"},{"internalType":"bool","name":"isApproved","type":"bool"}],"internalType":"struct DataTypes.Doctor[]","name":"","type":"tuple[]"}],"stateMutability":"view","type":"function"},{"inputs":[],"name":"GET_ALL_REGISTERED_MEDICINES","outputs":[{"components":[{"internalType":"uint256","name":"id","type":"uint256"},{"internalType":"string","name":"IPFS_URL","type":"string"},{"internalType":"uint256","name":"price","type":"uint256"},{"internalType":"uint256","name":"quantity","type":"uint256"},{"internalType":"uint256","name":"discount","type":"uint256"},{"internalType":"string","name":"currentLocation","type":"string"},{"internalType":"bool","name":"active","type":"bool"}],"internalType":"struct DataTypes.Medicine[]","name":"","type":"tuple[]"}],"stateMutability":"view","type":"function"},{"inputs":[],"name":"GET_ALL_REGISTERED_PATIENTS","outputs":[{"components":[{"internalType":"uint256","name":"id","type":"uint256"},{"internalType":"string","name":"IPFS_URL","type":"string"},{"internalType":"string[]","name":"medicalHistory","type":"string[]"},{"internalType":"address","name":"accountAddress","type":"address"},{"internalType":"uint256[]","name":"boughtMedicines","type":"uint256[]"}],"internalType":"struct DataTypes.Patient[]","name":"","type":"tuple[]"}],"stateMutability":"view","type":"function"},{"inputs":[{"internalType":"uint256","name":"_patientId","type":"uint256"}],"name":"GET_BOUGHT_MEDICINE_BY_PAITENT","outputs":[{"internalType":"uint256[]","name":"","type":"uint256[]"}],"stateMutability":"view","type":"function"},{"inputs":[{"internalType":"uint256","name":"_doctorId","type":"uint256"}],"name":"GET_DOCTOR_APPOINTMENTS_HISTORYS","outputs":[{"components":[{"internalType":"uint256","name":"id","type":"uint256"},{"internalType":"uint256","name":"patientId","type":"uint256"},{"internalType":"uint256","name":"doctorId","type":"uint256"},{"internalType":"uint256","name":"date","type":"uint256"},{"internalType":"string","name":"from","type":"string"},{"internalType":"string","name":"to","type":"string"},{"internalType":"string","name":"appointmentDate","type":"string"},{"internalType":"string","name":"condition","type":"string"},{"internalType":"string","name":"message","type":"string"},{"internalType":"bool","name":"isOpen","type":"bool"}],"internalType":"struct DataTypes.Appointment[]","name":"","type":"tuple[]"}],"stateMutability":"view","type":"function"},{"inputs":[{"internalType":"uint256","name":"_doctorId","type":"uint256"}],"name":"GET_DOCTOR_DETAILS","outputs":[{"components":[{"internalType":"uint256","name":"id","type":"uint256"},{"internalType":"string","name":"IPFS_URL","type":"string"},{"internalType":"address","name":"accountAddress","type":"address"},{"internalType":"uint256","name":"appointmentCount","type":"uint256"},{"internalType":"uint256","name":"successfulTreatmentCount","type":"uint256"},{"internalType":"bool","name":"isApproved","type":"bool"}],"internalType":"struct DataTypes.Doctor","name":"","type":"tuple"}],"stateMutability":"view","type":"function"},{"inputs":[{"internalType":"address","name":"_doctorAddress","type":"address"}],"name":"GET_DOCTOR_ID","outputs":[{"internalType":"uint256","name":"","type":"uint256"}],"stateMutability":"view","type":"function"},{"inputs":[{"internalType":"uint256","name":"_medicineId","type":"uint256"}],"name":"GET_MEDICINE_DETAILS","outputs":[{"components":[{"internalType":"uint256","name":"id","type":"uint256"},{"internalType":"string","name":"IPFS_URL","type":"string"},{"internalType":"uint256","name":"price","type":"uint256"},{"internalType":"uint256","name":"quantity","type":"uint256"},{"internalType":"uint256","name":"discount","type":"uint256"},{"internalType":"string","name":"currentLocation","type":"string"},{"internalType":"bool","name":"active","type":"bool"}],"internalType":"struct DataTypes.Medicine","name":"","type":"tuple"}],"stateMutability":"view","type":"function"},{"inputs":[],"name":"GET_MOST_POPULAR_DOCTOR","outputs":[{"components":[{"internalType":"uint256","name":"id","type":"uint256"},{"internalType":"string","name":"IPFS_URL","type":"string"},{"internalType":"address","name":"accountAddress","type":"address"},{"internalType":"uint256","name":"appointmentCount","type":"uint256"},{"internalType":"uint256","name":"successfulTreatmentCount","type":"uint256"},{"internalType":"bool","name":"isApproved","type":"bool"}],"internalType":"struct DataTypes.Doctor","name":"","type":"tuple"}],"stateMutability":"view","type":"function"},{"inputs":[{"internalType":"address","name":"_address","type":"address"}],"name":"GET_MY_FRIEND_LIST","outputs":[{"components":[{"internalType":"address","name":"pubkey","type":"address"},{"internalType":"string","name":"name","type":"string"}],"internalType":"struct DataTypes.friend[]","name":"","type":"tuple[]"}],"stateMutability":"view","type":"function"},{"inputs":[{"internalType":"address","name":"_userAddress","type":"address"}],"name":"GET_NOTIFICATIONS","outputs":[{"components":[{"internalType":"uint256","name":"id","type":"uint256"},{"internalType":"address","name":"userAddress","type":"address"},{"internalType":"string","name":"message","type":"string"},{"internalType":"uint256","name":"timestamp","type":"uint256"},{"internalType":"string","name":"categoryType","type":"string"}],"internalType":"struct DataTypes.Notification[]","name":"","type":"tuple[]"}],"stateMutability":"view","type":"function"},{"inputs":[{"internalType":"uint256","name":"_appointmentId","type":"uint256"}],"name":"GET_PATIENT_APPOINTMENT","outputs":[{"components":[{"internalType":"uint256","name":"id","type":"uint256"},{"internalType":"uint256","name":"patientId","type":"uint256"},{"internalType":"uint256","name":"doctorId","type":"uint256"},{"internalType":"uint256","name":"date","type":"uint256"},{"internalType":"string","name":"from","type":"string"},{"internalType":"string","name":"to","type":"string"},{"internalType":"string","name":"appointmentDate","type":"string"},{"internalType":"string","name":"condition","type":"string"},{"internalType":"string","name":"message","type":"string"},{"internalType":"bool","name":"isOpen","type":"bool"}],"internalType":"struct DataTypes.Appointment","name":"","type":"tuple"}],"stateMutability":"view","type":"function"},{"inputs":[{"internalType":"uint256","name":"_patientId","type":"uint256"}],"name":"GET_PATIENT_APPOINTMENT_HISTORYS","outputs":[{"components":[{"internalType":"uint256","name":"id","type":"uint256"},{"internalType":"uint256","name":"patientId","type":"uint256"},{"internalType":"uint256","name":"doctorId","type":"uint256"},{"internalType":"uint256","name":"date","type":"uint256"},{"internalType":"string","name":"from","type":"string"},{"internalType":"string","name":"to","type":"string"},{"internalType":"string","name":"appointmentDate","type":"string"},{"internalType":"string","name":"condition","type":"string"},{"internalType":"string","name":"message","type":"string"},{"internalType":"bool","name":"isOpen","type":"bool"}],"internalType":"struct DataTypes.Appointment[]","name":"","type":"tuple[]"}],"stateMutability":"view","type":"function"},{"inputs":[{"internalType":"uint256","name":"_patientId","type":"uint256"}],"name":"GET_PATIENT_DETAILS","outputs":[{"components":[{"internalType":"uint256","name":"id","type":"uint256"},{"internalType":"string","name":"IPFS_URL","type":"string"},{"internalType":"string[]","name":"medicalHistory","type":"string[]"},{"internalType":"address","name":"accountAddress","type":"address"},{"internalType":"uint256[]","name":"boughtMedicines","type":"uint256[]"}],"internalType":"struct DataTypes.Patient","name":"","type":"tuple"}],"stateMutability":"view","type":"function"},{"inputs":[{"internalType":"address","name":"_patientAddress","type":"address"}],"name":"GET_PATIENT_ID","outputs":[{"internalType":"uint256","name":"","type":"uint256"}],"stateMutability":"view","type":"function"},{"inputs":[{"internalType":"uint256","name":"_patientId","type":"uint256"}],"name":"GET_PATIENT_MEDICIAL_HISTORY","outputs":[{"internalType":"string[]","name":"","type":"string[]"}],"stateMutability":"view","type":"function"},{"inputs":[{"internalType":"uint256","name":"_prescriptionId","type":"uint256"}],"name":"GET_PRESCRIPTION_DETAILS","outputs":[{"components":[{"internalType":"uint256","name":"id","type":"uint256"},{"internalType":"uint256","name":"medicineId","type":"uint256"},{"internalType":"uint256","name":"patientId","type":"uint256"},{"internalType":"uint256","name":"doctorId","type":"uint256"},{"internalType":"uint256","name":"date","type":"uint256"}],"internalType":"struct DataTypes.Prescription","name":"","type":"tuple"}],"stateMutability":"view","type":"function"},{"inputs":[{"internalType":"address","name":"friend_key","type":"address"},{"internalType":"address","name":"_myAddress","type":"address"}],"name":"GET_READ_MESSAGE","outputs":[{"components":[{"internalType":"address","name":"sender","type":"address"},{"internalType":"uint256","name":"timestamp","type":"uint256"},{"internalType":"string","name":"msg","type":"string"}],"internalType":"struct DataTypes.message[]","name":"","type":"tuple[]"}],"stateMutability":"view","type":"function"},{"inputs":[{"internalType":"address","name":"pubkey","type":"address"}],"name":"GET_USERNAME_TYPE","outputs":[{"components":[{"internalType":"string","name":"name","type":"string"},{"internalType":"string","name":"userType","type":"string"},{"components":[{"internalType":"address","name":"pubkey","type":"address"},{"internalType":"string","name":"name","type":"string"}],"internalType":"struct DataTypes.friend[]","name":"friendList","type":"tuple[]"}],"internalType":"struct DataTypes.User","name":"","type":"tuple"}],"stateMutability":"view","type":"function"},{"inputs":[{"internalType":"uint256","name":"_medicineId","type":"uint256"},{"internalType":"uint256","name":"_patientId","type":"uint256"}],"name":"PRESCRIBE_MEDICINE","outputs":[],"stateMutability":"nonpayable","type":"function"},{"inputs":[{"internalType":"string","name":"_IPFS_URL","type":"string"}],"name":"RegisterDoctor","outputs":[],"stateMutability":"payable","type":"function"},{"inputs":[{"internalType":"string","name":"_IPFS_URL","type":"string"},{"internalType":"string[]","name":"_medicalHistory","type":"string[]"}],"name":"RegisterPatient","outputs":[],"stateMutability":"payable","type":"function"},{"inputs":[{"internalType":"address payable","name":"_newAddress","type":"address"}],"name":"UPDATE_ADMIN_ADDRESS","outputs":[],"stateMutability":"nonpayable","type":"function"},{"inputs":[{"internalType":"uint256","name":"_newFee","type":"uint256"}],"name":"UPDATE_APPOINTMENT_FEE","outputs":[],"stateMutability":"nonpayable","type":"function"},{"inputs":[{"internalType":"uint256","name":"_medicineId","type":"uint256"}],"name":"UPDATE_MEDICINE_ACTIVE","outputs":[],"stateMutability":"nonpayable","type":"function"},{"inputs":[{"internalType":"uint256","name":"_medicineId","type":"uint256"},{"internalType":"uint256","name":"_discount","type":"uint256"}],"name":"UPDATE_MEDICINE_DISCOUNT","outputs":[],"stateMutability":"nonpayable","type":"function"},{"inputs":[{"internalType":"uint256","name":"_medicineId","type":"uint256"},{"internalType":"string","name":"_newLocation","type":"string"}],"name":"UPDATE_MEDICINE_LOCATION","outputs":[],"stateMutability":"nonpayable","type":"function"},{"inputs":[{"internalType":"uint256","name":"_medicineId","type":"uint256"},{"internalType":"uint256","name":"_price","type":"uint256"}],"name":"UPDATE_MEDICINE_PRICE","outputs":[],"stateMutability":"nonpayable","type":"function"},{"inputs":[{"internalType":"uint256","name":"_medicineId","type":"uint256"},{"internalType":"uint256","name":"_quantity","type":"uint256"}],"name":"UPDATE_MEDICINE_QUANTITY","outputs":[],"stateMutability":"nonpayable","type":"function"},{"inputs":[{"internalType":"uint256","name":"_patientId","type":"uint256"},{"internalType":"string","name":"_newMedicalHistory","type":"string"}],"name":"UPDATE_PATIENT_MEDICAL_HISTORY","outputs":[],"stateMutability":"nonpayable","type":"function"},{"inputs":[{"internalType":"uint256","name":"_newFee","type":"uint256"}],"name":"UPDATE_REGISTRATION_FEE","outputs":[],"stateMutability":"nonpayable","type":"function"},{"inputs":[{"internalType":"uint256","name":"_newFee","type":"uint256"}],"name":"UPDATE_REGISTRATION_PATIENT_FEE","outputs":[],"stateMutability":"nonpayable","type":"function"},{"inputs":[{"internalType":"address","name":"friend_key","type":"address"},{"internalType":"address","name":"_myAddress","type":"address"},{"internalType":"string","name":"_msg","type":"string"}],"name":"_SEND_MESSAGE","outputs":[],"stateMutability":"nonpayable","type":"function"},{"inputs":[],"name":"admin","outputs":[{"internalType":"address payable","name":"","type":"address"}],"stateMutability":"view","type":"function"},{"inputs":[],"name":"appointmentCount","outputs":[{"internalType":"uint256","name":"","type":"uint256"}],"stateMutability":"view","type":"function"},{"inputs":[],"name":"appointmentFee","outputs":[{"internalType":"uint256","name":"","type":"uint256"}],"stateMutability":"view","type":"function"},{"inputs":[{"internalType":"uint256","name":"","type":"uint256"}],"name":"appointments","outputs":[{"internalType":"uint256","name":"id","type":"uint256"},{"internalType":"uint256","name":"patientId","type":"uint256"},{"internalType":"uint256","name":"doctorId","type":"uint256"},{"internalType":"uint256","name":"date","type":"uint256"},{"internalType":"string","name":"from","type":"string"},{"internalType":"string","name":"to","type":"string"},{"internalType":"string","name":"appointmentDate","type":"string"},{"internalType":"string","name":"condition","type":"string"},{"internalType":"string","name":"message","type":"string"},{"internalType":"bool","name":"isOpen","type":"bool"}],"stateMutability":"view","type":"function"},{"inputs":[],"name":"doctorCount","outputs":[{"internalType":"uint256","name":"","type":"uint256"}],"stateMutability":"view","type":"function"},{"inputs":[{"internalType":"uint256","name":"","type":"uint256"}],"name":"doctors","outputs":[{"internalType":"uint256","name":"id","type":"uint256"},{"internalType":"string","name":"IPFS_URL","type":"string"},{"internalType":"address","name":"accountAddress","type":"address"},{"internalType":"uint256","name":"appointmentCount","type":"uint256"},{"internalType":"uint256","name":"successfulTreatmentCount","type":"uint256"},{"internalType":"bool","name":"isApproved","type":"bool"}],"stateMutability":"view","type":"function"},{"inputs":[],"name":"medicineCount","outputs":[{"internalType":"uint256","name":"","type":"uint256"}],"stateMutability":"view","type":"function"},{"inputs":[{"internalType":"uint256","name":"","type":"uint256"}],"name":"medicines","outputs":[{"internalType":"uint256","name":"id","type":"uint256"},{"internalType":"string","name":"IPFS_URL","type":"string"},{"internalType":"uint256","name":"price","type":"uint256"},{"internalType":"uint256","name":"quantity","type":"uint256"},{"internalType":"uint256","name":"discount","type":"uint256"},{"internalType":"string","name":"currentLocation","type":"string"},{"internalType":"bool","name":"active","type":"bool"}],"stateMutability":"view","type":"function"},{"inputs":[],"name":"patientCount","outputs":[{"internalType":"uint256","name":"","type":"uint256"}],"stateMutability":"view","type":"function"},{"inputs":[{"internalType":"uint256","name":"","type":"uint256"},{"internalType":"uint256","name":"","type":"uint256"}],"name":"patientOrders","outputs":[{"internalType":"uint256","name":"medicineId","type":"uint256"},{"internalType":"uint256","name":"price","type":"uint256"},{"internalType":"uint256","name":"payAmount","type":"uint256"},{"internalType":"uint256","name":"quantity","type":"uint256"},{"internalType":"uint256","name":"patientId","type":"uint256"},{"internalType":"uint256","name":"date","type":"uint256"}],"stateMutability":"view","type":"function"},{"inputs":[{"internalType":"uint256","name":"","type":"uint256"}],"name":"patients","outputs":[{"internalType":"uint256","name":"id","type":"uint256"},{"internalType":"string","name":"IPFS_URL","type":"string"},{"internalType":"address","name":"accountAddress","type":"address"}],"stateMutability":"view","type":"function"},{"inputs":[],"name":"prescriptionCount","outputs":[{"internalType":"uint256","name":"","type":"uint256"}],"stateMutability":"view","type":"function"},{"inputs":[{"internalType":"uint256","name":"","type":"uint256"}],"name":"prescriptions","outputs":[{"internalType":"uint256","name":"id","type":"uint256"},{"internalType":"uint256","name":"medicineId","type":"uint256"},{"internalType":"uint256","name":"patientId","type":"uint256"},{"internalType":"uint256","name":"doctorId","type":"uint256"},{"internalType":"uint256","name":"date","type":"uint256"}],"stateMutability":"view","type":"function"},{"inputs":[{"internalType":"address","name":"","type":"address"}],"name":"registeredDoctors","outputs":[{"internalType":"bool","name":"","type":"bool"}],"stateMutability":"view","type":"function"},{"inputs":[{"internalType":"address","name":"","type":"address"}],"name":"registeredPatients","outputs":[{"internalType":"bool","name":"","type":"bool"}],"stateMutability":"view","type":"function"},{"inputs":[],"name":"registrationDoctorFee","outputs":[{"internalType":"uint256","name":"","type":"uint256"}],"stateMutability":"view","type":"function"},{"inputs":[],"name":"registrationPatientFee","outputs":[{"internalType":"uint256","name":"","type":"uint256"}],"stateMutability":"view","type":"function"}],"evm":{"bytecode":{"linkReferences":{},"object":"60808060405234610042576608e1bc9bf04000601181905565e35fa931a000601255601355601080546001600160a01b0319163317905561543c90816100488239f35b600080fdfe6080604052600436101561001257600080fd5b60003560e01c806302cce77014614006578063046a07ed14613f8057806304c0adb714613f5d578063082ed54714613f3257806312dc901314613e395780631878f6c114613c865780631b82207e14613c59578063235f916714613ba05780632a42e74c14613a3a5780632c486bd51461398657806331dfc91b1461391e578063354b365f146137bc57806337a92da71461359f57806339d519a9146134ee5780633f308cd2146134af5780634a49158e1461310a5780634dafd490146130ec578063540a6614146130ce578063559160b814612f955780635597958e14612de657806356baa64e14612cc2578063636d362714612c715780636efb1b8414612be857806372de440114612ab857806374cdd53414612a3f578063770d954d1461298a57806378522bc41461296c5780637c0b501a14612861578063828b10da1461273f5780638366304b14612396578063842f8dd01461224c57806384e7aa2e146120d15780638c9e245d1461203b57806393119a8314611fd8578063934fedcd14611eea5780639cdaaad814611eab5780639fea8c2614611d47578063a0303c4114611d29578063a48f87d014611cb7578063a72c162314611bca578063b039ece914611a88578063b27b24f814611974578063b3e0c710146118c5578063b6558498146118a7578063bbece2bb146117e6578063c0a5999a146116f0578063c85e766d14611653578063d0da230614611534578063d174ea41146114a5578063dabf826a14611487578063dd1bf902146112d3578063e40b850e146112b5578063e92f0a6814611215578063ea51cd6c1461110b578063ebd557d914610b6b578063ed74e84814610919578063eebc3fb2146108fb578063f27e44cc14610888578063f28136a914610801578063f851a440146107d8578063fb5333b7146106fa578063fd9510d5146104c5578063fe60efa11461042a5763ff09a64e146102dc57600080fd5b34610425576020366003190112610425576102f56140a2565b60606040805161030481614190565b828152826020820152015261032061031b8261508e565b6150b1565b60018060a01b03166000526000602052604060002060405161034181614190565b61034a826141cc565b815260016103a761036f60026103618487016141cc565b9560208601968752016150f6565b9360408401948552610394604051946020865251606060208701526080860190614272565b9051848203601f19016040860152614272565b925192601f19838203016060840152835180825260208201916020808360051b8301019601926000915b8383106103de5786880387f35b9091929394602080610414839a601f198682030187526040838b5160018060a01b03815116845201519181858201520190614272565b9997019594919091019201906103d1565b600080fd5b3461042557602036600319011261042557610443614f5a565b5060043560005260056020526104c1604060002060ff60056040519261046884614108565b80548452610478600182016141cc565b602085015260018060a01b0360028201541660408501526003810154606085015260048101546080850152015416151560a0820152604051918291602083526020830190614561565b0390f35b3461042557602080600319360112610425576004359033600052600981526104f460ff60406000205416614af9565b610502600f54831115614bfd565b816000526008815260026040600020015461051c33614fdc565b0361069857816106969260005260088252600960406000200160ff19815416905561054633614fdc565b60005260058252600460406000200161055f8154614788565b90556105c060405161057081614190565b602f81527f596f752068617665207375636365737366756c6c7920636f6d706c6574656420848201526e1d1a1948185c1c1bda5b9d1b595b9d608a1b60408201526105b9614ad7565b90336148d6565b600052600881526001604060002001546000526006815260018060a01b0361064281600360406000200154166040516105f881614190565b602a81527f596f7572204170706f696e746d656e74206973207375636365737366756c6c7985820152690818dbdb5c1b195d195960b21b604082015261063c614ad7565b916148d6565b60105416907f446f63746f7220636f6d706c65746564206170706f696e746d656e74207375636040519161067583614190565b60298352820152686365737366756c6c7960b81b604082015261063c614ad7565b005b6084906040519062461bcd60e51b82526004820152603560248201527f4f6e6c79207468652061737369676e656420646f63746f722063616e20636f6d6044820152741c1b195d19481d1a1948185c1c1bda5b9d1b595b9d605a1b6064820152fd5b34610425577f573cca7a8cd583da809cdb83b4ea8dec06c87da579a25478cc69566672e2b5896107293661432c565b9061073f60018060a01b03601054163314614731565b61074d600b54821115614a01565b8060005260046020526107678260056040600020016147ae565b6107b760405161077681614190565b602681527f4d65646963696e65206c6f636174696f6e2075706461746564207375636365736020820152657366756c6c7960d01b60408201526105b96148b2565b6107d36040519283928352604060208401526040830190614272565b0390a1005b34610425576000366003190112610425576010546040516001600160a01b039091168152602090f35b3461042557602036600319011261042557601054610696906001600160a01b031661082d338214614731565b60043560115560405161083f81614190565b602e81527f596f752068617665207375636365737366756c6c79207570646174656420526560208201526d67697374726174696f6e2066656560901b604082015261063c614cbe565b34610425576020366003190112610425576108a1614cdf565b50600435600052600760205260a060406000206004604051916108c383614123565b80548352600181015460208401526002810154604084015260038101546060840152015460808201526108f96040518092614614565bf35b34610425576000366003190112610425576020600f54604051908152f35b34610425576060366003190112610425576109326140a2565b61093a6140b8565b906044356001600160401b0381116104255761095a903690600401614704565b92909161096e6109698361508e565b615171565b61097a61031b8261508e565b61098481836151d3565b15610b1757610993818361532e565b90604051946109a186614190565b60018060a01b039384811687526109c26020968789019342855236916142b2565b9360408801948552600052600186526040600020805497600160401b891015610b015760018901808355891015610aeb576002610aad96610a7995896106969c610a319660005260038d60002091020194511660018060a01b03198554161784555160018401555191016147ae565b604051610a3d81614190565b602281527f596f752068617665207375636365737366756c6c792073656e64206d657373618782015261676560f01b604082015261063c61530b565b604051610a858161415a565b6014815273596f752068617665206e6577206d65737361676560601b8582015261063c61530b565b6010541690786d6573736167652073656e64207375636365737366756c6c7960381b60405191610adc8361415a565b6019835282015261063c61530b565b634e487b7160e01b600052603260045260246000fd5b634e487b7160e01b600052604160045260246000fd5b60405162461bcd60e51b815260206004820152602660248201527f596f7520617265206e6f7420667269656e64207769746820746865206769766560448201526537103ab9b2b960d11b6064820152608490fd5b610120366003190112610425576001600160401b0360443581811161042557610b989036906004016142f8565b9060643581811161042557610bb19036906004016142f8565b9160843582811161042557610bca9036906004016142f8565b9060a43583811161042557610be39036906004016142f8565b9360c43584811161042557610bfc9036906004016142f8565b9360e4356001600160a01b0381169003610425576101043590811161042557610c29903690600401614704565b949095610c3c600d546004351115614b5d565b610c4c600c546024351115614a93565b6024356000526005602052610c6b60ff60056040600020015416614c49565b6004356000908152600660205260409020600301546001600160a01b031633036110b257601354340361107157610ca7600a3490810490614c8e565b94600f54610cb490614788565b9384600f5560405195610cc68761413e565b858752602087016004358152604088016024358152606089019142835260808a0193845260a08a0194855260c08a0195865260e08a019687526101008a019788526101208a019860018a526000526008602052604060002099518a555160018a0155516002890155516003880155516004870190610d43916147ae565b51610d5190600587016147ae565b51610d5f90600686016147ae565b51610d6d90600785016147ae565b51610d7b90600884016147ae565b5115159060090190610d98919060ff801983541691151516179055565b602435600052600560205260406000206003018054610db690614788565b905560105460009081908190819081906001600160a01b0316600a340415611067575b600a340491f115611052576000808080936024358252600560205260018060a01b0360026040842001541682821561105e575bf11561105257610e1e6109693361508e565b610e2960e43561508e565b15611013573360e4356001600160a01b031614610fbf57610e4c60e435336151d3565b15610f7e575b610e9c604051610e618161415a565b601a81527f596f7520686176652061206e6577206170706f696e746d656e740000000000006020820152610e93614c9b565b9060e4356148d6565b610ef1604051610eab81614190565b602b81527f596f752068617665207375636365737366756c6c7920626f6f6b656420616e2060208201526a185c1c1bda5b9d1b595b9d60aa1b60408201526105b9614c9b565b601054604051610f39916001600160a01b031690610f0e8161415a565b601681527513995dc8185c1c1bda5b9d1b595b9d08189bdbdad95960521b602082015261063c614c9b565b7f3ac6f9df28ef09d1b346be1f7d771f61872f07de8da7b88f490fe4f61b2b3e2c6080600f5460405190815260043560208201526024356040820152426060820152a1005b610f9691610f8d9136916142b2565b60e43533615267565b336000526000602052610fb8610faf60406000206141cc565b3360e435615267565b8080610e52565b60405162461bcd60e51b815260206004820152602660248201527f55736572732063616e6e6f7420616464207468656d73656c76657320617320666044820152657269656e647360d01b6064820152608490fd5b60405162461bcd60e51b815260206004820152601760248201527655736572206973206e6f7420726567697374657265642160481b6044820152606490fd5b6040513d6000823e3d90fd5b506108fc610e0c565b6108fc9150610dd9565b60405162461bcd60e51b8152602060048201526019602482015278496e636f7272656374206170706f696e746d656e742066656560381b6044820152606490fd5b60405162461bcd60e51b815260206004820152602b60248201527f4f6e6c79207468652070617469656e742063616e20626f6f6b2074686569722060448201526a185c1c1bda5b9d1b595b9d60aa1b6064820152608490fd5b3461042557600036600319011261042557600f5461112881614f0a565b9060018060005b8383111561114557604051806104c18782614414565b61120961120f9184600052600860ff60096020928084526111dd604060002091604051956111728761413e565b835487528a84015490870152600283015460408701526003830154606087015261119e600484016141cc565b60808701526111af600584016141cc565b60a08701526111c0600684016141cc565b60c08701526111d1600784016141cc565b60e087015282016141cc565b61010085015201541615156101208201526111f88289614d5a565b526112038188614d5a565b50614788565b92614788565b9161112f565b346104255760203660031901126104255761122e615055565b5060043560005260046020526104c1604060002060ff60066040519261125384614175565b80548452611263600182016141cc565b6020850152600281015460408501526003810154606085015260048101546080850152611292600582016141cc565b60a0850152015416151560c0820152604051918291602083526020830190614689565b34610425576000366003190112610425576020601154604051908152f35b346104255760a0366003190112610425576001600160401b03600435818111610425576113049036906004016142f8565b6084359182116104255761133d7f4bd6730197eeaa6a5861ee6770b4a7ea4945e177c1b8f8e196812da34b52b6209236906004016142f8565b61135260018060a01b03601054163314614731565b6113fd611360600b54614788565b80600b5560066040519161137383614175565b8083526113e760208401878152604085016024358152606086016044358152608087019160643583526113cb60a08901948b865260c08a0197600189526000526004602052604060002099518a555160018a016147ae565b51600288015551600387015551600486015551600585016147ae565b51151591019060ff801983541691151516179055565b61145660405161140c81614190565b602f81527f4e6577204d65646963696e6520616464656420746f206d61726b6574706c616360208201526e65207375636365737366756c6c792160881b60408201526105b96148b2565b6107d3600b54916114796040519485948552606060208601526060850190614272565b908382036040850152614272565b34610425576000366003190112610425576020601354604051908152f35b3461042557602036600319011261042557601054610696906001600160a01b03166114d1338214614731565b6004356012556040516114e381614190565b603681527f596f752068617665207375636365737366756c6c7920757064617465642050616020820152757469656e7420526567697374726174696f6e2066656560501b604082015261063c614cbe565b3461042557600036600319011261042557600c546001906000825b82811115611617575061156190614f8c565b916000815b8381111561157c57604051806104c187826145b2565b80600052600560209080825260ff6040600020918201541690816115ac575b5050506115a790614788565b611566565b916115a7939491600461160e94604051936115c685614108565b815485526115d58a83016141cc565b9085015260028101546001600160a01b031660408501526003810154606085015201546080830152151560a08201526111f88289614d5a565b9190868061159b565b8060005260ff600580602052604060002001541661163e575b61163990614788565b61154f565b9061164b61163991614788565b919050611630565b3461042557602036600319011261042557600435600052600460205260406000208054611682600183016141cc565b916116e46002820154600383015492600481015460ff60066116a6600585016141cc565b93015416946116c7604051988998895260e060208a015260e0890190614272565b9360408801526060870152608086015284820360a0860152614272565b90151560c08301520390f35b34610425576020366003190112610425577f954090adef24b59354b88966afb6b169cf1790275cc1c22d9d599cfa745041a560043561173a60018060a01b03601054163314614731565b611748600b54821115614a01565b6000818152600460205260409020600601805460ff818116151660ff199091161790556117b960405161177a81614190565b602481527f4d65646963696e65207374617475732075706461746564207375636365737366602082015263756c6c7960e01b60408201526105b96148b2565b60008181526004602090815260409182902060060154825193845260ff16151590830152819081016107d3565b34610425577f611a96f8a84b78b34d3917accd31d6e94ffc712cdd95a8ce7b8e2f9c5e093ae9604061181736614316565b61182c60018060a01b03601054163314614731565b61183a600b54831115614a01565b81600052600460205280600484600020015561189a835161185a81614190565b602681527f4d65646963696e6520646973636f756e742075706461746564207375636365736020820152657366756c6c7960d01b858201526105b96148b2565b82519182526020820152a1005b34610425576000366003190112610425576020600e54604051908152f35b3461042557602080600319360112610425576001600160a01b0390816118e96140a2565b166000526000815261190160026040600020016150f6565b60405191808301818452825180915260408401918060408360051b8701019401926000965b8388106119335786860387f35b90919293948380611963600193603f198b82030187526040838b5188815116845201519181858201520190614272565b970193019701969093929193611926565b346104255760003660031901126104255761198d614f5a565b50611996614f5a565b600090600180600c54915b828111156119bf57604051602080825281906104c190820187614561565b80600052600560208181526040600020916003926004848201549101548101809111611a72578881116119ff575b505050506119fa90614788565b6119a1565b60ff929398506119fa949750978760005281845260406000209060405194611a2686614108565b82548652611a358884016141cc565b9086015260028201546001600160a01b03166040860152810154606085015260048101546080850152015416151560a082015293908680806119ed565b634e487b7160e01b600052601160045260246000fd5b3461042557604036600319011261042557611ab1611aa46140a2565b611aac6140b8565b61532e565b60005260016020818152604060002091825491611acd8361435b565b92611adb60405194856141ab565b8084528184018095600052826000206000915b838310611b7a5750505050604051928184019082855251809152604084019160408260051b86010195926000905b838210611b295786880387f35b90919293948380611b69839a603f198b820301865260408a5160018060a01b03815116835284810151858401520151906060908160408201520190614272565b999701959493919091019101611b1c565b94600385829997604099979951611b9081614190565b85546001600160a01b031681528486015483820152611bb1600287016141cc565b6040820152815201920192019190969496959395611aee565b346104255760208060031936011261042557600435611bed600d54821115614b5d565b6000818152600683526040902060030154336001600160a01b0391821614908115611ca9575b5015611c455760005260068152611c306002604060002001614d9a565b906104c16040519282849384528301906144aa565b60405162461bcd60e51b815260048101839052603660248201527f4f6e6c79207468652070617469656e74206f722061646d696e2063616e207669604482015275657720746865206d65646963616c20686973746f727960501b6064820152608490fd5b905060105416331483611c13565b3461042557611cc536614316565b906000526003602052604060002080548210156104255760c091611ce8916146e8565b5080549060018101549060028101546003820154906005600484015493015493604051958652602086015260408501526060840152608083015260a0820152f35b34610425576000366003190112610425576020600d54604051908152f35b3461042557600036600319011261042557600b54611d648161435b565b611d7160405191826141ab565b818152601f19611d808361435b565b0160005b818110611e94575060019290508260005b82821115611e00578385604051906020808301818452845180915260408401918060408360051b8701019601926000905b838210611dd35786880387f35b90919293948380611def839a603f198b82030186528951614689565b999701959493919091019101611dc6565b611e88611e8e918360005260206004815260ff6006604060002060405193611e2785614175565b81548552611e368c83016141cc565b90850152600281015460408501526003810154606085015260048101546080850152611e64600582016141cc565b60a0850152015416151560c0820152611e7d8288614d5a565b526112038187614d5a565b91614788565b90611d95565b602090611e9f615055565b82828601015201611d84565b34610425576020366003190112610425576001600160a01b03611ecc6140a2565b16600052600a602052602060ff604060002054166040519015158152f35b3461042557611ef836614316565b611f06600d54831115614b5d565b336000526020916009835260ff604060002054168015611fb6575b611f2a906153c9565b8060005260068352600260406000200154821015611f7957611f6491611f5e91600052600684526002604060002001614ba2565b506141cc565b906104c1604051928284938452830190614272565b60405162461bcd60e51b8152600481018490526015602482015274149958dbdc9908191bd95cc81b9bdd08195e1a5cdd605a1b6044820152606490fd5b5060008181526006845260409020600301546001600160a01b03163314611f21565b3461042557602036600319011261042557600435600052600660205260406000208054612007600183016141cc565b91600360018060a01b03910154166120316040519384938452606060208501526060840190614272565b9060408301520390f35b3461042557600036600319011261042557600e5461205881614d0a565b9060018060005b8383111561207557604051806104c18782614641565b6112096120cb9184600052602060078152600460406000206040519261209a84614123565b8154845287820154908401526002810154604084015260038101546060840152015460808201526111f88289614d5a565b9161205f565b3461042557602080600319360112610425576004356120ee614ebf565b506120fd600f54821115614bfd565b806000526008825260016040600020015461211733614e3e565b148015612238575b156121d8576000526008815260406000209060ff6009604051936121428561413e565b80548552600181015484860152600281015460408601526003810154606086015261216f600482016141cc565b6080860152612180600582016141cc565b60a0860152612191600682016141cc565b60c08601526121a2600782016141cc565b60e08601526121b3600882016141cc565b61010086015201541615156101208301526104c1604051928284938452830190614372565b60405162461bcd60e51b815260048101839052603260248201527f4f6e6c79207468652070617469656e74206f722061646d696e2063616e207669604482015271195dc81d1a1948185c1c1bda5b9d1b595b9d60721b6064820152608490fd5b506010546001600160a01b0316331461211f565b3461042557600036600319011261042557600d546122698161435b565b61227660405191826141ab565b818152601f196122858361435b565b0160005b81811061237f575060019290508260005b82821115612305578385604051906020808301818452845180915260408401918060408360051b8701019601926000905b8382106122d85786880387f35b909192939483806122f4839a603f198b82030186528951614506565b9997019594939190910191016122cb565b611e88612379918360005260206006815261236a600460406000206040519361232d85614123565b8154855261233c8c83016141cc565b9085015261234c60028201614d9a565b604085015260038101546001600160a01b0316606085015201614def565b6080820152611e7d8288614d5a565b9061229a565b60209061238a614d6e565b82828601015201612289565b60603660031901126104255760043560248035906044356123bb600d54851115614b5d565b6123c9600b54841115614a01565b836000526020916006835260018060a01b03916003908382604060002001541633036126eb57856000526004855260ff60066040600020015416156126ae5785600052600485528082604060002001541061266a57856000526004855260026040600020015491818302928084048314901517156126555786600052600486528060406000200161245b838254614c8e565b9055600088815260068752604090206004018054600160401b939184821015612640579061248e91600182018155614ba2565b815490841b908a821b91600019901b19161790558860005281875260406000209388600052600488526002604060002001546040516124cc81614108565b8a8152898101918252604081019283526060810193845260808101958c875260a082019742895280549182101561262b579061250d916001820181556146e8565b9890986126175750518755516001870155516002860155519084015551600483015551600590910155604080517f1d62f96054391d98915909b52fc6b2182af4ce3748f5ddd6c0047dd725a969df9591949193919261260c916125b19061257381614190565b602581527f596f752068617665207375636365737366756c6c7920626f75676874206d656485820152646963696e6560d81b888201526105b9614c9b565b6010541685516125c081614190565b603381527f5472616e73616374696f6e20636f6d706c657465642c206d61646963696e65208482015272626f75676874207375636365737366756c6c7960681b8782015261063c614c9b565b8351928352820152a1005b634e487b7160e01b60005260006004526000fd5b89634e487b7160e01b60005260416004526000fd5b86634e487b7160e01b60005260416004526000fd5b83634e487b7160e01b60005260116004526000fd5b60405162461bcd60e51b815260048101869052601c818501527f4e6f7420656e6f756768206d65646963696e6520696e2073746f636b000000006044820152606490fd5b60405162461bcd60e51b815260048101869052601681850152754d65646963696e65206973206e6f742061637469766560501b6044820152606490fd5b60405162461bcd60e51b8152600481018690526027818501527f4f6e6c79207468652070617469656e742063616e20627579207468656972206d60448201526665646963696e6560c81b6064820152608490fd5b346104255760003660031901126104255760145461275c8161435b565b9061276a60405192836141ab565b80825260146000908152602091828401917fce6d7b5282bd9a3661ae061feed1dbda4e52ab073b1f9285be6e155d9c38d4ec835b8383106128215750505050604051918083019381845251809452604083019360408160051b85010192916000955b8287106127d95785850386f35b909192938280600192603f19898203018552875190826128028351604084526040840190614272565b9281878060a01b039101511691015296019201960195929190926127cc565b6002866001926040999899516128368161415a565b61283f866141cc565b8152848060a01b0385870154168382015281520192019201919095949561279e565b346104255760208060031936011261042557600e546001916004356000845b84811115612931575061289290614d0a565b93600091815b858111156128ae57604051806104c18982614641565b806000526007855260406000206002810154908382146128d9575b50506128d490614788565b612898565b946129299160046128d49497604051926128f284614123565b81548452888201548b8501526040840152600381015460608401520154608082015261291e828b614d5a565b52611203818a614d5a565b9390886128c9565b80600052600784528260026040600020015414612957575b61295290614788565b612880565b9061296461295291614788565b919050612949565b34610425576000366003190112610425576020600c54604051908152f35b3461042557600036600319011261042557600c546129a781614f8c565b9060018060005b838311156129c457604051806104c187826145b2565b611209612a399184600052600560ff6020918083526040600020604051936129eb85614108565b815485526129fa8983016141cc565b9085015260028101546001600160a01b031660408501526003810154606085015260048101546080850152015416151560a08201526111f88289614d5a565b916129ae565b3461042557602036600319011261042557612a58614d6e565b5060043560005260066020526104c16040600020612a9f600460405192612a7e84614123565b80548452612a8e600182016141cc565b602085015261234c60028201614d9a565b6080820152604051918291602083526020830190614506565b346104255760208060031936011261042557600435612adb600c54821115614a93565b6000906001928392600f54935b84811115612bad5750612afa90614f0a565b93600091815b85811115612b1657604051806104c18982614414565b8060005260088083526040600020600281015491878314612b43575b505050612b3e90614788565b612b00565b9160ff6009612b3e959893612b89612ba49660405195612b628761413e565b835487528b8401548b88015260408701526003830154606087015261119e600484016141cc565b610100850152015416151561012082015261291e828b614d5a565b93908880612b32565b80600052600883528360026040600020015414612bd3575b612bce90614788565b612ae8565b90612be0612bce91614788565b919050612bc5565b3461042557602036600319011261042557600435600052600560205260406000208054612c17600183016141cc565b9160018060a01b036002820154169060038101549060ff600560048301549201541691612c56604051968796875260c0602088015260c0870190614272565b93604086015260608501526080840152151560a08301520390f35b3461042557602036600319011261042557600435612c93600d54821115614b5d565b60005260066020526104c1612cae6004604060002001614def565b604051918291602083526020830190614476565b346104255760208060031936011261042557600435612ce5600d54821115614b5d565b6000526003908181526040600020918254612cff8161435b565b91612d0d60405193846141ab565b81835260009485528385208484019591865b848410612d9357604080518881528751818a018190528a928201908a60005b828110612d4b5784840385f35b855180518552808301518584015260408082015190860152606080820151908601526080808201519086015260a090810151908501529481019460c090930192600101612d3e565b600687600192604051612da581614108565b8654815284870154838201526002870154604082015285870154606082015260048701546080820152600587015460a0820152815201930193019291612d1f565b34610425576020806003193601126104255760043560018060a01b03612e1181601054163314614731565b612e1f600c54831115614a93565b8160005260059081845260ff826040600020015416612f505790807ffb071d6299bd71490cb62d5ce7358d7d43ab700c9b4a8bff1f869d2d52c0f11794612f2460ff9486600052838352612e8884604060002001878154161560ff801983541691151516179055565b612ed6604051612e9781614190565b602581527f596f75206861766520617070726f76656420446f636f74722072656769737472858201526430ba34b7b760d91b60408201526105b9614ad7565b8660005283835260026040600020015416604051612ef38161415a565b601d81527f596f757220726567697374726174696f6e20697320617070726f7665640000008482015261063c614ad7565b84600052526040600020015416906107d360405192839283909291602090604083019483521515910152565b60405162461bcd60e51b815260048101859052601a60248201527f446f63746f7220697320616c726561647920617070726f7665640000000000006044820152606490fd5b346104255760208060031936011261042557600435612fb8600d54821115614b5d565b600f5490600060015b838111156130935750612fd390614f0a565b9260009060015b84811115612ff057604051806104c18882614414565b806000526008808352604060002060018101549186831461301d575b50505061301890614788565b612fda565b9160ff600961301895979361306461308a966040519561303c8761413e565b835487528a870152600283015460408701526003830154606087015261119e600484016141cc565b610100850152015416151561012082015261307f828a614d5a565b526112038189614d5a565b9290878061300c565b806000526008855282600160406000200154146130b9575b6130b490614788565b612fc1565b906130c66130b491614788565b9190506130ab565b34610425576000366003190112610425576020601254604051908152f35b34610425576000366003190112610425576020600b54604051908152f35b6040366003190112610425576001600160401b03600435818111610425576131369036906004016142f8565b602480359280841161042557366023850112156104255783600401359161315c8361435b565b9461316a60405196876141ab565b838652602093828588019160051b8301019136831161042557838101915b83831061348957505050506131a06012543414614a47565b33600052600a835260ff60406000205416613446576131c0600d54614788565b9485600d55604051918483018381108582111761337d5760405260008352604051956131eb87614123565b8787528587019081526040870192835260608701973389526080880194855260005260068652604060002096518755519561322a6001978883016147ae565b91518051600160401b9391600283019085831161343157889082548484558085106133af575b5001906000528760002089896000935b858510613392575050505050508060036004920160018060a01b03809a511660018060a01b031982541617905501925191825194851161337d57841161336957508390825484845580851061334c575b5001906000528260002060005b83811061333b5760008080808a8a600a8b33855252604083209060ff198254161790556010541681903415613331575b3491f11561105257600d54604080519182523360208301527f5d15ccd14df016b6e249336c7a4bb971599b3bf46cbaa924c7fe6ffadcd87b2d9190819081016107d3565b6108fc91506132ed565b8251828201559184019185016132bd565b613363908460005285846000209182019101614797565b876132b0565b634e487b7160e01b60009081526041600452fd5b50634e487b7160e01b60009081526041600452fd5b90816133a0849351866147ae565b01920192019190898b91613260565b8360005282600020908c8683015b82840181106133ce57505050613250565b90919293946133dd82546140ce565b806133f1575b505001908c8c9493926133bd565b601f9182821160011461340d57505050600081555b8c386133e3565b600092613428918585528420920160051c8201858301614797565b81835555613406565b84634e487b7160e01b60005260416004526000fd5b82601d6064926040519262461bcd60e51b845260048401528201527f50617469656e7420697320616c726561647920726567697374657265640000006044820152fd5b82358681116104255787916134a483928836918701016142f8565b815201920191613188565b34610425576020366003190112610425576001600160a01b036134d06140a2565b166000526009602052602060ff604060002054166040519015158152f35b34610425577f72c1daf6e13ce6ca90b14e03629096ad6d0db94b6cffdce97e62cf5008ab1fd4604061351f36614316565b61353460018060a01b03601054163314614731565b613542600b54831115614a01565b81600052600460205280600284600020015561189a835161356281614190565b602381527f4d65646963696e652070726963652075706461746564207375636365737366756020820152626c6c7960e81b858201526105b96148b2565b34610425576106966135b036614316565b336000527f90d667bfa211b72f96ed398bbcfae5988d97e3a4c929a0f5d46888f6899d77a081602093600985526135ee60ff60406000205416614af9565b6135f733614fdc565b6000526005855261361260ff60056040600020015416614c49565b61361d600e54614788565b80600e55600461362c33614fdc565b916040519261363a84614123565b818452888401858152604085019087825260608601928352608086019342855260005260078b52604060002095518655516001860155516002850155516003840155519101556136bc600e5461368f33614fdc565b6040519485944293869192608093969594919660a084019784526020840152604083015260608201520152565b0390a16137116040516136ce81614190565b602981527f596f752068617665207375636365737366756c6c7920707265736372696265648482015268206d65646963696e6560b81b60408201526105b9614ad7565b6000526006815260018060a01b0361376a81600360406000200154166040516137398161415a565b601e81527f446f63746f72207072657363726962656420796f75206d65646963696e6500008582015261063c614ad7565b60105416907f446f63746f722070726573637269626564206d65646963696e652073756363656040519161379d83614190565b6027835282015266737366756c6c7960c81b604082015261063c614ad7565b34610425576106966137cd3661432c565b9033600052613810602092600984526137ed60ff60406000205416614af9565b6137fb600d54841115614b5d565b82600052600684526002604060002001614bba565b61386e60405161381f81614190565b603581527f596f752068617665207375636365737366756c6c79207570646174652c20706184820152747469656e74206d65646963616c20686973746f727960581b60408201526105b9614ad7565b600052600681526138d560018060a01b036003604060002001541660405161389581614190565b602681527f596f7572206d65646963616c20686973746f727920757064617465642062792084820152653237b1ba37b960d11b604082015261063c614ad7565b7f50617469656e74206d6564696369616c20686973746f727920697320757064616040519161390383614190565b60238352820152621d195960ea1b60408201526105b9614ad7565b34610425576020366003190112610425576004356000526007602052604060002080546104c16001830154926002810154906004600382015491015491604051958695869192608093969594919660a084019784526020840152604083015260608201520152565b34610425577f1e689cd9ac52751e42953a5acd30b7eac0cc9804ec5c814b2cb6bff6e8ab852b60406139b736614316565b6139cc60018060a01b03601054163314614731565b6139da600b54831115614a01565b81600052600460205280600384600020015561189a83516139fa81614190565b602681527f4d65646963696e65207175616e746974792075706461746564207375636365736020820152657366756c6c7960d01b858201526105b96148b2565b3461042557602080600319360112610425576001600160a01b039081613a5e6140a2565b166000526002908181526040600020908154613a798161435b565b93613a8760405195866141ab565b81855260009384528284208386019491855b848410613b41575050505050604051928184019082855251809152604084019160408260051b86010193926000965b838810613ad55786860387f35b90919293948380613b30600193603f198b820301875289518051825286848201511684830152613b13604082015160a0806040860152840190614272565b916060808301519082015260808092015191818403910152614272565b970193019701969093929193613ac8565b60058660019260409a989a51613b5681614123565b865481528c858801541683820152613b6f8688016141cc565b604082015260038701546060820152613b8a600488016141cc565b6080820152815201930193019291969496613a99565b34610425576060366003190112610425576001600160401b0360043560243582811161042557613bd49036906004016142f8565b9060443592831161042557613bf06106969336906004016142f8565b50613bff600d54821115614b5d565b33600052600960205260ff604060002054168015613c36575b613c21906153c9565b60005260066020526002604060002001614bba565b506000818152600660205260409020600301546001600160a01b03163314613c18565b34610425576020366003190112610425576020613c7c613c776140a2565b61508e565b6040519015158152f35b602080600319360112610425576004356001600160401b03811161042557613cb29036906004016142f8565b90613cc06011543414614a47565b336000526009815260ff60406000205416613df557600080809360098294613d87613cec600c54614788565b80600c55600560405191613cff83614108565b808352848301968752604083019633885260608401898152613d4160808601928b845260a08701948c86528c5285895260408c209651875551600187016147ae565b97516002850180546001600160a01b039283166001600160a01b031990911617905597516003850155516004840155519101805460ff191691151560ff16919091179055565b3384525260408220805460ff191660011790556010548291163415613deb575b3491f11561105257600c54604080519182523360208301527fdbb5721b905019eaef363a42e3a802936975f37211a4e965d7a8b00eea9ef3ec9190819081016107d3565b6108fc9150613da7565b6064906040519062461bcd60e51b82526004820152601c60248201527f446f63746f7220697320616c72656164792072656769737465726564000000006044820152fd5b3461042557602036600319011261042557600435600052600860205260406000208054600182015491600281015490600381015460048201613e7a906141cc565b613e86600584016141cc565b613e92600685016141cc565b91613e9f600786016141cc565b93613eac600887016141cc565b956009015460ff1696604051998a998a5260208a0152604089015260608801526101408060808901528701613ee091614272565b86810360a0880152613ef191614272565b85810360c0870152613f0291614272565b84810360e0860152613f1391614272565b838103610100850152613f2591614272565b9015156101208301520390f35b34610425576020366003190112610425576020613f55613f506140a2565b614fdc565b604051908152f35b34610425576020366003190112610425576020613f55613f7b6140a2565b614e3e565b3461042557602036600319011261042557601054610696906001600160a01b0316613fac338214614731565b600435601355604051613fbe81614190565b602d81527f596f752068617665207375636365737366756c6c79207570646174656420417060208201526c706f696e746d656e742066656560981b604082015261063c614cbe565b34610425576020366003190112610425576001600160a01b03600435818116908190036104255780610696926140426010549182163314614731565b6001600160a01b0319161760105560405161405c81614190565b602b81527f596f752068617665207375636365737366756c6c79207570646174656420616460208201526a6d696e206164647265737360a81b604082015261063c614cbe565b600435906001600160a01b038216820361042557565b602435906001600160a01b038216820361042557565b90600182811c921680156140fe575b60208310146140e857565b634e487b7160e01b600052602260045260246000fd5b91607f16916140dd565b60c081019081106001600160401b03821117610b0157604052565b60a081019081106001600160401b03821117610b0157604052565b61014081019081106001600160401b03821117610b0157604052565b604081019081106001600160401b03821117610b0157604052565b60e081019081106001600160401b03821117610b0157604052565b606081019081106001600160401b03821117610b0157604052565b90601f801991011681019081106001600160401b03821117610b0157604052565b90604051918260008254926141e0846140ce565b90818452600194858116908160001461424f575060011461420c575b505061420a925003836141ab565b565b9093915060005260209081600020936000915b81831061423757505061420a935082010138806141fc565b8554888401850152948501948794509183019161421f565b91505061420a94506020925060ff191682840152151560051b82010138806141fc565b919082519283825260005b84811061429e575050826000602080949584010152601f8019910116010190565b60208183018101518483018201520161427d565b9291926001600160401b038211610b0157604051916142db601f8201601f1916602001846141ab565b829481845281830111610425578281602093846000960137010152565b9080601f8301121561042557816020614313933591016142b2565b90565b6040906003190112610425576004359060243590565b9060406003198301126104255760043591602435906001600160401b03821161042557614313916004016142f8565b6001600160401b038111610b015760051b60200190565b90815181526020820151602082015260408201516040820152606082015160608201526144046143f06143de6143cc6143ba6080870151610140806080890152870190614272565b60a087015186820360a0880152614272565b60c086015185820360c0870152614272565b60e085015184820360e0860152614272565b610100808501519084830390850152614272565b9161012080910151151591015290565b602080820190808352835180925260408301928160408460051b8301019501936000915b8483106144485750505050505090565b9091929394958480614466600193603f198682030187528a51614372565b9801930193019194939290614438565b90815180825260208080930193019160005b828110614496575050505090565b835185529381019392810192600101614488565b908082519081815260208091019281808460051b8301019501936000915b8483106144d85750505050505090565b90919293949584806144f6600193601f198682030187528a51614272565b98019301930191949392906144c8565b6143139181518152608061453e61452c602085015160a0602086015260a0850190614272565b604085015184820360408601526144aa565b9260018060a01b0360608201511660608401520151906080818403910152614476565b908151815260a080614582602085015160c0602086015260c0850190614272565b93600180831b03604082015116604085015260608101516060850152608081015160808501520151151591015290565b602080820190808352835180925260408301928160408460051b8301019501936000915b8483106145e65750505050505090565b9091929394958480614604600193603f198682030187528a51614561565b98019301930191949392906145d6565b60808091805184526020810151602085015260408101516040850152606081015160608501520151910152565b6020908160408183019282815285518094520193019160005b828110614668575050505090565b909192938260a08261467d6001948951614614565b0195019392910161465a565b908151815260c0806146dd6146ad602086015160e0602087015260e0860190614272565b60408601516040860152606086015160608601526080860151608086015260a086015185820360a0870152614272565b930151151591015290565b8054821015610aeb576000526006602060002091020190600090565b9181601f84011215610425578235916001600160401b038311610425576020838186019501011161042557565b1561473857565b60405162461bcd60e51b815260206004820152602260248201527f4f6e6c792061646d696e2063616e20706572666f726d2074686973206163746960448201526137b760f11b6064820152608490fd5b6000198114611a725760010190565b8181106147a2575050565b60008155600101614797565b91909182516001600160401b038111610b01576147cb82546140ce565b601f8111614875575b50602080601f8311600114614811575081929394600092614806575b50508160011b916000199060031b1c1916179055565b0151905038806147f0565b90601f198316958460005282600020926000905b88821061485d57505083600195969710614844575b505050811b019055565b015160001960f88460031b161c1916905538808061483a565b80600185968294968601518155019501930190614825565b6148a290836000526020600020601f840160051c810191602085106148a8575b601f0160051c0190614797565b386147d4565b9091508190614895565b604051906148bf8261415a565b60088252674d65646963696e6560c01b6020830152565b6001600160a01b03908116600081815260026020526040808220548151939691949192919061490485614123565b84526020840187815285850191878352606086019342855260808701958652898152600260205287812090815491600160401b8310156149ed57600183018082558310156149d957937f9c26059514ab57d9b1c23a991546f58e9339e76427bf2909f3eb15feb61cd5719a999896936149ad9360056020856149bb9c9960049b975220910201975188556001880191511660018060a01b031982541617905551600286016147ae565b5160038401555191016147ae565b6149ce8151928284938452830190614272565b4260208301520390a2565b634e487b7160e01b82526032600452602482fd5b634e487b7160e01b82526041600452602482fd5b15614a0857565b60405162461bcd60e51b81526020600482015260176024820152761359591a58da5b9948191bd95cc81b9bdd08195e1a5cdd604a1b6044820152606490fd5b15614a4e57565b60405162461bcd60e51b815260206004820152601a60248201527f496e636f727265637420726567697374726174696f6e206665650000000000006044820152606490fd5b15614a9a57565b60405162461bcd60e51b8152602060048201526015602482015274111bd8dd1bdc88191bd95cc81b9bdd08195e1a5cdd605a1b6044820152606490fd5b60405190614ae48261415a565b60068252652237b1ba37b960d11b6020830152565b15614b0057565b60405162461bcd60e51b815260206004820152602f60248201527f4f6e6c79207265676973746572656420646f63746f72732063616e207065726660448201526e37b936903a3434b99030b1ba34b7b760891b6064820152608490fd5b15614b6457565b60405162461bcd60e51b815260206004820152601660248201527514185d1a595b9d08191bd95cc81b9bdd08195e1a5cdd60521b6044820152606490fd5b8054821015610aeb5760005260206000200190600090565b8054600160401b811015610b0157614bd791600182018155614ba2565b919091614be75761420a916147ae565b634e487b7160e01b600052600060045260246000fd5b15614c0457565b60405162461bcd60e51b815260206004820152601a60248201527f4170706f696e746d656e7420646f6573206e6f742065786973740000000000006044820152606490fd5b15614c5057565b60405162461bcd60e51b8152602060048201526016602482015275111bd8dd1bdc881a5cc81b9bdd08185c1c1c9bdd995960521b6044820152606490fd5b91908203918211611a7257565b60405190614ca88261415a565b600782526614185d1a595b9d60ca1b6020830152565b60405190614ccb8261415a565b600582526420b236b4b760d91b6020830152565b60405190614cec82614123565b60006080838281528260208201528260408201528260608201520152565b90614d148261435b565b614d2160405191826141ab565b8281528092614d32601f199161435b565b019060005b828110614d4357505050565b602090614d4e614cdf565b82828501015201614d37565b8051821015610aeb5760209160051b010190565b60405190614d7b82614123565b6060608083600081528260208201528260408201526000838201520152565b908154614da68161435b565b92614db460405194856141ab565b818452600090815260208082208186015b848410614dd3575050505050565b6001838192614de1856141cc565b815201920193019290614dc5565b9060405191828154918282526020928383019160005283600020936000905b828210614e245750505061420a925003836141ab565b855484526001958601958895509381019390910190614e0e565b600d5490600060015b83811115614e885760405162461bcd60e51b815260206004820152601160248201527014185d1a595b9d081b9bdd08199bdd5b99607a1b6044820152606490fd5b808252600660205260408220600301546001600160a01b03848116911614614eb857614eb390614788565b614e47565b9250505090565b60405190614ecc8261413e565b600061012083828152826020820152826040820152606083818301528060808301528060a08301528060c08301528060e08301526101008201520152565b90614f148261435b565b614f2160405191826141ab565b8281528092614f32601f199161435b565b019060005b828110614f4357505050565b602090614f4e614ebf565b82828501015201614f37565b60405190614f6782614108565b600060a083828152606060208201528260408201528260608201528260808201520152565b90614f968261435b565b614fa360405191826141ab565b8281528092614fb4601f199161435b565b019060005b828110614fc557505050565b602090614fd0614f5a565b82828501015201614fb9565b600c5490600060015b838111156150255760405162461bcd60e51b815260206004820152601060248201526f111bd8dd1bdc881b9bdd08199bdd5b9960821b6044820152606490fd5b808252600560205260408220600201546001600160a01b03848116911614614eb85761505090614788565b614fe5565b6040519061506282614175565b600060c08382815260606020820152826040820152826060820152826080820152606060a08201520152565b60018060a01b031660005260006020526150ac6040600020546140ce565b151590565b156150b857565b60405162461bcd60e51b8152602060048201526016602482015275155cd95c881a5cc81b9bdd081c9959da5cdd195c995960521b6044820152606490fd5b9081546151028161435b565b92604093615112855191826141ab565b828152809460208092019260005281600020906000935b85851061513857505050505050565b60028460019284516151498161415a565b848060a01b03875416815261515f8588016141cc565b83820152815201930194019391615129565b1561517857565b60405162461bcd60e51b815260206004820152601760248201527610dc99585d1948185b881858d8dbdd5b9d08199a5c9cdd604a1b6044820152606490fd5b8054821015610aeb5760005260206000209060011b0190600090565b9060018060a01b0360008184168152602081815260029060409082828520015485871685528383862001541061525f575b83905b858816855284815283838620018054831015615253576152288388926151b7565b50541686881614615246578561523e8693614788565b925050615207565b5050505050505050600190565b50505050509250505090565b949594615204565b91906040516152758161415a565b6001600160a01b039182168152602080820193845293821660009081529384905260408420600201805490600160401b8210156152f757906152bc916001820181556151b7565b9490946152e357505183546001600160a01b03191691161782555161420a916001016147ae565b634e487b7160e01b81526004819052602490fd5b634e487b7160e01b86526041600452602486fd5b604051906153188261415a565b60078252664d65737361676560c81b6020830152565b906001600160a01b0380821690831610156153915761538b61537d91604051928391602083019586906028926bffffffffffffffffffffffff19809260601b16835260601b1660148201520190565b03601f1981018352826141ab565b51902090565b6040516bffffffffffffffffffffffff19606092831b8116602083019081529390921b909116603482015261538b816048810161537d565b156153d057565b60405162461bcd60e51b815260206004820152600e60248201526d139bdd08185d5d1a1bdc9a5e995960921b6044820152606490fdfea2646970667358221220aa164fb8fee9e09ac7082cecc3bc2d46bb16768709bb31981a000bd1d200a5ed64736f6c63430008130033","opcodes":"PUSH1 0x80 DUP1 PUSH1 0x40 MSTORE CALLVALUE PUSH2 0x42 JUMPI PUSH7 0x8E1BC9BF04000 PUSH1 0x11 DUP2 SWAP1 SSTORE PUSH6 0xE35FA931A000 PUSH1 0x12 SSTORE PUSH1 0x13 SSTORE PUSH1 0x10 DUP1 SLOAD PUSH1 0x1 PUSH1 0x1 PUSH1 0xA0 SHL SUB NOT AND CALLER OR SWAP1 SSTORE PUSH2 0x543C SWAP1 DUP2 PUSH2 0x48 DUP3 CODECOPY RETURN JUMPDEST PUSH1 0x0 DUP1 REVERT INVALID PUSH1 0x80 PUSH1 0x40 MSTORE PUSH1 0x4 CALLDATASIZE LT ISZERO PUSH2 0x12 JUMPI PUSH1 0x0 DUP1 REVERT JUMPDEST PUSH1 0x0 CALLDATALOAD PUSH1 0xE0 SHR DUP1 PUSH4 0x2CCE770 EQ PUSH2 0x4006 JUMPI DUP1 PUSH4 0x46A07ED EQ PUSH2 0x3F80 JUMPI DUP1 PUSH4 0x4C0ADB7 EQ PUSH2 0x3F5D JUMPI DUP1 PUSH4 0x82ED547 EQ PUSH2 0x3F32 JUMPI DUP1 PUSH4 0x12DC9013 EQ PUSH2 0x3E39 JUMPI DUP1 PUSH4 0x1878F6C1 EQ PUSH2 0x3C86 JUMPI DUP1 PUSH4 0x1B82207E EQ PUSH2 0x3C59 JUMPI DUP1 PUSH4 0x235F9167 EQ PUSH2 0x3BA0 JUMPI DUP1 PUSH4 0x2A42E74C EQ PUSH2 0x3A3A JUMPI DUP1 PUSH4 0x2C486BD5 EQ PUSH2 0x3986 JUMPI DUP1 PUSH4 0x31DFC91B EQ PUSH2 0x391E JUMPI DUP1 PUSH4 0x354B365F EQ PUSH2 0x37BC JUMPI DUP1 PUSH4 0x37A92DA7 EQ PUSH2 0x359F JUMPI DUP1 PUSH4 0x39D519A9 EQ PUSH2 0x34EE JUMPI DUP1 PUSH4 0x3F308CD2 EQ PUSH2 0x34AF JUMPI DUP1 PUSH4 0x4A49158E EQ PUSH2 0x310A JUMPI DUP1 PUSH4 0x4DAFD490 EQ PUSH2 0x30EC JUMPI DUP1 PUSH4 0x540A6614 EQ PUSH2 0x30CE JUMPI DUP1 PUSH4 0x559160B8 EQ PUSH2 0x2F95 JUMPI DUP1 PUSH4 0x5597958E EQ PUSH2 0x2DE6 JUMPI DUP1 PUSH4 0x56BAA64E EQ PUSH2 0x2CC2 JUMPI DUP1 PUSH4 0x636D3627 EQ PUSH2 0x2C71 JUMPI DUP1 PUSH4 0x6EFB1B84 EQ PUSH2 0x2BE8 JUMPI DUP1 PUSH4 0x72DE4401 EQ PUSH2 0x2AB8 JUMPI DUP1 PUSH4 0x74CDD534 EQ PUSH2 0x2A3F JUMPI DUP1 PUSH4 0x770D954D EQ PUSH2 0x298A JUMPI DUP1 PUSH4 0x78522BC4 EQ PUSH2 0x296C JUMPI DUP1 PUSH4 0x7C0B501A EQ PUSH2 0x2861 JUMPI DUP1 PUSH4 0x828B10DA EQ PUSH2 0x273F JUMPI DUP1 PUSH4 0x8366304B EQ PUSH2 0x2396 JUMPI DUP1 PUSH4 0x842F8DD0 EQ PUSH2 0x224C JUMPI DUP1 PUSH4 0x84E7AA2E EQ PUSH2 0x20D1 JUMPI DUP1 PUSH4 0x8C9E245D EQ PUSH2 0x203B JUMPI DUP1 PUSH4 0x93119A83 EQ PUSH2 0x1FD8 JUMPI DUP1 PUSH4 0x934FEDCD EQ PUSH2 0x1EEA JUMPI DUP1 PUSH4 0x9CDAAAD8 EQ PUSH2 0x1EAB JUMPI DUP1 PUSH4 0x9FEA8C26 EQ PUSH2 0x1D47 JUMPI DUP1 PUSH4 0xA0303C41 EQ PUSH2 0x1D29 JUMPI DUP1 PUSH4 0xA48F87D0 EQ PUSH2 0x1CB7 JUMPI DUP1 PUSH4 0xA72C1623 EQ PUSH2 0x1BCA JUMPI DUP1 PUSH4 0xB039ECE9 EQ PUSH2 0x1A88 JUMPI DUP1 PUSH4 0xB27B24F8 EQ PUSH2 0x1974 JUMPI DUP1 PUSH4 0xB3E0C710 EQ PUSH2 0x18C5 JUMPI DUP1 PUSH4 0xB6558498 EQ PUSH2 0x18A7 JUMPI DUP1 PUSH4 0xBBECE2BB EQ PUSH2 0x17E6 JUMPI DUP1 PUSH4 0xC0A5999A EQ PUSH2 0x16F0 JUMPI DUP1 PUSH4 0xC85E766D EQ PUSH2 0x1653 JUMPI DUP1 PUSH4 0xD0DA2306 EQ PUSH2 0x1534 JUMPI DUP1 PUSH4 0xD174EA41 EQ PUSH2 0x14A5 JUMPI DUP1 PUSH4 0xDABF826A EQ PUSH2 0x1487 JUMPI DUP1 PUSH4 0xDD1BF902 EQ PUSH2 0x12D3 JUMPI DUP1 PUSH4 0xE40B850E EQ PUSH2 0x12B5 JUMPI DUP1 PUSH4 0xE92F0A68 EQ PUSH2 0x1215 JUMPI DUP1 PUSH4 0xEA51CD6C EQ PUSH2 0x110B JUMPI DUP1 PUSH4 0xEBD557D9 EQ PUSH2 0xB6B JUMPI DUP1 PUSH4 0xED74E848 EQ PUSH2 0x919 JUMPI DUP1 PUSH4 0xEEBC3FB2 EQ PUSH2 0x8FB JUMPI DUP1 PUSH4 0xF27E44CC EQ PUSH2 0x888 JUMPI DUP1 PUSH4 0xF28136A9 EQ PUSH2 0x801 JUMPI DUP1 PUSH4 0xF851A440 EQ PUSH2 0x7D8 JUMPI DUP1 PUSH4 0xFB5333B7 EQ PUSH2 0x6FA JUMPI DUP1 PUSH4 0xFD9510D5 EQ PUSH2 0x4C5 JUMPI DUP1 PUSH4 0xFE60EFA1 EQ PUSH2 0x42A JUMPI PUSH4 0xFF09A64E EQ PUSH2 0x2DC JUMPI PUSH1 0x0 DUP1 REVERT JUMPDEST CALLVALUE PUSH2 0x425 JUMPI PUSH1 0x20 CALLDATASIZE PUSH1 0x3 NOT ADD SLT PUSH2 0x425 JUMPI PUSH2 0x2F5 PUSH2 0x40A2 JUMP JUMPDEST PUSH1 0x60 PUSH1 0x40 DUP1 MLOAD PUSH2 0x304 DUP2 PUSH2 0x4190 JUMP JUMPDEST DUP3 DUP2 MSTORE DUP3 PUSH1 0x20 DUP3 ADD MSTORE ADD MSTORE PUSH2 0x320 PUSH2 0x31B DUP3 PUSH2 0x508E JUMP JUMPDEST PUSH2 0x50B1 JUMP JUMPDEST PUSH1 0x1 DUP1 PUSH1 0xA0 SHL SUB AND PUSH1 0x0 MSTORE PUSH1 0x0 PUSH1 0x20 MSTORE PUSH1 0x40 PUSH1 0x0 KECCAK256 PUSH1 0x40 MLOAD PUSH2 0x341 DUP2 PUSH2 0x4190 JUMP JUMPDEST PUSH2 0x34A DUP3 PUSH2 0x41CC JUMP JUMPDEST DUP2 MSTORE PUSH1 0x1 PUSH2 0x3A7 PUSH2 0x36F PUSH1 0x2 PUSH2 0x361 DUP5 DUP8 ADD PUSH2 0x41CC JUMP JUMPDEST SWAP6 PUSH1 0x20 DUP7 ADD SWAP7 DUP8 MSTORE ADD PUSH2 0x50F6 JUMP JUMPDEST SWAP4 PUSH1 0x40 DUP5 ADD SWAP5 DUP6 MSTORE PUSH2 0x394 PUSH1 0x40 MLOAD SWAP5 PUSH1 0x20 DUP7 MSTORE MLOAD PUSH1 0x60 PUSH1 0x20 DUP8 ADD MSTORE PUSH1 0x80 DUP7 ADD SWAP1 PUSH2 0x4272 JUMP JUMPDEST SWAP1 MLOAD DUP5 DUP3 SUB PUSH1 0x1F NOT ADD PUSH1 0x40 DUP7 ADD MSTORE PUSH2 0x4272 JUMP JUMPDEST SWAP3 MLOAD SWAP3 PUSH1 0x1F NOT DUP4 DUP3 SUB ADD PUSH1 0x60 DUP5 ADD MSTORE DUP4 MLOAD DUP1 DUP3 MSTORE PUSH1 0x20 DUP3 ADD SWAP2 PUSH1 0x20 DUP1 DUP4 PUSH1 0x5 SHL DUP4 ADD ADD SWAP7 ADD SWAP3 PUSH1 0x0 SWAP2 JUMPDEST DUP4 DUP4 LT PUSH2 0x3DE JUMPI DUP7 DUP9 SUB DUP8 RETURN JUMPDEST SWAP1 SWAP2 SWAP3 SWAP4 SWAP5 PUSH1 0x20 DUP1 PUSH2 0x414 DUP4 SWAP11 PUSH1 0x1F NOT DUP7 DUP3 SUB ADD DUP8 MSTORE PUSH1 0x40 DUP4 DUP12 MLOAD PUSH1 0x1 DUP1 PUSH1 0xA0 SHL SUB DUP2 MLOAD AND DUP5 MSTORE ADD MLOAD SWAP2 DUP2 DUP6 DUP3 ADD MSTORE ADD SWAP1 PUSH2 0x4272 JUMP JUMPDEST SWAP10 SWAP8 ADD SWAP6 SWAP5 SWAP2 SWAP1 SWAP2 ADD SWAP3 ADD SWAP1 PUSH2 0x3D1 JUMP JUMPDEST PUSH1 0x0 DUP1 REVERT JUMPDEST CALLVALUE PUSH2 0x425 JUMPI PUSH1 0x20 CALLDATASIZE PUSH1 0x3 NOT ADD SLT PUSH2 0x425 JUMPI PUSH2 0x443 PUSH2 0x4F5A JUMP JUMPDEST POP PUSH1 0x4 CALLDATALOAD PUSH1 0x0 MSTORE PUSH1 0x5 PUSH1 0x20 MSTORE PUSH2 0x4C1 PUSH1 0x40 PUSH1 0x0 KECCAK256 PUSH1 0xFF PUSH1 0x5 PUSH1 0x40 MLOAD SWAP3 PUSH2 0x468 DUP5 PUSH2 0x4108 JUMP JUMPDEST DUP1 SLOAD DUP5 MSTORE PUSH2 0x478 PUSH1 0x1 DUP3 ADD PUSH2 0x41CC JUMP JUMPDEST PUSH1 0x20 DUP6 ADD MSTORE PUSH1 0x1 DUP1 PUSH1 0xA0 SHL SUB PUSH1 0x2 DUP3 ADD SLOAD AND PUSH1 0x40 DUP6 ADD MSTORE PUSH1 0x3 DUP2 ADD SLOAD PUSH1 0x60 DUP6 ADD MSTORE PUSH1 0x4 DUP2 ADD SLOAD PUSH1 0x80 DUP6 ADD MSTORE ADD SLOAD AND ISZERO ISZERO PUSH1 0xA0 DUP3 ADD MSTORE PUSH1 0x40 MLOAD SWAP2 DUP3 SWAP2 PUSH1 0x20 DUP4 MSTORE PUSH1 0x20 DUP4 ADD SWAP1 PUSH2 0x4561 JUMP JUMPDEST SUB SWAP1 RETURN JUMPDEST CALLVALUE PUSH2 0x425 JUMPI PUSH1 0x20 DUP1 PUSH1 0x3 NOT CALLDATASIZE ADD SLT PUSH2 0x425 JUMPI PUSH1 0x4 CALLDATALOAD SWAP1 CALLER PUSH1 0x0 MSTORE PUSH1 0x9 DUP2 MSTORE PUSH2 0x4F4 PUSH1 0xFF PUSH1 0x40 PUSH1 0x0 KECCAK256 SLOAD AND PUSH2 0x4AF9 JUMP JUMPDEST PUSH2 0x502 PUSH1 0xF SLOAD DUP4 GT ISZERO PUSH2 0x4BFD JUMP JUMPDEST DUP2 PUSH1 0x0 MSTORE PUSH1 0x8 DUP2 MSTORE PUSH1 0x2 PUSH1 0x40 PUSH1 0x0 KECCAK256 ADD SLOAD PUSH2 0x51C CALLER PUSH2 0x4FDC JUMP JUMPDEST SUB PUSH2 0x698 JUMPI DUP2 PUSH2 0x696 SWAP3 PUSH1 0x0 MSTORE PUSH1 0x8 DUP3 MSTORE PUSH1 0x9 PUSH1 0x40 PUSH1 0x0 KECCAK256 ADD PUSH1 0xFF NOT DUP2 SLOAD AND SWAP1 SSTORE PUSH2 0x546 CALLER PUSH2 0x4FDC JUMP JUMPDEST PUSH1 0x0 MSTORE PUSH1 0x5 DUP3 MSTORE PUSH1 0x4 PUSH1 0x40 PUSH1 0x0 KECCAK256 ADD PUSH2 0x55F DUP2 SLOAD PUSH2 0x4788 JUMP JUMPDEST SWAP1 SSTORE PUSH2 0x5C0 PUSH1 0x40 MLOAD PUSH2 0x570 DUP2 PUSH2 0x4190 JUMP JUMPDEST PUSH1 0x2F DUP2 MSTORE PUSH32 0x596F752068617665207375636365737366756C6C7920636F6D706C6574656420 DUP5 DUP3 ADD MSTORE PUSH15 0x1D1A1948185C1C1BDA5B9D1B595B9D PUSH1 0x8A SHL PUSH1 0x40 DUP3 ADD MSTORE PUSH2 0x5B9 PUSH2 0x4AD7 JUMP JUMPDEST SWAP1 CALLER PUSH2 0x48D6 JUMP JUMPDEST PUSH1 0x0 MSTORE PUSH1 0x8 DUP2 MSTORE PUSH1 0x1 PUSH1 0x40 PUSH1 0x0 KECCAK256 ADD SLOAD PUSH1 0x0 MSTORE PUSH1 0x6 DUP2 MSTORE PUSH1 0x1 DUP1 PUSH1 0xA0 SHL SUB PUSH2 0x642 DUP2 PUSH1 0x3 PUSH1 0x40 PUSH1 0x0 KECCAK256 ADD SLOAD AND PUSH1 0x40 MLOAD PUSH2 0x5F8 DUP2 PUSH2 0x4190 JUMP JUMPDEST PUSH1 0x2A DUP2 MSTORE PUSH32 0x596F7572204170706F696E746D656E74206973207375636365737366756C6C79 DUP6 DUP3 ADD MSTORE PUSH10 0x818DBDB5C1B195D1959 PUSH1 0xB2 SHL PUSH1 0x40 DUP3 ADD MSTORE PUSH2 0x63C PUSH2 0x4AD7 JUMP JUMPDEST SWAP2 PUSH2 0x48D6 JUMP JUMPDEST PUSH1 0x10 SLOAD AND SWAP1 PUSH32 0x446F63746F7220636F6D706C65746564206170706F696E746D656E7420737563 PUSH1 0x40 MLOAD SWAP2 PUSH2 0x675 DUP4 PUSH2 0x4190 JUMP JUMPDEST PUSH1 0x29 DUP4 MSTORE DUP3 ADD MSTORE PUSH9 0x6365737366756C6C79 PUSH1 0xB8 SHL PUSH1 0x40 DUP3 ADD MSTORE PUSH2 0x63C PUSH2 0x4AD7 JUMP JUMPDEST STOP JUMPDEST PUSH1 0x84 SWAP1 PUSH1 0x40 MLOAD SWAP1 PUSH3 0x461BCD PUSH1 0xE5 SHL DUP3 MSTORE PUSH1 0x4 DUP3 ADD MSTORE PUSH1 0x35 PUSH1 0x24 DUP3 ADD MSTORE PUSH32 0x4F6E6C79207468652061737369676E656420646F63746F722063616E20636F6D PUSH1 0x44 DUP3 ADD MSTORE PUSH21 0x1C1B195D19481D1A1948185C1C1BDA5B9D1B595B9D PUSH1 0x5A SHL PUSH1 0x64 DUP3 ADD MSTORE REVERT JUMPDEST CALLVALUE PUSH2 0x425 JUMPI PUSH32 0x573CCA7A8CD583DA809CDB83B4EA8DEC06C87DA579A25478CC69566672E2B589 PUSH2 0x729 CALLDATASIZE PUSH2 0x432C JUMP JUMPDEST SWAP1 PUSH2 0x73F PUSH1 0x1 DUP1 PUSH1 0xA0 SHL SUB PUSH1 0x10 SLOAD AND CALLER EQ PUSH2 0x4731 JUMP JUMPDEST PUSH2 0x74D PUSH1 0xB SLOAD DUP3 GT ISZERO PUSH2 0x4A01 JUMP JUMPDEST DUP1 PUSH1 0x0 MSTORE PUSH1 0x4 PUSH1 0x20 MSTORE PUSH2 0x767 DUP3 PUSH1 0x5 PUSH1 0x40 PUSH1 0x0 KECCAK256 ADD PUSH2 0x47AE JUMP JUMPDEST PUSH2 0x7B7 PUSH1 0x40 MLOAD PUSH2 0x776 DUP2 PUSH2 0x4190 JUMP JUMPDEST PUSH1 0x26 DUP2 MSTORE PUSH32 0x4D65646963696E65206C6F636174696F6E207570646174656420737563636573 PUSH1 0x20 DUP3 ADD MSTORE PUSH6 0x7366756C6C79 PUSH1 0xD0 SHL PUSH1 0x40 DUP3 ADD MSTORE PUSH2 0x5B9 PUSH2 0x48B2 JUMP JUMPDEST PUSH2 0x7D3 PUSH1 0x40 MLOAD SWAP3 DUP4 SWAP3 DUP4 MSTORE PUSH1 0x40 PUSH1 0x20 DUP5 ADD MSTORE PUSH1 0x40 DUP4 ADD SWAP1 PUSH2 0x4272 JUMP JUMPDEST SUB SWAP1 LOG1 STOP JUMPDEST CALLVALUE PUSH2 0x425 JUMPI PUSH1 0x0 CALLDATASIZE PUSH1 0x3 NOT ADD SLT PUSH2 0x425 JUMPI PUSH1 0x10 SLOAD PUSH1 0x40 MLOAD PUSH1 0x1 PUSH1 0x1 PUSH1 0xA0 SHL SUB SWAP1 SWAP2 AND DUP2 MSTORE PUSH1 0x20 SWAP1 RETURN JUMPDEST CALLVALUE PUSH2 0x425 JUMPI PUSH1 0x20 CALLDATASIZE PUSH1 0x3 NOT ADD SLT PUSH2 0x425 JUMPI PUSH1 0x10 SLOAD PUSH2 0x696 SWAP1 PUSH1 0x1 PUSH1 0x1 PUSH1 0xA0 SHL SUB AND PUSH2 0x82D CALLER DUP3 EQ PUSH2 0x4731 JUMP JUMPDEST PUSH1 0x4 CALLDATALOAD PUSH1 0x11 SSTORE PUSH1 0x40 MLOAD PUSH2 0x83F DUP2 PUSH2 0x4190 JUMP JUMPDEST PUSH1 0x2E DUP2 MSTORE PUSH32 0x596F752068617665207375636365737366756C6C792075706461746564205265 PUSH1 0x20 DUP3 ADD MSTORE PUSH14 0x67697374726174696F6E20666565 PUSH1 0x90 SHL PUSH1 0x40 DUP3 ADD MSTORE PUSH2 0x63C PUSH2 0x4CBE JUMP JUMPDEST CALLVALUE PUSH2 0x425 JUMPI PUSH1 0x20 CALLDATASIZE PUSH1 0x3 NOT ADD SLT PUSH2 0x425 JUMPI PUSH2 0x8A1 PUSH2 0x4CDF JUMP JUMPDEST POP PUSH1 0x4 CALLDATALOAD PUSH1 0x0 MSTORE PUSH1 0x7 PUSH1 0x20 MSTORE PUSH1 0xA0 PUSH1 0x40 PUSH1 0x0 KECCAK256 PUSH1 0x4 PUSH1 0x40 MLOAD SWAP2 PUSH2 0x8C3 DUP4 PUSH2 0x4123 JUMP JUMPDEST DUP1 SLOAD DUP4 MSTORE PUSH1 0x1 DUP2 ADD SLOAD PUSH1 0x20 DUP5 ADD MSTORE PUSH1 0x2 DUP2 ADD SLOAD PUSH1 0x40 DUP5 ADD MSTORE PUSH1 0x3 DUP2 ADD SLOAD PUSH1 0x60 DUP5 ADD MSTORE ADD SLOAD PUSH1 0x80 DUP3 ADD MSTORE PUSH2 0x8F9 PUSH1 0x40 MLOAD DUP1 SWAP3 PUSH2 0x4614 JUMP JUMPDEST RETURN JUMPDEST CALLVALUE PUSH2 0x425 JUMPI PUSH1 0x0 CALLDATASIZE PUSH1 0x3 NOT ADD SLT PUSH2 0x425 JUMPI PUSH1 0x20 PUSH1 0xF SLOAD PUSH1 0x40 MLOAD SWAP1 DUP2 MSTORE RETURN JUMPDEST CALLVALUE PUSH2 0x425 JUMPI PUSH1 0x60 CALLDATASIZE PUSH1 0x3 NOT ADD SLT PUSH2 0x425 JUMPI PUSH2 0x932 PUSH2 0x40A2 JUMP JUMPDEST PUSH2 0x93A PUSH2 0x40B8 JUMP JUMPDEST SWAP1 PUSH1 0x44 CALLDATALOAD PUSH1 0x1 PUSH1 0x1 PUSH1 0x40 SHL SUB DUP2 GT PUSH2 0x425 JUMPI PUSH2 0x95A SWAP1 CALLDATASIZE SWAP1 PUSH1 0x4 ADD PUSH2 0x4704 JUMP JUMPDEST SWAP3 SWAP1 SWAP2 PUSH2 0x96E PUSH2 0x969 DUP4 PUSH2 0x508E JUMP JUMPDEST PUSH2 0x5171 JUMP JUMPDEST PUSH2 0x97A PUSH2 0x31B DUP3 PUSH2 0x508E JUMP JUMPDEST PUSH2 0x984 DUP2 DUP4 PUSH2 0x51D3 JUMP JUMPDEST ISZERO PUSH2 0xB17 JUMPI PUSH2 0x993 DUP2 DUP4 PUSH2 0x532E JUMP JUMPDEST SWAP1 PUSH1 0x40 MLOAD SWAP5 PUSH2 0x9A1 DUP7 PUSH2 0x4190 JUMP JUMPDEST PUSH1 0x1 DUP1 PUSH1 0xA0 SHL SUB SWAP4 DUP5 DUP2 AND DUP8 MSTORE PUSH2 0x9C2 PUSH1 0x20 SWAP7 DUP8 DUP10 ADD SWAP4 TIMESTAMP DUP6 MSTORE CALLDATASIZE SWAP2 PUSH2 0x42B2 JUMP JUMPDEST SWAP4 PUSH1 0x40 DUP9 ADD SWAP5 DUP6 MSTORE PUSH1 0x0 MSTORE PUSH1 0x1 DUP7 MSTORE PUSH1 0x40 PUSH1 0x0 KECCAK256 DUP1 SLOAD SWAP8 PUSH1 0x1 PUSH1 0x40 SHL DUP10 LT ISZERO PUSH2 0xB01 JUMPI PUSH1 0x1 DUP10 ADD DUP1 DUP4 SSTORE DUP10 LT ISZERO PUSH2 0xAEB JUMPI PUSH1 0x2 PUSH2 0xAAD SWAP7 PUSH2 0xA79 SWAP6 DUP10 PUSH2 0x696 SWAP13 PUSH2 0xA31 SWAP7 PUSH1 0x0 MSTORE PUSH1 0x3 DUP14 PUSH1 0x0 KECCAK256 SWAP2 MUL ADD SWAP5 MLOAD AND PUSH1 0x1 DUP1 PUSH1 0xA0 SHL SUB NOT DUP6 SLOAD AND OR DUP5 SSTORE MLOAD PUSH1 0x1 DUP5 ADD SSTORE MLOAD SWAP2 ADD PUSH2 0x47AE JUMP JUMPDEST PUSH1 0x40 MLOAD PUSH2 0xA3D DUP2 PUSH2 0x4190 JUMP JUMPDEST PUSH1 0x22 DUP2 MSTORE PUSH32 0x596F752068617665207375636365737366756C6C792073656E64206D65737361 DUP8 DUP3 ADD MSTORE PUSH2 0x6765 PUSH1 0xF0 SHL PUSH1 0x40 DUP3 ADD MSTORE PUSH2 0x63C PUSH2 0x530B JUMP JUMPDEST PUSH1 0x40 MLOAD PUSH2 0xA85 DUP2 PUSH2 0x415A JUMP JUMPDEST PUSH1 0x14 DUP2 MSTORE PUSH20 0x596F752068617665206E6577206D657373616765 PUSH1 0x60 SHL DUP6 DUP3 ADD MSTORE PUSH2 0x63C PUSH2 0x530B JUMP JUMPDEST PUSH1 0x10 SLOAD AND SWAP1 PUSH25 0x6D6573736167652073656E64207375636365737366756C6C79 PUSH1 0x38 SHL PUSH1 0x40 MLOAD SWAP2 PUSH2 0xADC DUP4 PUSH2 0x415A JUMP JUMPDEST PUSH1 0x19 DUP4 MSTORE DUP3 ADD MSTORE PUSH2 0x63C PUSH2 0x530B JUMP JUMPDEST PUSH4 0x4E487B71 PUSH1 0xE0 SHL PUSH1 0x0 MSTORE PUSH1 0x32 PUSH1 0x4 MSTORE PUSH1 0x24 PUSH1 0x0 REVERT JUMPDEST PUSH4 0x4E487B71 PUSH1 0xE0 SHL PUSH1 0x0 MSTORE PUSH1 0x41 PUSH1 0x4 MSTORE PUSH1 0x24 PUSH1 0x0 REVERT JUMPDEST PUSH1 0x40 MLOAD PUSH3 0x461BCD PUSH1 0xE5 SHL DUP2 MSTORE PUSH1 0x20 PUSH1 0x4 DUP3 ADD MSTORE PUSH1 0x26 PUSH1 0x24 DUP3 ADD MSTORE PUSH32 0x596F7520617265206E6F7420667269656E642077697468207468652067697665 PUSH1 0x44 DUP3 ADD MSTORE PUSH6 0x37103AB9B2B9 PUSH1 0xD1 SHL PUSH1 0x64 DUP3 ADD MSTORE PUSH1 0x84 SWAP1 REVERT JUMPDEST PUSH2 0x120 CALLDATASIZE PUSH1 0x3 NOT ADD SLT PUSH2 0x425 JUMPI PUSH1 0x1 PUSH1 0x1 PUSH1 0x40 SHL SUB PUSH1 0x44 CALLDATALOAD DUP2 DUP2 GT PUSH2 0x425 JUMPI PUSH2 0xB98 SWAP1 CALLDATASIZE SWAP1 PUSH1 0x4 ADD PUSH2 0x42F8 JUMP JUMPDEST SWAP1 PUSH1 0x64 CALLDATALOAD DUP2 DUP2 GT PUSH2 0x425 JUMPI PUSH2 0xBB1 SWAP1 CALLDATASIZE SWAP1 PUSH1 0x4 ADD PUSH2 0x42F8 JUMP JUMPDEST SWAP2 PUSH1 0x84 CALLDATALOAD DUP3 DUP2 GT PUSH2 0x425 JUMPI PUSH2 0xBCA SWAP1 CALLDATASIZE SWAP1 PUSH1 0x4 ADD PUSH2 0x42F8 JUMP JUMPDEST SWAP1 PUSH1 0xA4 CALLDATALOAD DUP4 DUP2 GT PUSH2 0x425 JUMPI PUSH2 0xBE3 SWAP1 CALLDATASIZE SWAP1 PUSH1 0x4 ADD PUSH2 0x42F8 JUMP JUMPDEST SWAP4 PUSH1 0xC4 CALLDATALOAD DUP5 DUP2 GT PUSH2 0x425 JUMPI PUSH2 0xBFC SWAP1 CALLDATASIZE SWAP1 PUSH1 0x4 ADD PUSH2 0x42F8 JUMP JUMPDEST SWAP4 PUSH1 0xE4 CALLDATALOAD PUSH1 0x1 PUSH1 0x1 PUSH1 0xA0 SHL SUB DUP2 AND SWAP1 SUB PUSH2 0x425 JUMPI PUSH2 0x104 CALLDATALOAD SWAP1 DUP2 GT PUSH2 0x425 JUMPI PUSH2 0xC29 SWAP1 CALLDATASIZE SWAP1 PUSH1 0x4 ADD PUSH2 0x4704 JUMP JUMPDEST SWAP5 SWAP1 SWAP6 PUSH2 0xC3C PUSH1 0xD SLOAD PUSH1 0x4 CALLDATALOAD GT ISZERO PUSH2 0x4B5D JUMP JUMPDEST PUSH2 0xC4C PUSH1 0xC SLOAD PUSH1 0x24 CALLDATALOAD GT ISZERO PUSH2 0x4A93 JUMP JUMPDEST PUSH1 0x24 CALLDATALOAD PUSH1 0x0 MSTORE PUSH1 0x5 PUSH1 0x20 MSTORE PUSH2 0xC6B PUSH1 0xFF PUSH1 0x5 PUSH1 0x40 PUSH1 0x0 KECCAK256 ADD SLOAD AND PUSH2 0x4C49 JUMP JUMPDEST PUSH1 0x4 CALLDATALOAD PUSH1 0x0 SWAP1 DUP2 MSTORE PUSH1 0x6 PUSH1 0x20 MSTORE PUSH1 0x40 SWAP1 KECCAK256 PUSH1 0x3 ADD SLOAD PUSH1 0x1 PUSH1 0x1 PUSH1 0xA0 SHL SUB AND CALLER SUB PUSH2 0x10B2 JUMPI PUSH1 0x13 SLOAD CALLVALUE SUB PUSH2 0x1071 JUMPI PUSH2 0xCA7 PUSH1 0xA CALLVALUE SWAP1 DUP2 DIV SWAP1 PUSH2 0x4C8E JUMP JUMPDEST SWAP5 PUSH1 0xF SLOAD PUSH2 0xCB4 SWAP1 PUSH2 0x4788 JUMP JUMPDEST SWAP4 DUP5 PUSH1 0xF SSTORE PUSH1 0x40 MLOAD SWAP6 PUSH2 0xCC6 DUP8 PUSH2 0x413E JUMP JUMPDEST DUP6 DUP8 MSTORE PUSH1 0x20 DUP8 ADD PUSH1 0x4 CALLDATALOAD DUP2 MSTORE PUSH1 0x40 DUP9 ADD PUSH1 0x24 CALLDATALOAD DUP2 MSTORE PUSH1 0x60 DUP10 ADD SWAP2 TIMESTAMP DUP4 MSTORE PUSH1 0x80 DUP11 ADD SWAP4 DUP5 MSTORE PUSH1 0xA0 DUP11 ADD SWAP5 DUP6 MSTORE PUSH1 0xC0 DUP11 ADD SWAP6 DUP7 MSTORE PUSH1 0xE0 DUP11 ADD SWAP7 DUP8 MSTORE PUSH2 0x100 DUP11 ADD SWAP8 DUP9 MSTORE PUSH2 0x120 DUP11 ADD SWAP9 PUSH1 0x1 DUP11 MSTORE PUSH1 0x0 MSTORE PUSH1 0x8 PUSH1 0x20 MSTORE PUSH1 0x40 PUSH1 0x0 KECCAK256 SWAP10 MLOAD DUP11 SSTORE MLOAD PUSH1 0x1 DUP11 ADD SSTORE MLOAD PUSH1 0x2 DUP10 ADD SSTORE MLOAD PUSH1 0x3 DUP9 ADD SSTORE MLOAD PUSH1 0x4 DUP8 ADD SWAP1 PUSH2 0xD43 SWAP2 PUSH2 0x47AE JUMP JUMPDEST MLOAD PUSH2 0xD51 SWAP1 PUSH1 0x5 DUP8 ADD PUSH2 0x47AE JUMP JUMPDEST MLOAD PUSH2 0xD5F SWAP1 PUSH1 0x6 DUP7 ADD PUSH2 0x47AE JUMP JUMPDEST MLOAD PUSH2 0xD6D SWAP1 PUSH1 0x7 DUP6 ADD PUSH2 0x47AE JUMP JUMPDEST MLOAD PUSH2 0xD7B SWAP1 PUSH1 0x8 DUP5 ADD PUSH2 0x47AE JUMP JUMPDEST MLOAD ISZERO ISZERO SWAP1 PUSH1 0x9 ADD SWAP1 PUSH2 0xD98 SWAP2 SWAP1 PUSH1 0xFF DUP1 NOT DUP4 SLOAD AND SWAP2 ISZERO ISZERO AND OR SWAP1 SSTORE JUMP JUMPDEST PUSH1 0x24 CALLDATALOAD PUSH1 0x0 MSTORE PUSH1 0x5 PUSH1 0x20 MSTORE PUSH1 0x40 PUSH1 0x0 KECCAK256 PUSH1 0x3 ADD DUP1 SLOAD PUSH2 0xDB6 SWAP1 PUSH2 0x4788 JUMP JUMPDEST SWAP1 SSTORE PUSH1 0x10 SLOAD PUSH1 0x0 SWAP1 DUP2 SWAP1 DUP2 SWAP1 DUP2 SWAP1 DUP2 SWAP1 PUSH1 0x1 PUSH1 0x1 PUSH1 0xA0 SHL SUB AND PUSH1 0xA CALLVALUE DIV ISZERO PUSH2 0x1067 JUMPI JUMPDEST PUSH1 0xA CALLVALUE DIV SWAP2 CALL ISZERO PUSH2 0x1052 JUMPI PUSH1 0x0 DUP1 DUP1 DUP1 SWAP4 PUSH1 0x24 CALLDATALOAD DUP3 MSTORE PUSH1 0x5 PUSH1 0x20 MSTORE PUSH1 0x1 DUP1 PUSH1 0xA0 SHL SUB PUSH1 0x2 PUSH1 0x40 DUP5 KECCAK256 ADD SLOAD AND DUP3 DUP3 ISZERO PUSH2 0x105E JUMPI JUMPDEST CALL ISZERO PUSH2 0x1052 JUMPI PUSH2 0xE1E PUSH2 0x969 CALLER PUSH2 0x508E JUMP JUMPDEST PUSH2 0xE29 PUSH1 0xE4 CALLDATALOAD PUSH2 0x508E JUMP JUMPDEST ISZERO PUSH2 0x1013 JUMPI CALLER PUSH1 0xE4 CALLDATALOAD PUSH1 0x1 PUSH1 0x1 PUSH1 0xA0 SHL SUB AND EQ PUSH2 0xFBF JUMPI PUSH2 0xE4C PUSH1 0xE4 CALLDATALOAD CALLER PUSH2 0x51D3 JUMP JUMPDEST ISZERO PUSH2 0xF7E JUMPI JUMPDEST PUSH2 0xE9C PUSH1 0x40 MLOAD PUSH2 0xE61 DUP2 PUSH2 0x415A JUMP JUMPDEST PUSH1 0x1A DUP2 MSTORE PUSH32 0x596F7520686176652061206E6577206170706F696E746D656E74000000000000 PUSH1 0x20 DUP3 ADD MSTORE PUSH2 0xE93 PUSH2 0x4C9B JUMP JUMPDEST SWAP1 PUSH1 0xE4 CALLDATALOAD PUSH2 0x48D6 JUMP JUMPDEST PUSH2 0xEF1 PUSH1 0x40 MLOAD PUSH2 0xEAB DUP2 PUSH2 0x4190 JUMP JUMPDEST PUSH1 0x2B DUP2 MSTORE PUSH32 0x596F752068617665207375636365737366756C6C7920626F6F6B656420616E20 PUSH1 0x20 DUP3 ADD MSTORE PUSH11 0x185C1C1BDA5B9D1B595B9D PUSH1 0xAA SHL PUSH1 0x40 DUP3 ADD MSTORE PUSH2 0x5B9 PUSH2 0x4C9B JUMP JUMPDEST PUSH1 0x10 SLOAD PUSH1 0x40 MLOAD PUSH2 0xF39 SWAP2 PUSH1 0x1 PUSH1 0x1 PUSH1 0xA0 SHL SUB AND SWAP1 PUSH2 0xF0E DUP2 PUSH2 0x415A JUMP JUMPDEST PUSH1 0x16 DUP2 MSTORE PUSH22 0x13995DC8185C1C1BDA5B9D1B595B9D08189BDBDAD959 PUSH1 0x52 SHL PUSH1 0x20 DUP3 ADD MSTORE PUSH2 0x63C PUSH2 0x4C9B JUMP JUMPDEST PUSH32 0x3AC6F9DF28EF09D1B346BE1F7D771F61872F07DE8DA7B88F490FE4F61B2B3E2C PUSH1 0x80 PUSH1 0xF SLOAD PUSH1 0x40 MLOAD SWAP1 DUP2 MSTORE PUSH1 0x4 CALLDATALOAD PUSH1 0x20 DUP3 ADD MSTORE PUSH1 0x24 CALLDATALOAD PUSH1 0x40 DUP3 ADD MSTORE TIMESTAMP PUSH1 0x60 DUP3 ADD MSTORE LOG1 STOP JUMPDEST PUSH2 0xF96 SWAP2 PUSH2 0xF8D SWAP2 CALLDATASIZE SWAP2 PUSH2 0x42B2 JUMP JUMPDEST PUSH1 0xE4 CALLDATALOAD CALLER PUSH2 0x5267 JUMP JUMPDEST CALLER PUSH1 0x0 MSTORE PUSH1 0x0 PUSH1 0x20 MSTORE PUSH2 0xFB8 PUSH2 0xFAF PUSH1 0x40 PUSH1 0x0 KECCAK256 PUSH2 0x41CC JUMP JUMPDEST CALLER PUSH1 0xE4 CALLDATALOAD PUSH2 0x5267 JUMP JUMPDEST DUP1 DUP1 PUSH2 0xE52 JUMP JUMPDEST PUSH1 0x40 MLOAD PUSH3 0x461BCD PUSH1 0xE5 SHL DUP2 MSTORE PUSH1 0x20 PUSH1 0x4 DUP3 ADD MSTORE PUSH1 0x26 PUSH1 0x24 DUP3 ADD MSTORE PUSH32 0x55736572732063616E6E6F7420616464207468656D73656C7665732061732066 PUSH1 0x44 DUP3 ADD MSTORE PUSH6 0x7269656E6473 PUSH1 0xD0 SHL PUSH1 0x64 DUP3 ADD MSTORE PUSH1 0x84 SWAP1 REVERT JUMPDEST PUSH1 0x40 MLOAD PUSH3 0x461BCD PUSH1 0xE5 SHL DUP2 MSTORE PUSH1 0x20 PUSH1 0x4 DUP3 ADD MSTORE PUSH1 0x17 PUSH1 0x24 DUP3 ADD MSTORE PUSH23 0x55736572206973206E6F74207265676973746572656421 PUSH1 0x48 SHL PUSH1 0x44 DUP3 ADD MSTORE PUSH1 0x64 SWAP1 REVERT JUMPDEST PUSH1 0x40 MLOAD RETURNDATASIZE PUSH1 0x0 DUP3 RETURNDATACOPY RETURNDATASIZE SWAP1 REVERT JUMPDEST POP PUSH2 0x8FC PUSH2 0xE0C JUMP JUMPDEST PUSH2 0x8FC SWAP2 POP PUSH2 0xDD9 JUMP JUMPDEST PUSH1 0x40 MLOAD PUSH3 0x461BCD PUSH1 0xE5 SHL DUP2 MSTORE PUSH1 0x20 PUSH1 0x4 DUP3 ADD MSTORE PUSH1 0x19 PUSH1 0x24 DUP3 ADD MSTORE PUSH25 0x496E636F7272656374206170706F696E746D656E7420666565 PUSH1 0x38 SHL PUSH1 0x44 DUP3 ADD MSTORE PUSH1 0x64 SWAP1 REVERT JUMPDEST PUSH1 0x40 MLOAD PUSH3 0x461BCD PUSH1 0xE5 SHL DUP2 MSTORE PUSH1 0x20 PUSH1 0x4 DUP3 ADD MSTORE PUSH1 0x2B PUSH1 0x24 DUP3 ADD MSTORE PUSH32 0x4F6E6C79207468652070617469656E742063616E20626F6F6B20746865697220 PUSH1 0x44 DUP3 ADD MSTORE PUSH11 0x185C1C1BDA5B9D1B595B9D PUSH1 0xAA SHL PUSH1 0x64 DUP3 ADD MSTORE PUSH1 0x84 SWAP1 REVERT JUMPDEST CALLVALUE PUSH2 0x425 JUMPI PUSH1 0x0 CALLDATASIZE PUSH1 0x3 NOT ADD SLT PUSH2 0x425 JUMPI PUSH1 0xF SLOAD PUSH2 0x1128 DUP2 PUSH2 0x4F0A JUMP JUMPDEST SWAP1 PUSH1 0x1 DUP1 PUSH1 0x0 JUMPDEST DUP4 DUP4 GT ISZERO PUSH2 0x1145 JUMPI PUSH1 0x40 MLOAD DUP1 PUSH2 0x4C1 DUP8 DUP3 PUSH2 0x4414 JUMP JUMPDEST PUSH2 0x1209 PUSH2 0x120F SWAP2 DUP5 PUSH1 0x0 MSTORE PUSH1 0x8 PUSH1 0xFF PUSH1 0x9 PUSH1 0x20 SWAP3 DUP1 DUP5 MSTORE PUSH2 0x11DD PUSH1 0x40 PUSH1 0x0 KECCAK256 SWAP2 PUSH1 0x40 MLOAD SWAP6 PUSH2 0x1172 DUP8 PUSH2 0x413E JUMP JUMPDEST DUP4 SLOAD DUP8 MSTORE DUP11 DUP5 ADD SLOAD SWAP1 DUP8 ADD MSTORE PUSH1 0x2 DUP4 ADD SLOAD PUSH1 0x40 DUP8 ADD MSTORE PUSH1 0x3 DUP4 ADD SLOAD PUSH1 0x60 DUP8 ADD MSTORE PUSH2 0x119E PUSH1 0x4 DUP5 ADD PUSH2 0x41CC JUMP JUMPDEST PUSH1 0x80 DUP8 ADD MSTORE PUSH2 0x11AF PUSH1 0x5 DUP5 ADD PUSH2 0x41CC JUMP JUMPDEST PUSH1 0xA0 DUP8 ADD MSTORE PUSH2 0x11C0 PUSH1 0x6 DUP5 ADD PUSH2 0x41CC JUMP JUMPDEST PUSH1 0xC0 DUP8 ADD MSTORE PUSH2 0x11D1 PUSH1 0x7 DUP5 ADD PUSH2 0x41CC JUMP JUMPDEST PUSH1 0xE0 DUP8 ADD MSTORE DUP3 ADD PUSH2 0x41CC JUMP JUMPDEST PUSH2 0x100 DUP6 ADD MSTORE ADD SLOAD AND ISZERO ISZERO PUSH2 0x120 DUP3 ADD MSTORE PUSH2 0x11F8 DUP3 DUP10 PUSH2 0x4D5A JUMP JUMPDEST MSTORE PUSH2 0x1203 DUP2 DUP9 PUSH2 0x4D5A JUMP JUMPDEST POP PUSH2 0x4788 JUMP JUMPDEST SWAP3 PUSH2 0x4788 JUMP JUMPDEST SWAP2 PUSH2 0x112F JUMP JUMPDEST CALLVALUE PUSH2 0x425 JUMPI PUSH1 0x20 CALLDATASIZE PUSH1 0x3 NOT ADD SLT PUSH2 0x425 JUMPI PUSH2 0x122E PUSH2 0x5055 JUMP JUMPDEST POP PUSH1 0x4 CALLDATALOAD PUSH1 0x0 MSTORE PUSH1 0x4 PUSH1 0x20 MSTORE PUSH2 0x4C1 PUSH1 0x40 PUSH1 0x0 KECCAK256 PUSH1 0xFF PUSH1 0x6 PUSH1 0x40 MLOAD SWAP3 PUSH2 0x1253 DUP5 PUSH2 0x4175 JUMP JUMPDEST DUP1 SLOAD DUP5 MSTORE PUSH2 0x1263 PUSH1 0x1 DUP3 ADD PUSH2 0x41CC JUMP JUMPDEST PUSH1 0x20 DUP6 ADD MSTORE PUSH1 0x2 DUP2 ADD SLOAD PUSH1 0x40 DUP6 ADD MSTORE PUSH1 0x3 DUP2 ADD SLOAD PUSH1 0x60 DUP6 ADD MSTORE PUSH1 0x4 DUP2 ADD SLOAD PUSH1 0x80 DUP6 ADD MSTORE PUSH2 0x1292 PUSH1 0x5 DUP3 ADD PUSH2 0x41CC JUMP JUMPDEST PUSH1 0xA0 DUP6 ADD MSTORE ADD SLOAD AND ISZERO ISZERO PUSH1 0xC0 DUP3 ADD MSTORE PUSH1 0x40 MLOAD SWAP2 DUP3 SWAP2 PUSH1 0x20 DUP4 MSTORE PUSH1 0x20 DUP4 ADD SWAP1 PUSH2 0x4689 JUMP JUMPDEST CALLVALUE PUSH2 0x425 JUMPI PUSH1 0x0 CALLDATASIZE PUSH1 0x3 NOT ADD SLT PUSH2 0x425 JUMPI PUSH1 0x20 PUSH1 0x11 SLOAD PUSH1 0x40 MLOAD SWAP1 DUP2 MSTORE RETURN JUMPDEST CALLVALUE PUSH2 0x425 JUMPI PUSH1 0xA0 CALLDATASIZE PUSH1 0x3 NOT ADD SLT PUSH2 0x425 JUMPI PUSH1 0x1 PUSH1 0x1 PUSH1 0x40 SHL SUB PUSH1 0x4 CALLDATALOAD DUP2 DUP2 GT PUSH2 0x425 JUMPI PUSH2 0x1304 SWAP1 CALLDATASIZE SWAP1 PUSH1 0x4 ADD PUSH2 0x42F8 JUMP JUMPDEST PUSH1 0x84 CALLDATALOAD SWAP2 DUP3 GT PUSH2 0x425 JUMPI PUSH2 0x133D PUSH32 0x4BD6730197EEAA6A5861EE6770B4A7EA4945E177C1B8F8E196812DA34B52B620 SWAP3 CALLDATASIZE SWAP1 PUSH1 0x4 ADD PUSH2 0x42F8 JUMP JUMPDEST PUSH2 0x1352 PUSH1 0x1 DUP1 PUSH1 0xA0 SHL SUB PUSH1 0x10 SLOAD AND CALLER EQ PUSH2 0x4731 JUMP JUMPDEST PUSH2 0x13FD PUSH2 0x1360 PUSH1 0xB SLOAD PUSH2 0x4788 JUMP JUMPDEST DUP1 PUSH1 0xB SSTORE PUSH1 0x6 PUSH1 0x40 MLOAD SWAP2 PUSH2 0x1373 DUP4 PUSH2 0x4175 JUMP JUMPDEST DUP1 DUP4 MSTORE PUSH2 0x13E7 PUSH1 0x20 DUP5 ADD DUP8 DUP2 MSTORE PUSH1 0x40 DUP6 ADD PUSH1 0x24 CALLDATALOAD DUP2 MSTORE PUSH1 0x60 DUP7 ADD PUSH1 0x44 CALLDATALOAD DUP2 MSTORE PUSH1 0x80 DUP8 ADD SWAP2 PUSH1 0x64 CALLDATALOAD DUP4 MSTORE PUSH2 0x13CB PUSH1 0xA0 DUP10 ADD SWAP5 DUP12 DUP7 MSTORE PUSH1 0xC0 DUP11 ADD SWAP8 PUSH1 0x1 DUP10 MSTORE PUSH1 0x0 MSTORE PUSH1 0x4 PUSH1 0x20 MSTORE PUSH1 0x40 PUSH1 0x0 KECCAK256 SWAP10 MLOAD DUP11 SSTORE MLOAD PUSH1 0x1 DUP11 ADD PUSH2 0x47AE JUMP JUMPDEST MLOAD PUSH1 0x2 DUP9 ADD SSTORE MLOAD PUSH1 0x3 DUP8 ADD SSTORE MLOAD PUSH1 0x4 DUP7 ADD SSTORE MLOAD PUSH1 0x5 DUP6 ADD PUSH2 0x47AE JUMP JUMPDEST MLOAD ISZERO ISZERO SWAP2 ADD SWAP1 PUSH1 0xFF DUP1 NOT DUP4 SLOAD AND SWAP2 ISZERO ISZERO AND OR SWAP1 SSTORE JUMP JUMPDEST PUSH2 0x1456 PUSH1 0x40 MLOAD PUSH2 0x140C DUP2 PUSH2 0x4190 JUMP JUMPDEST PUSH1 0x2F DUP2 MSTORE PUSH32 0x4E6577204D65646963696E6520616464656420746F206D61726B6574706C6163 PUSH1 0x20 DUP3 ADD MSTORE PUSH15 0x65207375636365737366756C6C7921 PUSH1 0x88 SHL PUSH1 0x40 DUP3 ADD MSTORE PUSH2 0x5B9 PUSH2 0x48B2 JUMP JUMPDEST PUSH2 0x7D3 PUSH1 0xB SLOAD SWAP2 PUSH2 0x1479 PUSH1 0x40 MLOAD SWAP5 DUP6 SWAP5 DUP6 MSTORE PUSH1 0x60 PUSH1 0x20 DUP7 ADD MSTORE PUSH1 0x60 DUP6 ADD SWAP1 PUSH2 0x4272 JUMP JUMPDEST SWAP1 DUP4 DUP3 SUB PUSH1 0x40 DUP6 ADD MSTORE PUSH2 0x4272 JUMP JUMPDEST CALLVALUE PUSH2 0x425 JUMPI PUSH1 0x0 CALLDATASIZE PUSH1 0x3 NOT ADD SLT PUSH2 0x425 JUMPI PUSH1 0x20 PUSH1 0x13 SLOAD PUSH1 0x40 MLOAD SWAP1 DUP2 MSTORE RETURN JUMPDEST CALLVALUE PUSH2 0x425 JUMPI PUSH1 0x20 CALLDATASIZE PUSH1 0x3 NOT ADD SLT PUSH2 0x425 JUMPI PUSH1 0x10 SLOAD PUSH2 0x696 SWAP1 PUSH1 0x1 PUSH1 0x1 PUSH1 0xA0 SHL SUB AND PUSH2 0x14D1 CALLER DUP3 EQ PUSH2 0x4731 JUMP JUMPDEST PUSH1 0x4 CALLDATALOAD PUSH1 0x12 SSTORE PUSH1 0x40 MLOAD PUSH2 0x14E3 DUP2 PUSH2 0x4190 JUMP JUMPDEST PUSH1 0x36 DUP2 MSTORE PUSH32 0x596F752068617665207375636365737366756C6C792075706461746564205061 PUSH1 0x20 DUP3 ADD MSTORE PUSH22 0x7469656E7420526567697374726174696F6E20666565 PUSH1 0x50 SHL PUSH1 0x40 DUP3 ADD MSTORE PUSH2 0x63C PUSH2 0x4CBE JUMP JUMPDEST CALLVALUE PUSH2 0x425 JUMPI PUSH1 0x0 CALLDATASIZE PUSH1 0x3 NOT ADD SLT PUSH2 0x425 JUMPI PUSH1 0xC SLOAD PUSH1 0x1 SWAP1 PUSH1 0x0 DUP3 JUMPDEST DUP3 DUP2 GT ISZERO PUSH2 0x1617 JUMPI POP PUSH2 0x1561 SWAP1 PUSH2 0x4F8C JUMP JUMPDEST SWAP2 PUSH1 0x0 DUP2 JUMPDEST DUP4 DUP2 GT ISZERO PUSH2 0x157C JUMPI PUSH1 0x40 MLOAD DUP1 PUSH2 0x4C1 DUP8 DUP3 PUSH2 0x45B2 JUMP JUMPDEST DUP1 PUSH1 0x0 MSTORE PUSH1 0x5 PUSH1 0x20 SWAP1 DUP1 DUP3 MSTORE PUSH1 0xFF PUSH1 0x40 PUSH1 0x0 KECCAK256 SWAP2 DUP3 ADD SLOAD AND SWAP1 DUP2 PUSH2 0x15AC JUMPI JUMPDEST POP POP POP PUSH2 0x15A7 SWAP1 PUSH2 0x4788 JUMP JUMPDEST PUSH2 0x1566 JUMP JUMPDEST SWAP2 PUSH2 0x15A7 SWAP4 SWAP5 SWAP2 PUSH1 0x4 PUSH2 0x160E SWAP5 PUSH1 0x40 MLOAD SWAP4 PUSH2 0x15C6 DUP6 PUSH2 0x4108 JUMP JUMPDEST DUP2 SLOAD DUP6 MSTORE PUSH2 0x15D5 DUP11 DUP4 ADD PUSH2 0x41CC JUMP JUMPDEST SWAP1 DUP6 ADD MSTORE PUSH1 0x2 DUP2 ADD SLOAD PUSH1 0x1 PUSH1 0x1 PUSH1 0xA0 SHL SUB AND PUSH1 0x40 DUP6 ADD MSTORE PUSH1 0x3 DUP2 ADD SLOAD PUSH1 0x60 DUP6 ADD MSTORE ADD SLOAD PUSH1 0x80 DUP4 ADD MSTORE ISZERO ISZERO PUSH1 0xA0 DUP3 ADD MSTORE PUSH2 0x11F8 DUP3 DUP10 PUSH2 0x4D5A JUMP JUMPDEST SWAP2 SWAP1 DUP7 DUP1 PUSH2 0x159B JUMP JUMPDEST DUP1 PUSH1 0x0 MSTORE PUSH1 0xFF PUSH1 0x5 DUP1 PUSH1 0x20 MSTORE PUSH1 0x40 PUSH1 0x0 KECCAK256 ADD SLOAD AND PUSH2 0x163E JUMPI JUMPDEST PUSH2 0x1639 SWAP1 PUSH2 0x4788 JUMP JUMPDEST PUSH2 0x154F JUMP JUMPDEST SWAP1 PUSH2 0x164B PUSH2 0x1639 SWAP2 PUSH2 0x4788 JUMP JUMPDEST SWAP2 SWAP1 POP PUSH2 0x1630 JUMP JUMPDEST CALLVALUE PUSH2 0x425 JUMPI PUSH1 0x20 CALLDATASIZE PUSH1 0x3 NOT ADD SLT PUSH2 0x425 JUMPI PUSH1 0x4 CALLDATALOAD PUSH1 0x0 MSTORE PUSH1 0x4 PUSH1 0x20 MSTORE PUSH1 0x40 PUSH1 0x0 KECCAK256 DUP1 SLOAD PUSH2 0x1682 PUSH1 0x1 DUP4 ADD PUSH2 0x41CC JUMP JUMPDEST SWAP2 PUSH2 0x16E4 PUSH1 0x2 DUP3 ADD SLOAD PUSH1 0x3 DUP4 ADD SLOAD SWAP3 PUSH1 0x4 DUP2 ADD SLOAD PUSH1 0xFF PUSH1 0x6 PUSH2 0x16A6 PUSH1 0x5 DUP6 ADD PUSH2 0x41CC JUMP JUMPDEST SWAP4 ADD SLOAD AND SWAP5 PUSH2 0x16C7 PUSH1 0x40 MLOAD SWAP9 DUP10 SWAP9 DUP10 MSTORE PUSH1 0xE0 PUSH1 0x20 DUP11 ADD MSTORE PUSH1 0xE0 DUP10 ADD SWAP1 PUSH2 0x4272 JUMP JUMPDEST SWAP4 PUSH1 0x40 DUP9 ADD MSTORE PUSH1 0x60 DUP8 ADD MSTORE PUSH1 0x80 DUP7 ADD MSTORE DUP5 DUP3 SUB PUSH1 0xA0 DUP7 ADD MSTORE PUSH2 0x4272 JUMP JUMPDEST SWAP1 ISZERO ISZERO PUSH1 0xC0 DUP4 ADD MSTORE SUB SWAP1 RETURN JUMPDEST CALLVALUE PUSH2 0x425 JUMPI PUSH1 0x20 CALLDATASIZE PUSH1 0x3 NOT ADD SLT PUSH2 0x425 JUMPI PUSH32 0x954090ADEF24B59354B88966AFB6B169CF1790275CC1C22D9D599CFA745041A5 PUSH1 0x4 CALLDATALOAD PUSH2 0x173A PUSH1 0x1 DUP1 PUSH1 0xA0 SHL SUB PUSH1 0x10 SLOAD AND CALLER EQ PUSH2 0x4731 JUMP JUMPDEST PUSH2 0x1748 PUSH1 0xB SLOAD DUP3 GT ISZERO PUSH2 0x4A01 JUMP JUMPDEST PUSH1 0x0 DUP2 DUP2 MSTORE PUSH1 0x4 PUSH1 0x20 MSTORE PUSH1 0x40 SWAP1 KECCAK256 PUSH1 0x6 ADD DUP1 SLOAD PUSH1 0xFF DUP2 DUP2 AND ISZERO AND PUSH1 0xFF NOT SWAP1 SWAP2 AND OR SWAP1 SSTORE PUSH2 0x17B9 PUSH1 0x40 MLOAD PUSH2 0x177A DUP2 PUSH2 0x4190 JUMP JUMPDEST PUSH1 0x24 DUP2 MSTORE PUSH32 0x4D65646963696E65207374617475732075706461746564207375636365737366 PUSH1 0x20 DUP3 ADD MSTORE PUSH4 0x756C6C79 PUSH1 0xE0 SHL PUSH1 0x40 DUP3 ADD MSTORE PUSH2 0x5B9 PUSH2 0x48B2 JUMP JUMPDEST PUSH1 0x0 DUP2 DUP2 MSTORE PUSH1 0x4 PUSH1 0x20 SWAP1 DUP2 MSTORE PUSH1 0x40 SWAP2 DUP3 SWAP1 KECCAK256 PUSH1 0x6 ADD SLOAD DUP3 MLOAD SWAP4 DUP5 MSTORE PUSH1 0xFF AND ISZERO ISZERO SWAP1 DUP4 ADD MSTORE DUP2 SWAP1 DUP2 ADD PUSH2 0x7D3 JUMP JUMPDEST CALLVALUE PUSH2 0x425 JUMPI PUSH32 0x611A96F8A84B78B34D3917ACCD31D6E94FFC712CDD95A8CE7B8E2F9C5E093AE9 PUSH1 0x40 PUSH2 0x1817 CALLDATASIZE PUSH2 0x4316 JUMP JUMPDEST PUSH2 0x182C PUSH1 0x1 DUP1 PUSH1 0xA0 SHL SUB PUSH1 0x10 SLOAD AND CALLER EQ PUSH2 0x4731 JUMP JUMPDEST PUSH2 0x183A PUSH1 0xB SLOAD DUP4 GT ISZERO PUSH2 0x4A01 JUMP JUMPDEST DUP2 PUSH1 0x0 MSTORE PUSH1 0x4 PUSH1 0x20 MSTORE DUP1 PUSH1 0x4 DUP5 PUSH1 0x0 KECCAK256 ADD SSTORE PUSH2 0x189A DUP4 MLOAD PUSH2 0x185A DUP2 PUSH2 0x4190 JUMP JUMPDEST PUSH1 0x26 DUP2 MSTORE PUSH32 0x4D65646963696E6520646973636F756E74207570646174656420737563636573 PUSH1 0x20 DUP3 ADD MSTORE PUSH6 0x7366756C6C79 PUSH1 0xD0 SHL DUP6 DUP3 ADD MSTORE PUSH2 0x5B9 PUSH2 0x48B2 JUMP JUMPDEST DUP3 MLOAD SWAP2 DUP3 MSTORE PUSH1 0x20 DUP3 ADD MSTORE LOG1 STOP JUMPDEST CALLVALUE PUSH2 0x425 JUMPI PUSH1 0x0 CALLDATASIZE PUSH1 0x3 NOT ADD SLT PUSH2 0x425 JUMPI PUSH1 0x20 PUSH1 0xE SLOAD PUSH1 0x40 MLOAD SWAP1 DUP2 MSTORE RETURN JUMPDEST CALLVALUE PUSH2 0x425 JUMPI PUSH1 0x20 DUP1 PUSH1 0x3 NOT CALLDATASIZE ADD SLT PUSH2 0x425 JUMPI PUSH1 0x1 PUSH1 0x1 PUSH1 0xA0 SHL SUB SWAP1 DUP2 PUSH2 0x18E9 PUSH2 0x40A2 JUMP JUMPDEST AND PUSH1 0x0 MSTORE PUSH1 0x0 DUP2 MSTORE PUSH2 0x1901 PUSH1 0x2 PUSH1 0x40 PUSH1 0x0 KECCAK256 ADD PUSH2 0x50F6 JUMP JUMPDEST PUSH1 0x40 MLOAD SWAP2 DUP1 DUP4 ADD DUP2 DUP5 MSTORE DUP3 MLOAD DUP1 SWAP2 MSTORE PUSH1 0x40 DUP5 ADD SWAP2 DUP1 PUSH1 0x40 DUP4 PUSH1 0x5 SHL DUP8 ADD ADD SWAP5 ADD SWAP3 PUSH1 0x0 SWAP7 JUMPDEST DUP4 DUP9 LT PUSH2 0x1933 JUMPI DUP7 DUP7 SUB DUP8 RETURN JUMPDEST SWAP1 SWAP2 SWAP3 SWAP4 SWAP5 DUP4 DUP1 PUSH2 0x1963 PUSH1 0x1 SWAP4 PUSH1 0x3F NOT DUP12 DUP3 SUB ADD DUP8 MSTORE PUSH1 0x40 DUP4 DUP12 MLOAD DUP9 DUP2 MLOAD AND DUP5 MSTORE ADD MLOAD SWAP2 DUP2 DUP6 DUP3 ADD MSTORE ADD SWAP1 PUSH2 0x4272 JUMP JUMPDEST SWAP8 ADD SWAP4 ADD SWAP8 ADD SWAP7 SWAP1 SWAP4 SWAP3 SWAP2 SWAP4 PUSH2 0x1926 JUMP JUMPDEST CALLVALUE PUSH2 0x425 JUMPI PUSH1 0x0 CALLDATASIZE PUSH1 0x3 NOT ADD SLT PUSH2 0x425 JUMPI PUSH2 0x198D PUSH2 0x4F5A JUMP JUMPDEST POP PUSH2 0x1996 PUSH2 0x4F5A JUMP JUMPDEST PUSH1 0x0 SWAP1 PUSH1 0x1 DUP1 PUSH1 0xC SLOAD SWAP2 JUMPDEST DUP3 DUP2 GT ISZERO PUSH2 0x19BF JUMPI PUSH1 0x40 MLOAD PUSH1 0x20 DUP1 DUP3 MSTORE DUP2 SWAP1 PUSH2 0x4C1 SWAP1 DUP3 ADD DUP8 PUSH2 0x4561 JUMP JUMPDEST DUP1 PUSH1 0x0 MSTORE PUSH1 0x5 PUSH1 0x20 DUP2 DUP2 MSTORE PUSH1 0x40 PUSH1 0x0 KECCAK256 SWAP2 PUSH1 0x3 SWAP3 PUSH1 0x4 DUP5 DUP3 ADD SLOAD SWAP2 ADD SLOAD DUP2 ADD DUP1 SWAP2 GT PUSH2 0x1A72 JUMPI DUP9 DUP2 GT PUSH2 0x19FF JUMPI JUMPDEST POP POP POP POP PUSH2 0x19FA SWAP1 PUSH2 0x4788 JUMP JUMPDEST PUSH2 0x19A1 JUMP JUMPDEST PUSH1 0xFF SWAP3 SWAP4 SWAP9 POP PUSH2 0x19FA SWAP5 SWAP8 POP SWAP8 DUP8 PUSH1 0x0 MSTORE DUP2 DUP5 MSTORE PUSH1 0x40 PUSH1 0x0 KECCAK256 SWAP1 PUSH1 0x40 MLOAD SWAP5 PUSH2 0x1A26 DUP7 PUSH2 0x4108 JUMP JUMPDEST DUP3 SLOAD DUP7 MSTORE PUSH2 0x1A35 DUP9 DUP5 ADD PUSH2 0x41CC JUMP JUMPDEST SWAP1 DUP7 ADD MSTORE PUSH1 0x2 DUP3 ADD SLOAD PUSH1 0x1 PUSH1 0x1 PUSH1 0xA0 SHL SUB AND PUSH1 0x40 DUP7 ADD MSTORE DUP2 ADD SLOAD PUSH1 0x60 DUP6 ADD MSTORE PUSH1 0x4 DUP2 ADD SLOAD PUSH1 0x80 DUP6 ADD MSTORE ADD SLOAD AND ISZERO ISZERO PUSH1 0xA0 DUP3 ADD MSTORE SWAP4 SWAP1 DUP7 DUP1 DUP1 PUSH2 0x19ED JUMP JUMPDEST PUSH4 0x4E487B71 PUSH1 0xE0 SHL PUSH1 0x0 MSTORE PUSH1 0x11 PUSH1 0x4 MSTORE PUSH1 0x24 PUSH1 0x0 REVERT JUMPDEST CALLVALUE PUSH2 0x425 JUMPI PUSH1 0x40 CALLDATASIZE PUSH1 0x3 NOT ADD SLT PUSH2 0x425 JUMPI PUSH2 0x1AB1 PUSH2 0x1AA4 PUSH2 0x40A2 JUMP JUMPDEST PUSH2 0x1AAC PUSH2 0x40B8 JUMP JUMPDEST PUSH2 0x532E JUMP JUMPDEST PUSH1 0x0 MSTORE PUSH1 0x1 PUSH1 0x20 DUP2 DUP2 MSTORE PUSH1 0x40 PUSH1 0x0 KECCAK256 SWAP2 DUP3 SLOAD SWAP2 PUSH2 0x1ACD DUP4 PUSH2 0x435B JUMP JUMPDEST SWAP3 PUSH2 0x1ADB PUSH1 0x40 MLOAD SWAP5 DUP6 PUSH2 0x41AB JUMP JUMPDEST DUP1 DUP5 MSTORE DUP2 DUP5 ADD DUP1 SWAP6 PUSH1 0x0 MSTORE DUP3 PUSH1 0x0 KECCAK256 PUSH1 0x0 SWAP2 JUMPDEST DUP4 DUP4 LT PUSH2 0x1B7A JUMPI POP POP POP POP PUSH1 0x40 MLOAD SWAP3 DUP2 DUP5 ADD SWAP1 DUP3 DUP6 MSTORE MLOAD DUP1 SWAP2 MSTORE PUSH1 0x40 DUP5 ADD SWAP2 PUSH1 0x40 DUP3 PUSH1 0x5 SHL DUP7 ADD ADD SWAP6 SWAP3 PUSH1 0x0 SWAP1 JUMPDEST DUP4 DUP3 LT PUSH2 0x1B29 JUMPI DUP7 DUP9 SUB DUP8 RETURN JUMPDEST SWAP1 SWAP2 SWAP3 SWAP4 SWAP5 DUP4 DUP1 PUSH2 0x1B69 DUP4 SWAP11 PUSH1 0x3F NOT DUP12 DUP3 SUB ADD DUP7 MSTORE PUSH1 0x40 DUP11 MLOAD PUSH1 0x1 DUP1 PUSH1 0xA0 SHL SUB DUP2 MLOAD AND DUP4 MSTORE DUP5 DUP2 ADD MLOAD DUP6 DUP5 ADD MSTORE ADD MLOAD SWAP1 PUSH1 0x60 SWAP1 DUP2 PUSH1 0x40 DUP3 ADD MSTORE ADD SWAP1 PUSH2 0x4272 JUMP JUMPDEST SWAP10 SWAP8 ADD SWAP6 SWAP5 SWAP4 SWAP2 SWAP1 SWAP2 ADD SWAP2 ADD PUSH2 0x1B1C JUMP JUMPDEST SWAP5 PUSH1 0x3 DUP6 DUP3 SWAP10 SWAP8 PUSH1 0x40 SWAP10 SWAP8 SWAP10 MLOAD PUSH2 0x1B90 DUP2 PUSH2 0x4190 JUMP JUMPDEST DUP6 SLOAD PUSH1 0x1 PUSH1 0x1 PUSH1 0xA0 SHL SUB AND DUP2 MSTORE DUP5 DUP7 ADD SLOAD DUP4 DUP3 ADD MSTORE PUSH2 0x1BB1 PUSH1 0x2 DUP8 ADD PUSH2 0x41CC JUMP JUMPDEST PUSH1 0x40 DUP3 ADD MSTORE DUP2 MSTORE ADD SWAP3 ADD SWAP3 ADD SWAP2 SWAP1 SWAP7 SWAP5 SWAP7 SWAP6 SWAP4 SWAP6 PUSH2 0x1AEE JUMP JUMPDEST CALLVALUE PUSH2 0x425 JUMPI PUSH1 0x20 DUP1 PUSH1 0x3 NOT CALLDATASIZE ADD SLT PUSH2 0x425 JUMPI PUSH1 0x4 CALLDATALOAD PUSH2 0x1BED PUSH1 0xD SLOAD DUP3 GT ISZERO PUSH2 0x4B5D JUMP JUMPDEST PUSH1 0x0 DUP2 DUP2 MSTORE PUSH1 0x6 DUP4 MSTORE PUSH1 0x40 SWAP1 KECCAK256 PUSH1 0x3 ADD SLOAD CALLER PUSH1 0x1 PUSH1 0x1 PUSH1 0xA0 SHL SUB SWAP2 DUP3 AND EQ SWAP1 DUP2 ISZERO PUSH2 0x1CA9 JUMPI JUMPDEST POP ISZERO PUSH2 0x1C45 JUMPI PUSH1 0x0 MSTORE PUSH1 0x6 DUP2 MSTORE PUSH2 0x1C30 PUSH1 0x2 PUSH1 0x40 PUSH1 0x0 KECCAK256 ADD PUSH2 0x4D9A JUMP JUMPDEST SWAP1 PUSH2 0x4C1 PUSH1 0x40 MLOAD SWAP3 DUP3 DUP5 SWAP4 DUP5 MSTORE DUP4 ADD SWAP1 PUSH2 0x44AA JUMP JUMPDEST PUSH1 0x40 MLOAD PUSH3 0x461BCD PUSH1 0xE5 SHL DUP2 MSTORE PUSH1 0x4 DUP2 ADD DUP4 SWAP1 MSTORE PUSH1 0x36 PUSH1 0x24 DUP3 ADD MSTORE PUSH32 0x4F6E6C79207468652070617469656E74206F722061646D696E2063616E207669 PUSH1 0x44 DUP3 ADD MSTORE PUSH22 0x657720746865206D65646963616C20686973746F7279 PUSH1 0x50 SHL PUSH1 0x64 DUP3 ADD MSTORE PUSH1 0x84 SWAP1 REVERT JUMPDEST SWAP1 POP PUSH1 0x10 SLOAD AND CALLER EQ DUP4 PUSH2 0x1C13 JUMP JUMPDEST CALLVALUE PUSH2 0x425 JUMPI PUSH2 0x1CC5 CALLDATASIZE PUSH2 0x4316 JUMP JUMPDEST SWAP1 PUSH1 0x0 MSTORE PUSH1 0x3 PUSH1 0x20 MSTORE PUSH1 0x40 PUSH1 0x0 KECCAK256 DUP1 SLOAD DUP3 LT ISZERO PUSH2 0x425 JUMPI PUSH1 0xC0 SWAP2 PUSH2 0x1CE8 SWAP2 PUSH2 0x46E8 JUMP JUMPDEST POP DUP1 SLOAD SWAP1 PUSH1 0x1 DUP2 ADD SLOAD SWAP1 PUSH1 0x2 DUP2 ADD SLOAD PUSH1 0x3 DUP3 ADD SLOAD SWAP1 PUSH1 0x5 PUSH1 0x4 DUP5 ADD SLOAD SWAP4 ADD SLOAD SWAP4 PUSH1 0x40 MLOAD SWAP6 DUP7 MSTORE PUSH1 0x20 DUP7 ADD MSTORE PUSH1 0x40 DUP6 ADD MSTORE PUSH1 0x60 DUP5 ADD MSTORE PUSH1 0x80 DUP4 ADD MSTORE PUSH1 0xA0 DUP3 ADD MSTORE RETURN JUMPDEST CALLVALUE PUSH2 0x425 JUMPI PUSH1 0x0 CALLDATASIZE PUSH1 0x3 NOT ADD SLT PUSH2 0x425 JUMPI PUSH1 0x20 PUSH1 0xD SLOAD PUSH1 0x40 MLOAD SWAP1 DUP2 MSTORE RETURN JUMPDEST CALLVALUE PUSH2 0x425 JUMPI PUSH1 0x0 CALLDATASIZE PUSH1 0x3 NOT ADD SLT PUSH2 0x425 JUMPI PUSH1 0xB SLOAD PUSH2 0x1D64 DUP2 PUSH2 0x435B JUMP JUMPDEST PUSH2 0x1D71 PUSH1 0x40 MLOAD SWAP2 DUP3 PUSH2 0x41AB JUMP JUMPDEST DUP2 DUP2 MSTORE PUSH1 0x1F NOT PUSH2 0x1D80 DUP4 PUSH2 0x435B JUMP JUMPDEST ADD PUSH1 0x0 JUMPDEST DUP2 DUP2 LT PUSH2 0x1E94 JUMPI POP PUSH1 0x1 SWAP3 SWAP1 POP DUP3 PUSH1 0x0 JUMPDEST DUP3 DUP3 GT ISZERO PUSH2 0x1E00 JUMPI DUP4 DUP6 PUSH1 0x40 MLOAD SWAP1 PUSH1 0x20 DUP1 DUP4 ADD DUP2 DUP5 MSTORE DUP5 MLOAD DUP1 SWAP2 MSTORE PUSH1 0x40 DUP5 ADD SWAP2 DUP1 PUSH1 0x40 DUP4 PUSH1 0x5 SHL DUP8 ADD ADD SWAP7 ADD SWAP3 PUSH1 0x0 SWAP1 JUMPDEST DUP4 DUP3 LT PUSH2 0x1DD3 JUMPI DUP7 DUP9 SUB DUP8 RETURN JUMPDEST SWAP1 SWAP2 SWAP3 SWAP4 SWAP5 DUP4 DUP1 PUSH2 0x1DEF DUP4 SWAP11 PUSH1 0x3F NOT DUP12 DUP3 SUB ADD DUP7 MSTORE DUP10 MLOAD PUSH2 0x4689 JUMP JUMPDEST SWAP10 SWAP8 ADD SWAP6 SWAP5 SWAP4 SWAP2 SWAP1 SWAP2 ADD SWAP2 ADD PUSH2 0x1DC6 JUMP JUMPDEST PUSH2 0x1E88 PUSH2 0x1E8E SWAP2 DUP4 PUSH1 0x0 MSTORE PUSH1 0x20 PUSH1 0x4 DUP2 MSTORE PUSH1 0xFF PUSH1 0x6 PUSH1 0x40 PUSH1 0x0 KECCAK256 PUSH1 0x40 MLOAD SWAP4 PUSH2 0x1E27 DUP6 PUSH2 0x4175 JUMP JUMPDEST DUP2 SLOAD DUP6 MSTORE PUSH2 0x1E36 DUP13 DUP4 ADD PUSH2 0x41CC JUMP JUMPDEST SWAP1 DUP6 ADD MSTORE PUSH1 0x2 DUP2 ADD SLOAD PUSH1 0x40 DUP6 ADD MSTORE PUSH1 0x3 DUP2 ADD SLOAD PUSH1 0x60 DUP6 ADD MSTORE PUSH1 0x4 DUP2 ADD SLOAD PUSH1 0x80 DUP6 ADD MSTORE PUSH2 0x1E64 PUSH1 0x5 DUP3 ADD PUSH2 0x41CC JUMP JUMPDEST PUSH1 0xA0 DUP6 ADD MSTORE ADD SLOAD AND ISZERO ISZERO PUSH1 0xC0 DUP3 ADD MSTORE PUSH2 0x1E7D DUP3 DUP9 PUSH2 0x4D5A JUMP JUMPDEST MSTORE PUSH2 0x1203 DUP2 DUP8 PUSH2 0x4D5A JUMP JUMPDEST SWAP2 PUSH2 0x4788 JUMP JUMPDEST SWAP1 PUSH2 0x1D95 JUMP JUMPDEST PUSH1 0x20 SWAP1 PUSH2 0x1E9F PUSH2 0x5055 JUMP JUMPDEST DUP3 DUP3 DUP7 ADD ADD MSTORE ADD PUSH2 0x1D84 JUMP JUMPDEST CALLVALUE PUSH2 0x425 JUMPI PUSH1 0x20 CALLDATASIZE PUSH1 0x3 NOT ADD SLT PUSH2 0x425 JUMPI PUSH1 0x1 PUSH1 0x1 PUSH1 0xA0 SHL SUB PUSH2 0x1ECC PUSH2 0x40A2 JUMP JUMPDEST AND PUSH1 0x0 MSTORE PUSH1 0xA PUSH1 0x20 MSTORE PUSH1 0x20 PUSH1 0xFF PUSH1 0x40 PUSH1 0x0 KECCAK256 SLOAD AND PUSH1 0x40 MLOAD SWAP1 ISZERO ISZERO DUP2 MSTORE RETURN JUMPDEST CALLVALUE PUSH2 0x425 JUMPI PUSH2 0x1EF8 CALLDATASIZE PUSH2 0x4316 JUMP JUMPDEST PUSH2 0x1F06 PUSH1 0xD SLOAD DUP4 GT ISZERO PUSH2 0x4B5D JUMP JUMPDEST CALLER PUSH1 0x0 MSTORE PUSH1 0x20 SWAP2 PUSH1 0x9 DUP4 MSTORE PUSH1 0xFF PUSH1 0x40 PUSH1 0x0 KECCAK256 SLOAD AND DUP1 ISZERO PUSH2 0x1FB6 JUMPI JUMPDEST PUSH2 0x1F2A SWAP1 PUSH2 0x53C9 JUMP JUMPDEST DUP1 PUSH1 0x0 MSTORE PUSH1 0x6 DUP4 MSTORE PUSH1 0x2 PUSH1 0x40 PUSH1 0x0 KECCAK256 ADD SLOAD DUP3 LT ISZERO PUSH2 0x1F79 JUMPI PUSH2 0x1F64 SWAP2 PUSH2 0x1F5E SWAP2 PUSH1 0x0 MSTORE PUSH1 0x6 DUP5 MSTORE PUSH1 0x2 PUSH1 0x40 PUSH1 0x0 KECCAK256 ADD PUSH2 0x4BA2 JUMP JUMPDEST POP PUSH2 0x41CC JUMP JUMPDEST SWAP1 PUSH2 0x4C1 PUSH1 0x40 MLOAD SWAP3 DUP3 DUP5 SWAP4 DUP5 MSTORE DUP4 ADD SWAP1 PUSH2 0x4272 JUMP JUMPDEST PUSH1 0x40 MLOAD PUSH3 0x461BCD PUSH1 0xE5 SHL DUP2 MSTORE PUSH1 0x4 DUP2 ADD DUP5 SWAP1 MSTORE PUSH1 0x15 PUSH1 0x24 DUP3 ADD MSTORE PUSH21 0x149958DBDC9908191BD95CC81B9BDD08195E1A5CDD PUSH1 0x5A SHL PUSH1 0x44 DUP3 ADD MSTORE PUSH1 0x64 SWAP1 REVERT JUMPDEST POP PUSH1 0x0 DUP2 DUP2 MSTORE PUSH1 0x6 DUP5 MSTORE PUSH1 0x40 SWAP1 KECCAK256 PUSH1 0x3 ADD SLOAD PUSH1 0x1 PUSH1 0x1 PUSH1 0xA0 SHL SUB AND CALLER EQ PUSH2 0x1F21 JUMP JUMPDEST CALLVALUE PUSH2 0x425 JUMPI PUSH1 0x20 CALLDATASIZE PUSH1 0x3 NOT ADD SLT PUSH2 0x425 JUMPI PUSH1 0x4 CALLDATALOAD PUSH1 0x0 MSTORE PUSH1 0x6 PUSH1 0x20 MSTORE PUSH1 0x40 PUSH1 0x0 KECCAK256 DUP1 SLOAD PUSH2 0x2007 PUSH1 0x1 DUP4 ADD PUSH2 0x41CC JUMP JUMPDEST SWAP2 PUSH1 0x3 PUSH1 0x1 DUP1 PUSH1 0xA0 SHL SUB SWAP2 ADD SLOAD AND PUSH2 0x2031 PUSH1 0x40 MLOAD SWAP4 DUP5 SWAP4 DUP5 MSTORE PUSH1 0x60 PUSH1 0x20 DUP6 ADD MSTORE PUSH1 0x60 DUP5 ADD SWAP1 PUSH2 0x4272 JUMP JUMPDEST SWAP1 PUSH1 0x40 DUP4 ADD MSTORE SUB SWAP1 RETURN JUMPDEST CALLVALUE PUSH2 0x425 JUMPI PUSH1 0x0 CALLDATASIZE PUSH1 0x3 NOT ADD SLT PUSH2 0x425 JUMPI PUSH1 0xE SLOAD PUSH2 0x2058 DUP2 PUSH2 0x4D0A JUMP JUMPDEST SWAP1 PUSH1 0x1 DUP1 PUSH1 0x0 JUMPDEST DUP4 DUP4 GT ISZERO PUSH2 0x2075 JUMPI PUSH1 0x40 MLOAD DUP1 PUSH2 0x4C1 DUP8 DUP3 PUSH2 0x4641 JUMP JUMPDEST PUSH2 0x1209 PUSH2 0x20CB SWAP2 DUP5 PUSH1 0x0 MSTORE PUSH1 0x20 PUSH1 0x7 DUP2 MSTORE PUSH1 0x4 PUSH1 0x40 PUSH1 0x0 KECCAK256 PUSH1 0x40 MLOAD SWAP3 PUSH2 0x209A DUP5 PUSH2 0x4123 JUMP JUMPDEST DUP2 SLOAD DUP5 MSTORE DUP8 DUP3 ADD SLOAD SWAP1 DUP5 ADD MSTORE PUSH1 0x2 DUP2 ADD SLOAD PUSH1 0x40 DUP5 ADD MSTORE PUSH1 0x3 DUP2 ADD SLOAD PUSH1 0x60 DUP5 ADD MSTORE ADD SLOAD PUSH1 0x80 DUP3 ADD MSTORE PUSH2 0x11F8 DUP3 DUP10 PUSH2 0x4D5A JUMP JUMPDEST SWAP2 PUSH2 0x205F JUMP JUMPDEST CALLVALUE PUSH2 0x425 JUMPI PUSH1 0x20 DUP1 PUSH1 0x3 NOT CALLDATASIZE ADD SLT PUSH2 0x425 JUMPI PUSH1 0x4 CALLDATALOAD PUSH2 0x20EE PUSH2 0x4EBF JUMP JUMPDEST POP PUSH2 0x20FD PUSH1 0xF SLOAD DUP3 GT ISZERO PUSH2 0x4BFD JUMP JUMPDEST DUP1 PUSH1 0x0 MSTORE PUSH1 0x8 DUP3 MSTORE PUSH1 0x1 PUSH1 0x40 PUSH1 0x0 KECCAK256 ADD SLOAD PUSH2 0x2117 CALLER PUSH2 0x4E3E JUMP JUMPDEST EQ DUP1 ISZERO PUSH2 0x2238 JUMPI JUMPDEST ISZERO PUSH2 0x21D8 JUMPI PUSH1 0x0 MSTORE PUSH1 0x8 DUP2 MSTORE PUSH1 0x40 PUSH1 0x0 KECCAK256 SWAP1 PUSH1 0xFF PUSH1 0x9 PUSH1 0x40 MLOAD SWAP4 PUSH2 0x2142 DUP6 PUSH2 0x413E JUMP JUMPDEST DUP1 SLOAD DUP6 MSTORE PUSH1 0x1 DUP2 ADD SLOAD DUP5 DUP7 ADD MSTORE PUSH1 0x2 DUP2 ADD SLOAD PUSH1 0x40 DUP7 ADD MSTORE PUSH1 0x3 DUP2 ADD SLOAD PUSH1 0x60 DUP7 ADD MSTORE PUSH2 0x216F PUSH1 0x4 DUP3 ADD PUSH2 0x41CC JUMP JUMPDEST PUSH1 0x80 DUP7 ADD MSTORE PUSH2 0x2180 PUSH1 0x5 DUP3 ADD PUSH2 0x41CC JUMP JUMPDEST PUSH1 0xA0 DUP7 ADD MSTORE PUSH2 0x2191 PUSH1 0x6 DUP3 ADD PUSH2 0x41CC JUMP JUMPDEST PUSH1 0xC0 DUP7 ADD MSTORE PUSH2 0x21A2 PUSH1 0x7 DUP3 ADD PUSH2 0x41CC JUMP JUMPDEST PUSH1 0xE0 DUP7 ADD MSTORE PUSH2 0x21B3 PUSH1 0x8 DUP3 ADD PUSH2 0x41CC JUMP JUMPDEST PUSH2 0x100 DUP7 ADD MSTORE ADD SLOAD AND ISZERO ISZERO PUSH2 0x120 DUP4 ADD MSTORE PUSH2 0x4C1 PUSH1 0x40 MLOAD SWAP3 DUP3 DUP5 SWAP4 DUP5 MSTORE DUP4 ADD SWAP1 PUSH2 0x4372 JUMP JUMPDEST PUSH1 0x40 MLOAD PUSH3 0x461BCD PUSH1 0xE5 SHL DUP2 MSTORE PUSH1 0x4 DUP2 ADD DUP4 SWAP1 MSTORE PUSH1 0x32 PUSH1 0x24 DUP3 ADD MSTORE PUSH32 0x4F6E6C79207468652070617469656E74206F722061646D696E2063616E207669 PUSH1 0x44 DUP3 ADD MSTORE PUSH18 0x195DC81D1A1948185C1C1BDA5B9D1B595B9D PUSH1 0x72 SHL PUSH1 0x64 DUP3 ADD MSTORE PUSH1 0x84 SWAP1 REVERT JUMPDEST POP PUSH1 0x10 SLOAD PUSH1 0x1 PUSH1 0x1 PUSH1 0xA0 SHL SUB AND CALLER EQ PUSH2 0x211F JUMP JUMPDEST CALLVALUE PUSH2 0x425 JUMPI PUSH1 0x0 CALLDATASIZE PUSH1 0x3 NOT ADD SLT PUSH2 0x425 JUMPI PUSH1 0xD SLOAD PUSH2 0x2269 DUP2 PUSH2 0x435B JUMP JUMPDEST PUSH2 0x2276 PUSH1 0x40 MLOAD SWAP2 DUP3 PUSH2 0x41AB JUMP JUMPDEST DUP2 DUP2 MSTORE PUSH1 0x1F NOT PUSH2 0x2285 DUP4 PUSH2 0x435B JUMP JUMPDEST ADD PUSH1 0x0 JUMPDEST DUP2 DUP2 LT PUSH2 0x237F JUMPI POP PUSH1 0x1 SWAP3 SWAP1 POP DUP3 PUSH1 0x0 JUMPDEST DUP3 DUP3 GT ISZERO PUSH2 0x2305 JUMPI DUP4 DUP6 PUSH1 0x40 MLOAD SWAP1 PUSH1 0x20 DUP1 DUP4 ADD DUP2 DUP5 MSTORE DUP5 MLOAD DUP1 SWAP2 MSTORE PUSH1 0x40 DUP5 ADD SWAP2 DUP1 PUSH1 0x40 DUP4 PUSH1 0x5 SHL DUP8 ADD ADD SWAP7 ADD SWAP3 PUSH1 0x0 SWAP1 JUMPDEST DUP4 DUP3 LT PUSH2 0x22D8 JUMPI DUP7 DUP9 SUB DUP8 RETURN JUMPDEST SWAP1 SWAP2 SWAP3 SWAP4 SWAP5 DUP4 DUP1 PUSH2 0x22F4 DUP4 SWAP11 PUSH1 0x3F NOT DUP12 DUP3 SUB ADD DUP7 MSTORE DUP10 MLOAD PUSH2 0x4506 JUMP JUMPDEST SWAP10 SWAP8 ADD SWAP6 SWAP5 SWAP4 SWAP2 SWAP1 SWAP2 ADD SWAP2 ADD PUSH2 0x22CB JUMP JUMPDEST PUSH2 0x1E88 PUSH2 0x2379 SWAP2 DUP4 PUSH1 0x0 MSTORE PUSH1 0x20 PUSH1 0x6 DUP2 MSTORE PUSH2 0x236A PUSH1 0x4 PUSH1 0x40 PUSH1 0x0 KECCAK256 PUSH1 0x40 MLOAD SWAP4 PUSH2 0x232D DUP6 PUSH2 0x4123 JUMP JUMPDEST DUP2 SLOAD DUP6 MSTORE PUSH2 0x233C DUP13 DUP4 ADD PUSH2 0x41CC JUMP JUMPDEST SWAP1 DUP6 ADD MSTORE PUSH2 0x234C PUSH1 0x2 DUP3 ADD PUSH2 0x4D9A JUMP JUMPDEST PUSH1 0x40 DUP6 ADD MSTORE PUSH1 0x3 DUP2 ADD SLOAD PUSH1 0x1 PUSH1 0x1 PUSH1 0xA0 SHL SUB AND PUSH1 0x60 DUP6 ADD MSTORE ADD PUSH2 0x4DEF JUMP JUMPDEST PUSH1 0x80 DUP3 ADD MSTORE PUSH2 0x1E7D DUP3 DUP9 PUSH2 0x4D5A JUMP JUMPDEST SWAP1 PUSH2 0x229A JUMP JUMPDEST PUSH1 0x20 SWAP1 PUSH2 0x238A PUSH2 0x4D6E JUMP JUMPDEST DUP3 DUP3 DUP7 ADD ADD MSTORE ADD PUSH2 0x2289 JUMP JUMPDEST PUSH1 0x60 CALLDATASIZE PUSH1 0x3 NOT ADD SLT PUSH2 0x425 JUMPI PUSH1 0x4 CALLDATALOAD PUSH1 0x24 DUP1 CALLDATALOAD SWAP1 PUSH1 0x44 CALLDATALOAD PUSH2 0x23BB PUSH1 0xD SLOAD DUP6 GT ISZERO PUSH2 0x4B5D JUMP JUMPDEST PUSH2 0x23C9 PUSH1 0xB SLOAD DUP5 GT ISZERO PUSH2 0x4A01 JUMP JUMPDEST DUP4 PUSH1 0x0 MSTORE PUSH1 0x20 SWAP2 PUSH1 0x6 DUP4 MSTORE PUSH1 0x1 DUP1 PUSH1 0xA0 SHL SUB SWAP2 PUSH1 0x3 SWAP1 DUP4 DUP3 PUSH1 0x40 PUSH1 0x0 KECCAK256 ADD SLOAD AND CALLER SUB PUSH2 0x26EB JUMPI DUP6 PUSH1 0x0 MSTORE PUSH1 0x4 DUP6 MSTORE PUSH1 0xFF PUSH1 0x6 PUSH1 0x40 PUSH1 0x0 KECCAK256 ADD SLOAD AND ISZERO PUSH2 0x26AE JUMPI DUP6 PUSH1 0x0 MSTORE PUSH1 0x4 DUP6 MSTORE DUP1 DUP3 PUSH1 0x40 PUSH1 0x0 KECCAK256 ADD SLOAD LT PUSH2 0x266A JUMPI DUP6 PUSH1 0x0 MSTORE PUSH1 0x4 DUP6 MSTORE PUSH1 0x2 PUSH1 0x40 PUSH1 0x0 KECCAK256 ADD SLOAD SWAP2 DUP2 DUP4 MUL SWAP3 DUP1 DUP5 DIV DUP4 EQ SWAP1 ISZERO OR ISZERO PUSH2 0x2655 JUMPI DUP7 PUSH1 0x0 MSTORE PUSH1 0x4 DUP7 MSTORE DUP1 PUSH1 0x40 PUSH1 0x0 KECCAK256 ADD PUSH2 0x245B DUP4 DUP3 SLOAD PUSH2 0x4C8E JUMP JUMPDEST SWAP1 SSTORE PUSH1 0x0 DUP9 DUP2 MSTORE PUSH1 0x6 DUP8 MSTORE PUSH1 0x40 SWAP1 KECCAK256 PUSH1 0x4 ADD DUP1 SLOAD PUSH1 0x1 PUSH1 0x40 SHL SWAP4 SWAP2 DUP5 DUP3 LT ISZERO PUSH2 0x2640 JUMPI SWAP1 PUSH2 0x248E SWAP2 PUSH1 0x1 DUP3 ADD DUP2 SSTORE PUSH2 0x4BA2 JUMP JUMPDEST DUP2 SLOAD SWAP1 DUP5 SHL SWAP1 DUP11 DUP3 SHL SWAP2 PUSH1 0x0 NOT SWAP1 SHL NOT AND OR SWAP1 SSTORE DUP9 PUSH1 0x0 MSTORE DUP2 DUP8 MSTORE PUSH1 0x40 PUSH1 0x0 KECCAK256 SWAP4 DUP9 PUSH1 0x0 MSTORE PUSH1 0x4 DUP9 MSTORE PUSH1 0x2 PUSH1 0x40 PUSH1 0x0 KECCAK256 ADD SLOAD PUSH1 0x40 MLOAD PUSH2 0x24CC DUP2 PUSH2 0x4108 JUMP JUMPDEST DUP11 DUP2 MSTORE DUP10 DUP2 ADD SWAP2 DUP3 MSTORE PUSH1 0x40 DUP2 ADD SWAP3 DUP4 MSTORE PUSH1 0x60 DUP2 ADD SWAP4 DUP5 MSTORE PUSH1 0x80 DUP2 ADD SWAP6 DUP13 DUP8 MSTORE PUSH1 0xA0 DUP3 ADD SWAP8 TIMESTAMP DUP10 MSTORE DUP1 SLOAD SWAP2 DUP3 LT ISZERO PUSH2 0x262B JUMPI SWAP1 PUSH2 0x250D SWAP2 PUSH1 0x1 DUP3 ADD DUP2 SSTORE PUSH2 0x46E8 JUMP JUMPDEST SWAP9 SWAP1 SWAP9 PUSH2 0x2617 JUMPI POP MLOAD DUP8 SSTORE MLOAD PUSH1 0x1 DUP8 ADD SSTORE MLOAD PUSH1 0x2 DUP7 ADD SSTORE MLOAD SWAP1 DUP5 ADD SSTORE MLOAD PUSH1 0x4 DUP4 ADD SSTORE MLOAD PUSH1 0x5 SWAP1 SWAP2 ADD SSTORE PUSH1 0x40 DUP1 MLOAD PUSH32 0x1D62F96054391D98915909B52FC6B2182AF4CE3748F5DDD6C0047DD725A969DF SWAP6 SWAP2 SWAP5 SWAP2 SWAP4 SWAP2 SWAP3 PUSH2 0x260C SWAP2 PUSH2 0x25B1 SWAP1 PUSH2 0x2573 DUP2 PUSH2 0x4190 JUMP JUMPDEST PUSH1 0x25 DUP2 MSTORE PUSH32 0x596F752068617665207375636365737366756C6C7920626F75676874206D6564 DUP6 DUP3 ADD MSTORE PUSH5 0x6963696E65 PUSH1 0xD8 SHL DUP9 DUP3 ADD MSTORE PUSH2 0x5B9 PUSH2 0x4C9B JUMP JUMPDEST PUSH1 0x10 SLOAD AND DUP6 MLOAD PUSH2 0x25C0 DUP2 PUSH2 0x4190 JUMP JUMPDEST PUSH1 0x33 DUP2 MSTORE PUSH32 0x5472616E73616374696F6E20636F6D706C657465642C206D61646963696E6520 DUP5 DUP3 ADD MSTORE PUSH19 0x626F75676874207375636365737366756C6C79 PUSH1 0x68 SHL DUP8 DUP3 ADD MSTORE PUSH2 0x63C PUSH2 0x4C9B JUMP JUMPDEST DUP4 MLOAD SWAP3 DUP4 MSTORE DUP3 ADD MSTORE LOG1 STOP JUMPDEST PUSH4 0x4E487B71 PUSH1 0xE0 SHL PUSH1 0x0 MSTORE PUSH1 0x0 PUSH1 0x4 MSTORE PUSH1 0x0 REVERT JUMPDEST DUP10 PUSH4 0x4E487B71 PUSH1 0xE0 SHL PUSH1 0x0 MSTORE PUSH1 0x41 PUSH1 0x4 MSTORE PUSH1 0x0 REVERT JUMPDEST DUP7 PUSH4 0x4E487B71 PUSH1 0xE0 SHL PUSH1 0x0 MSTORE PUSH1 0x41 PUSH1 0x4 MSTORE PUSH1 0x0 REVERT JUMPDEST DUP4 PUSH4 0x4E487B71 PUSH1 0xE0 SHL PUSH1 0x0 MSTORE PUSH1 0x11 PUSH1 0x4 MSTORE PUSH1 0x0 REVERT JUMPDEST PUSH1 0x40 MLOAD PUSH3 0x461BCD PUSH1 0xE5 SHL DUP2 MSTORE PUSH1 0x4 DUP2 ADD DUP7 SWAP1 MSTORE PUSH1 0x1C DUP2 DUP6 ADD MSTORE PUSH32 0x4E6F7420656E6F756768206D65646963696E6520696E2073746F636B00000000 PUSH1 0x44 DUP3 ADD MSTORE PUSH1 0x64 SWAP1 REVERT JUMPDEST PUSH1 0x40 MLOAD PUSH3 0x461BCD PUSH1 0xE5 SHL DUP2 MSTORE PUSH1 0x4 DUP2 ADD DUP7 SWAP1 MSTORE PUSH1 0x16 DUP2 DUP6 ADD MSTORE PUSH22 0x4D65646963696E65206973206E6F7420616374697665 PUSH1 0x50 SHL PUSH1 0x44 DUP3 ADD MSTORE PUSH1 0x64 SWAP1 REVERT JUMPDEST PUSH1 0x40 MLOAD PUSH3 0x461BCD PUSH1 0xE5 SHL DUP2 MSTORE PUSH1 0x4 DUP2 ADD DUP7 SWAP1 MSTORE PUSH1 0x27 DUP2 DUP6 ADD MSTORE PUSH32 0x4F6E6C79207468652070617469656E742063616E20627579207468656972206D PUSH1 0x44 DUP3 ADD MSTORE PUSH7 0x65646963696E65 PUSH1 0xC8 SHL PUSH1 0x64 DUP3 ADD MSTORE PUSH1 0x84 SWAP1 REVERT JUMPDEST CALLVALUE PUSH2 0x425 JUMPI PUSH1 0x0 CALLDATASIZE PUSH1 0x3 NOT ADD SLT PUSH2 0x425 JUMPI PUSH1 0x14 SLOAD PUSH2 0x275C DUP2 PUSH2 0x435B JUMP JUMPDEST SWAP1 PUSH2 0x276A PUSH1 0x40 MLOAD SWAP3 DUP4 PUSH2 0x41AB JUMP JUMPDEST DUP1 DUP3 MSTORE PUSH1 0x14 PUSH1 0x0 SWAP1 DUP2 MSTORE PUSH1 0x20 SWAP2 DUP3 DUP5 ADD SWAP2 PUSH32 0xCE6D7B5282BD9A3661AE061FEED1DBDA4E52AB073B1F9285BE6E155D9C38D4EC DUP4 JUMPDEST DUP4 DUP4 LT PUSH2 0x2821 JUMPI POP POP POP POP PUSH1 0x40 MLOAD SWAP2 DUP1 DUP4 ADD SWAP4 DUP2 DUP5 MSTORE MLOAD DUP1 SWAP5 MSTORE PUSH1 0x40 DUP4 ADD SWAP4 PUSH1 0x40 DUP2 PUSH1 0x5 SHL DUP6 ADD ADD SWAP3 SWAP2 PUSH1 0x0 SWAP6 JUMPDEST DUP3 DUP8 LT PUSH2 0x27D9 JUMPI DUP6 DUP6 SUB DUP7 RETURN JUMPDEST SWAP1 SWAP2 SWAP3 SWAP4 DUP3 DUP1 PUSH1 0x1 SWAP3 PUSH1 0x3F NOT DUP10 DUP3 SUB ADD DUP6 MSTORE DUP8 MLOAD SWAP1 DUP3 PUSH2 0x2802 DUP4 MLOAD PUSH1 0x40 DUP5 MSTORE PUSH1 0x40 DUP5 ADD SWAP1 PUSH2 0x4272 JUMP JUMPDEST SWAP3 DUP2 DUP8 DUP1 PUSH1 0xA0 SHL SUB SWAP2 ADD MLOAD AND SWAP2 ADD MSTORE SWAP7 ADD SWAP3 ADD SWAP7 ADD SWAP6 SWAP3 SWAP2 SWAP1 SWAP3 PUSH2 0x27CC JUMP JUMPDEST PUSH1 0x2 DUP7 PUSH1 0x1 SWAP3 PUSH1 0x40 SWAP10 SWAP9 SWAP10 MLOAD PUSH2 0x2836 DUP2 PUSH2 0x415A JUMP JUMPDEST PUSH2 0x283F DUP7 PUSH2 0x41CC JUMP JUMPDEST DUP2 MSTORE DUP5 DUP1 PUSH1 0xA0 SHL SUB DUP6 DUP8 ADD SLOAD AND DUP4 DUP3 ADD MSTORE DUP2 MSTORE ADD SWAP3 ADD SWAP3 ADD SWAP2 SWAP1 SWAP6 SWAP5 SWAP6 PUSH2 0x279E JUMP JUMPDEST CALLVALUE PUSH2 0x425 JUMPI PUSH1 0x20 DUP1 PUSH1 0x3 NOT CALLDATASIZE ADD SLT PUSH2 0x425 JUMPI PUSH1 0xE SLOAD PUSH1 0x1 SWAP2 PUSH1 0x4 CALLDATALOAD PUSH1 0x0 DUP5 JUMPDEST DUP5 DUP2 GT ISZERO PUSH2 0x2931 JUMPI POP PUSH2 0x2892 SWAP1 PUSH2 0x4D0A JUMP JUMPDEST SWAP4 PUSH1 0x0 SWAP2 DUP2 JUMPDEST DUP6 DUP2 GT ISZERO PUSH2 0x28AE JUMPI PUSH1 0x40 MLOAD DUP1 PUSH2 0x4C1 DUP10 DUP3 PUSH2 0x4641 JUMP JUMPDEST DUP1 PUSH1 0x0 MSTORE PUSH1 0x7 DUP6 MSTORE PUSH1 0x40 PUSH1 0x0 KECCAK256 PUSH1 0x2 DUP2 ADD SLOAD SWAP1 DUP4 DUP3 EQ PUSH2 0x28D9 JUMPI JUMPDEST POP POP PUSH2 0x28D4 SWAP1 PUSH2 0x4788 JUMP JUMPDEST PUSH2 0x2898 JUMP JUMPDEST SWAP5 PUSH2 0x2929 SWAP2 PUSH1 0x4 PUSH2 0x28D4 SWAP5 SWAP8 PUSH1 0x40 MLOAD SWAP3 PUSH2 0x28F2 DUP5 PUSH2 0x4123 JUMP JUMPDEST DUP2 SLOAD DUP5 MSTORE DUP9 DUP3 ADD SLOAD DUP12 DUP6 ADD MSTORE PUSH1 0x40 DUP5 ADD MSTORE PUSH1 0x3 DUP2 ADD SLOAD PUSH1 0x60 DUP5 ADD MSTORE ADD SLOAD PUSH1 0x80 DUP3 ADD MSTORE PUSH2 0x291E DUP3 DUP12 PUSH2 0x4D5A JUMP JUMPDEST MSTORE PUSH2 0x1203 DUP2 DUP11 PUSH2 0x4D5A JUMP JUMPDEST SWAP4 SWAP1 DUP9 PUSH2 0x28C9 JUMP JUMPDEST DUP1 PUSH1 0x0 MSTORE PUSH1 0x7 DUP5 MSTORE DUP3 PUSH1 0x2 PUSH1 0x40 PUSH1 0x0 KECCAK256 ADD SLOAD EQ PUSH2 0x2957 JUMPI JUMPDEST PUSH2 0x2952 SWAP1 PUSH2 0x4788 JUMP JUMPDEST PUSH2 0x2880 JUMP JUMPDEST SWAP1 PUSH2 0x2964 PUSH2 0x2952 SWAP2 PUSH2 0x4788 JUMP JUMPDEST SWAP2 SWAP1 POP PUSH2 0x2949 JUMP JUMPDEST CALLVALUE PUSH2 0x425 JUMPI PUSH1 0x0 CALLDATASIZE PUSH1 0x3 NOT ADD SLT PUSH2 0x425 JUMPI PUSH1 0x20 PUSH1 0xC SLOAD PUSH1 0x40 MLOAD SWAP1 DUP2 MSTORE RETURN JUMPDEST CALLVALUE PUSH2 0x425 JUMPI PUSH1 0x0 CALLDATASIZE PUSH1 0x3 NOT ADD SLT PUSH2 0x425 JUMPI PUSH1 0xC SLOAD PUSH2 0x29A7 DUP2 PUSH2 0x4F8C JUMP JUMPDEST SWAP1 PUSH1 0x1 DUP1 PUSH1 0x0 JUMPDEST DUP4 DUP4 GT ISZERO PUSH2 0x29C4 JUMPI PUSH1 0x40 MLOAD DUP1 PUSH2 0x4C1 DUP8 DUP3 PUSH2 0x45B2 JUMP JUMPDEST PUSH2 0x1209 PUSH2 0x2A39 SWAP2 DUP5 PUSH1 0x0 MSTORE PUSH1 0x5 PUSH1 0xFF PUSH1 0x20 SWAP2 DUP1 DUP4 MSTORE PUSH1 0x40 PUSH1 0x0 KECCAK256 PUSH1 0x40 MLOAD SWAP4 PUSH2 0x29EB DUP6 PUSH2 0x4108 JUMP JUMPDEST DUP2 SLOAD DUP6 MSTORE PUSH2 0x29FA DUP10 DUP4 ADD PUSH2 0x41CC JUMP JUMPDEST SWAP1 DUP6 ADD MSTORE PUSH1 0x2 DUP2 ADD SLOAD PUSH1 0x1 PUSH1 0x1 PUSH1 0xA0 SHL SUB AND PUSH1 0x40 DUP6 ADD MSTORE PUSH1 0x3 DUP2 ADD SLOAD PUSH1 0x60 DUP6 ADD MSTORE PUSH1 0x4 DUP2 ADD SLOAD PUSH1 0x80 DUP6 ADD MSTORE ADD SLOAD AND ISZERO ISZERO PUSH1 0xA0 DUP3 ADD MSTORE PUSH2 0x11F8 DUP3 DUP10 PUSH2 0x4D5A JUMP JUMPDEST SWAP2 PUSH2 0x29AE JUMP JUMPDEST CALLVALUE PUSH2 0x425 JUMPI PUSH1 0x20 CALLDATASIZE PUSH1 0x3 NOT ADD SLT PUSH2 0x425 JUMPI PUSH2 0x2A58 PUSH2 0x4D6E JUMP JUMPDEST POP PUSH1 0x4 CALLDATALOAD PUSH1 0x0 MSTORE PUSH1 0x6 PUSH1 0x20 MSTORE PUSH2 0x4C1 PUSH1 0x40 PUSH1 0x0 KECCAK256 PUSH2 0x2A9F PUSH1 0x4 PUSH1 0x40 MLOAD SWAP3 PUSH2 0x2A7E DUP5 PUSH2 0x4123 JUMP JUMPDEST DUP1 SLOAD DUP5 MSTORE PUSH2 0x2A8E PUSH1 0x1 DUP3 ADD PUSH2 0x41CC JUMP JUMPDEST PUSH1 0x20 DUP6 ADD MSTORE PUSH2 0x234C PUSH1 0x2 DUP3 ADD PUSH2 0x4D9A JUMP JUMPDEST PUSH1 0x80 DUP3 ADD MSTORE PUSH1 0x40 MLOAD SWAP2 DUP3 SWAP2 PUSH1 0x20 DUP4 MSTORE PUSH1 0x20 DUP4 ADD SWAP1 PUSH2 0x4506 JUMP JUMPDEST CALLVALUE PUSH2 0x425 JUMPI PUSH1 0x20 DUP1 PUSH1 0x3 NOT CALLDATASIZE ADD SLT PUSH2 0x425 JUMPI PUSH1 0x4 CALLDATALOAD PUSH2 0x2ADB PUSH1 0xC SLOAD DUP3 GT ISZERO PUSH2 0x4A93 JUMP JUMPDEST PUSH1 0x0 SWAP1 PUSH1 0x1 SWAP3 DUP4 SWAP3 PUSH1 0xF SLOAD SWAP4 JUMPDEST DUP5 DUP2 GT ISZERO PUSH2 0x2BAD JUMPI POP PUSH2 0x2AFA SWAP1 PUSH2 0x4F0A JUMP JUMPDEST SWAP4 PUSH1 0x0 SWAP2 DUP2 JUMPDEST DUP6 DUP2 GT ISZERO PUSH2 0x2B16 JUMPI PUSH1 0x40 MLOAD DUP1 PUSH2 0x4C1 DUP10 DUP3 PUSH2 0x4414 JUMP JUMPDEST DUP1 PUSH1 0x0 MSTORE PUSH1 0x8 DUP1 DUP4 MSTORE PUSH1 0x40 PUSH1 0x0 KECCAK256 PUSH1 0x2 DUP2 ADD SLOAD SWAP2 DUP8 DUP4 EQ PUSH2 0x2B43 JUMPI JUMPDEST POP POP POP PUSH2 0x2B3E SWAP1 PUSH2 0x4788 JUMP JUMPDEST PUSH2 0x2B00 JUMP JUMPDEST SWAP2 PUSH1 0xFF PUSH1 0x9 PUSH2 0x2B3E SWAP6 SWAP9 SWAP4 PUSH2 0x2B89 PUSH2 0x2BA4 SWAP7 PUSH1 0x40 MLOAD SWAP6 PUSH2 0x2B62 DUP8 PUSH2 0x413E JUMP JUMPDEST DUP4 SLOAD DUP8 MSTORE DUP12 DUP5 ADD SLOAD DUP12 DUP9 ADD MSTORE PUSH1 0x40 DUP8 ADD MSTORE PUSH1 0x3 DUP4 ADD SLOAD PUSH1 0x60 DUP8 ADD MSTORE PUSH2 0x119E PUSH1 0x4 DUP5 ADD PUSH2 0x41CC JUMP JUMPDEST PUSH2 0x100 DUP6 ADD MSTORE ADD SLOAD AND ISZERO ISZERO PUSH2 0x120 DUP3 ADD MSTORE PUSH2 0x291E DUP3 DUP12 PUSH2 0x4D5A JUMP JUMPDEST SWAP4 SWAP1 DUP9 DUP1 PUSH2 0x2B32 JUMP JUMPDEST DUP1 PUSH1 0x0 MSTORE PUSH1 0x8 DUP4 MSTORE DUP4 PUSH1 0x2 PUSH1 0x40 PUSH1 0x0 KECCAK256 ADD SLOAD EQ PUSH2 0x2BD3 JUMPI JUMPDEST PUSH2 0x2BCE SWAP1 PUSH2 0x4788 JUMP JUMPDEST PUSH2 0x2AE8 JUMP JUMPDEST SWAP1 PUSH2 0x2BE0 PUSH2 0x2BCE SWAP2 PUSH2 0x4788 JUMP JUMPDEST SWAP2 SWAP1 POP PUSH2 0x2BC5 JUMP JUMPDEST CALLVALUE PUSH2 0x425 JUMPI PUSH1 0x20 CALLDATASIZE PUSH1 0x3 NOT ADD SLT PUSH2 0x425 JUMPI PUSH1 0x4 CALLDATALOAD PUSH1 0x0 MSTORE PUSH1 0x5 PUSH1 0x20 MSTORE PUSH1 0x40 PUSH1 0x0 KECCAK256 DUP1 SLOAD PUSH2 0x2C17 PUSH1 0x1 DUP4 ADD PUSH2 0x41CC JUMP JUMPDEST SWAP2 PUSH1 0x1 DUP1 PUSH1 0xA0 SHL SUB PUSH1 0x2 DUP3 ADD SLOAD AND SWAP1 PUSH1 0x3 DUP2 ADD SLOAD SWAP1 PUSH1 0xFF PUSH1 0x5 PUSH1 0x4 DUP4 ADD SLOAD SWAP3 ADD SLOAD AND SWAP2 PUSH2 0x2C56 PUSH1 0x40 MLOAD SWAP7 DUP8 SWAP7 DUP8 MSTORE PUSH1 0xC0 PUSH1 0x20 DUP9 ADD MSTORE PUSH1 0xC0 DUP8 ADD SWAP1 PUSH2 0x4272 JUMP JUMPDEST SWAP4 PUSH1 0x40 DUP7 ADD MSTORE PUSH1 0x60 DUP6 ADD MSTORE PUSH1 0x80 DUP5 ADD MSTORE ISZERO ISZERO PUSH1 0xA0 DUP4 ADD MSTORE SUB SWAP1 RETURN JUMPDEST CALLVALUE PUSH2 0x425 JUMPI PUSH1 0x20 CALLDATASIZE PUSH1 0x3 NOT ADD SLT PUSH2 0x425 JUMPI PUSH1 0x4 CALLDATALOAD PUSH2 0x2C93 PUSH1 0xD SLOAD DUP3 GT ISZERO PUSH2 0x4B5D JUMP JUMPDEST PUSH1 0x0 MSTORE PUSH1 0x6 PUSH1 0x20 MSTORE PUSH2 0x4C1 PUSH2 0x2CAE PUSH1 0x4 PUSH1 0x40 PUSH1 0x0 KECCAK256 ADD PUSH2 0x4DEF JUMP JUMPDEST PUSH1 0x40 MLOAD SWAP2 DUP3 SWAP2 PUSH1 0x20 DUP4 MSTORE PUSH1 0x20 DUP4 ADD SWAP1 PUSH2 0x4476 JUMP JUMPDEST CALLVALUE PUSH2 0x425 JUMPI PUSH1 0x20 DUP1 PUSH1 0x3 NOT CALLDATASIZE ADD SLT PUSH2 0x425 JUMPI PUSH1 0x4 CALLDATALOAD PUSH2 0x2CE5 PUSH1 0xD SLOAD DUP3 GT ISZERO PUSH2 0x4B5D JUMP JUMPDEST PUSH1 0x0 MSTORE PUSH1 0x3 SWAP1 DUP2 DUP2 MSTORE PUSH1 0x40 PUSH1 0x0 KECCAK256 SWAP2 DUP3 SLOAD PUSH2 0x2CFF DUP2 PUSH2 0x435B JUMP JUMPDEST SWAP2 PUSH2 0x2D0D PUSH1 0x40 MLOAD SWAP4 DUP5 PUSH2 0x41AB JUMP JUMPDEST DUP2 DUP4 MSTORE PUSH1 0x0 SWAP5 DUP6 MSTORE DUP4 DUP6 KECCAK256 DUP5 DUP5 ADD SWAP6 SWAP2 DUP7 JUMPDEST DUP5 DUP5 LT PUSH2 0x2D93 JUMPI PUSH1 0x40 DUP1 MLOAD DUP9 DUP2 MSTORE DUP8 MLOAD DUP2 DUP11 ADD DUP2 SWAP1 MSTORE DUP11 SWAP3 DUP3 ADD SWAP1 DUP11 PUSH1 0x0 JUMPDEST DUP3 DUP2 LT PUSH2 0x2D4B JUMPI DUP5 DUP5 SUB DUP6 RETURN JUMPDEST DUP6 MLOAD DUP1 MLOAD DUP6 MSTORE DUP1 DUP4 ADD MLOAD DUP6 DUP5 ADD MSTORE PUSH1 0x40 DUP1 DUP3 ADD MLOAD SWAP1 DUP7 ADD MSTORE PUSH1 0x60 DUP1 DUP3 ADD MLOAD SWAP1 DUP7 ADD MSTORE PUSH1 0x80 DUP1 DUP3 ADD MLOAD SWAP1 DUP7 ADD MSTORE PUSH1 0xA0 SWAP1 DUP2 ADD MLOAD SWAP1 DUP6 ADD MSTORE SWAP5 DUP2 ADD SWAP5 PUSH1 0xC0 SWAP1 SWAP4 ADD SWAP3 PUSH1 0x1 ADD PUSH2 0x2D3E JUMP JUMPDEST PUSH1 0x6 DUP8 PUSH1 0x1 SWAP3 PUSH1 0x40 MLOAD PUSH2 0x2DA5 DUP2 PUSH2 0x4108 JUMP JUMPDEST DUP7 SLOAD DUP2 MSTORE DUP5 DUP8 ADD SLOAD DUP4 DUP3 ADD MSTORE PUSH1 0x2 DUP8 ADD SLOAD PUSH1 0x40 DUP3 ADD MSTORE DUP6 DUP8 ADD SLOAD PUSH1 0x60 DUP3 ADD MSTORE PUSH1 0x4 DUP8 ADD SLOAD PUSH1 0x80 DUP3 ADD MSTORE PUSH1 0x5 DUP8 ADD SLOAD PUSH1 0xA0 DUP3 ADD MSTORE DUP2 MSTORE ADD SWAP4 ADD SWAP4 ADD SWAP3 SWAP2 PUSH2 0x2D1F JUMP JUMPDEST CALLVALUE PUSH2 0x425 JUMPI PUSH1 0x20 DUP1 PUSH1 0x3 NOT CALLDATASIZE ADD SLT PUSH2 0x425 JUMPI PUSH1 0x4 CALLDATALOAD PUSH1 0x1 DUP1 PUSH1 0xA0 SHL SUB PUSH2 0x2E11 DUP2 PUSH1 0x10 SLOAD AND CALLER EQ PUSH2 0x4731 JUMP JUMPDEST PUSH2 0x2E1F PUSH1 0xC SLOAD DUP4 GT ISZERO PUSH2 0x4A93 JUMP JUMPDEST DUP2 PUSH1 0x0 MSTORE PUSH1 0x5 SWAP1 DUP2 DUP5 MSTORE PUSH1 0xFF DUP3 PUSH1 0x40 PUSH1 0x0 KECCAK256 ADD SLOAD AND PUSH2 0x2F50 JUMPI SWAP1 DUP1 PUSH32 0xFB071D6299BD71490CB62D5CE7358D7D43AB700C9B4A8BFF1F869D2D52C0F117 SWAP5 PUSH2 0x2F24 PUSH1 0xFF SWAP5 DUP7 PUSH1 0x0 MSTORE DUP4 DUP4 MSTORE PUSH2 0x2E88 DUP5 PUSH1 0x40 PUSH1 0x0 KECCAK256 ADD DUP8 DUP2 SLOAD AND ISZERO PUSH1 0xFF DUP1 NOT DUP4 SLOAD AND SWAP2 ISZERO ISZERO AND OR SWAP1 SSTORE JUMP JUMPDEST PUSH2 0x2ED6 PUSH1 0x40 MLOAD PUSH2 0x2E97 DUP2 PUSH2 0x4190 JUMP JUMPDEST PUSH1 0x25 DUP2 MSTORE PUSH32 0x596F75206861766520617070726F76656420446F636F74722072656769737472 DUP6 DUP3 ADD MSTORE PUSH5 0x30BA34B7B7 PUSH1 0xD9 SHL PUSH1 0x40 DUP3 ADD MSTORE PUSH2 0x5B9 PUSH2 0x4AD7 JUMP JUMPDEST DUP7 PUSH1 0x0 MSTORE DUP4 DUP4 MSTORE PUSH1 0x2 PUSH1 0x40 PUSH1 0x0 KECCAK256 ADD SLOAD AND PUSH1 0x40 MLOAD PUSH2 0x2EF3 DUP2 PUSH2 0x415A JUMP JUMPDEST PUSH1 0x1D DUP2 MSTORE PUSH32 0x596F757220726567697374726174696F6E20697320617070726F766564000000 DUP5 DUP3 ADD MSTORE PUSH2 0x63C PUSH2 0x4AD7 JUMP JUMPDEST DUP5 PUSH1 0x0 MSTORE MSTORE PUSH1 0x40 PUSH1 0x0 KECCAK256 ADD SLOAD AND SWAP1 PUSH2 0x7D3 PUSH1 0x40 MLOAD SWAP3 DUP4 SWAP3 DUP4 SWAP1 SWAP3 SWAP2 PUSH1 0x20 SWAP1 PUSH1 0x40 DUP4 ADD SWAP5 DUP4 MSTORE ISZERO ISZERO SWAP2 ADD MSTORE JUMP JUMPDEST PUSH1 0x40 MLOAD PUSH3 0x461BCD PUSH1 0xE5 SHL DUP2 MSTORE PUSH1 0x4 DUP2 ADD DUP6 SWAP1 MSTORE PUSH1 0x1A PUSH1 0x24 DUP3 ADD MSTORE PUSH32 0x446F63746F7220697320616C726561647920617070726F766564000000000000 PUSH1 0x44 DUP3 ADD MSTORE PUSH1 0x64 SWAP1 REVERT JUMPDEST CALLVALUE PUSH2 0x425 JUMPI PUSH1 0x20 DUP1 PUSH1 0x3 NOT CALLDATASIZE ADD SLT PUSH2 0x425 JUMPI PUSH1 0x4 CALLDATALOAD PUSH2 0x2FB8 PUSH1 0xD SLOAD DUP3 GT ISZERO PUSH2 0x4B5D JUMP JUMPDEST PUSH1 0xF SLOAD SWAP1 PUSH1 0x0 PUSH1 0x1 JUMPDEST DUP4 DUP2 GT ISZERO PUSH2 0x3093 JUMPI POP PUSH2 0x2FD3 SWAP1 PUSH2 0x4F0A JUMP JUMPDEST SWAP3 PUSH1 0x0 SWAP1 PUSH1 0x1 JUMPDEST DUP5 DUP2 GT ISZERO PUSH2 0x2FF0 JUMPI PUSH1 0x40 MLOAD DUP1 PUSH2 0x4C1 DUP9 DUP3 PUSH2 0x4414 JUMP JUMPDEST DUP1 PUSH1 0x0 MSTORE PUSH1 0x8 DUP1 DUP4 MSTORE PUSH1 0x40 PUSH1 0x0 KECCAK256 PUSH1 0x1 DUP2 ADD SLOAD SWAP2 DUP7 DUP4 EQ PUSH2 0x301D JUMPI JUMPDEST POP POP POP PUSH2 0x3018 SWAP1 PUSH2 0x4788 JUMP JUMPDEST PUSH2 0x2FDA JUMP JUMPDEST SWAP2 PUSH1 0xFF PUSH1 0x9 PUSH2 0x3018 SWAP6 SWAP8 SWAP4 PUSH2 0x3064 PUSH2 0x308A SWAP7 PUSH1 0x40 MLOAD SWAP6 PUSH2 0x303C DUP8 PUSH2 0x413E JUMP JUMPDEST DUP4 SLOAD DUP8 MSTORE DUP11 DUP8 ADD MSTORE PUSH1 0x2 DUP4 ADD SLOAD PUSH1 0x40 DUP8 ADD MSTORE PUSH1 0x3 DUP4 ADD SLOAD PUSH1 0x60 DUP8 ADD MSTORE PUSH2 0x119E PUSH1 0x4 DUP5 ADD PUSH2 0x41CC JUMP JUMPDEST PUSH2 0x100 DUP6 ADD MSTORE ADD SLOAD AND ISZERO ISZERO PUSH2 0x120 DUP3 ADD MSTORE PUSH2 0x307F DUP3 DUP11 PUSH2 0x4D5A JUMP JUMPDEST MSTORE PUSH2 0x1203 DUP2 DUP10 PUSH2 0x4D5A JUMP JUMPDEST SWAP3 SWAP1 DUP8 DUP1 PUSH2 0x300C JUMP JUMPDEST DUP1 PUSH1 0x0 MSTORE PUSH1 0x8 DUP6 MSTORE DUP3 PUSH1 0x1 PUSH1 0x40 PUSH1 0x0 KECCAK256 ADD SLOAD EQ PUSH2 0x30B9 JUMPI JUMPDEST PUSH2 0x30B4 SWAP1 PUSH2 0x4788 JUMP JUMPDEST PUSH2 0x2FC1 JUMP JUMPDEST SWAP1 PUSH2 0x30C6 PUSH2 0x30B4 SWAP2 PUSH2 0x4788 JUMP JUMPDEST SWAP2 SWAP1 POP PUSH2 0x30AB JUMP JUMPDEST CALLVALUE PUSH2 0x425 JUMPI PUSH1 0x0 CALLDATASIZE PUSH1 0x3 NOT ADD SLT PUSH2 0x425 JUMPI PUSH1 0x20 PUSH1 0x12 SLOAD PUSH1 0x40 MLOAD SWAP1 DUP2 MSTORE RETURN JUMPDEST CALLVALUE PUSH2 0x425 JUMPI PUSH1 0x0 CALLDATASIZE PUSH1 0x3 NOT ADD SLT PUSH2 0x425 JUMPI PUSH1 0x20 PUSH1 0xB SLOAD PUSH1 0x40 MLOAD SWAP1 DUP2 MSTORE RETURN JUMPDEST PUSH1 0x40 CALLDATASIZE PUSH1 0x3 NOT ADD SLT PUSH2 0x425 JUMPI PUSH1 0x1 PUSH1 0x1 PUSH1 0x40 SHL SUB PUSH1 0x4 CALLDATALOAD DUP2 DUP2 GT PUSH2 0x425 JUMPI PUSH2 0x3136 SWAP1 CALLDATASIZE SWAP1 PUSH1 0x4 ADD PUSH2 0x42F8 JUMP JUMPDEST PUSH1 0x24 DUP1 CALLDATALOAD SWAP3 DUP1 DUP5 GT PUSH2 0x425 JUMPI CALLDATASIZE PUSH1 0x23 DUP6 ADD SLT ISZERO PUSH2 0x425 JUMPI DUP4 PUSH1 0x4 ADD CALLDATALOAD SWAP2 PUSH2 0x315C DUP4 PUSH2 0x435B JUMP JUMPDEST SWAP5 PUSH2 0x316A PUSH1 0x40 MLOAD SWAP7 DUP8 PUSH2 0x41AB JUMP JUMPDEST DUP4 DUP7 MSTORE PUSH1 0x20 SWAP4 DUP3 DUP6 DUP9 ADD SWAP2 PUSH1 0x5 SHL DUP4 ADD ADD SWAP2 CALLDATASIZE DUP4 GT PUSH2 0x425 JUMPI DUP4 DUP2 ADD SWAP2 JUMPDEST DUP4 DUP4 LT PUSH2 0x3489 JUMPI POP POP POP POP PUSH2 0x31A0 PUSH1 0x12 SLOAD CALLVALUE EQ PUSH2 0x4A47 JUMP JUMPDEST CALLER PUSH1 0x0 MSTORE PUSH1 0xA DUP4 MSTORE PUSH1 0xFF PUSH1 0x40 PUSH1 0x0 KECCAK256 SLOAD AND PUSH2 0x3446 JUMPI PUSH2 0x31C0 PUSH1 0xD SLOAD PUSH2 0x4788 JUMP JUMPDEST SWAP5 DUP6 PUSH1 0xD SSTORE PUSH1 0x40 MLOAD SWAP2 DUP5 DUP4 ADD DUP4 DUP2 LT DUP6 DUP3 GT OR PUSH2 0x337D JUMPI PUSH1 0x40 MSTORE PUSH1 0x0 DUP4 MSTORE PUSH1 0x40 MLOAD SWAP6 PUSH2 0x31EB DUP8 PUSH2 0x4123 JUMP JUMPDEST DUP8 DUP8 MSTORE DUP6 DUP8 ADD SWAP1 DUP2 MSTORE PUSH1 0x40 DUP8 ADD SWAP3 DUP4 MSTORE PUSH1 0x60 DUP8 ADD SWAP8 CALLER DUP10 MSTORE PUSH1 0x80 DUP9 ADD SWAP5 DUP6 MSTORE PUSH1 0x0 MSTORE PUSH1 0x6 DUP7 MSTORE PUSH1 0x40 PUSH1 0x0 KECCAK256 SWAP7 MLOAD DUP8 SSTORE MLOAD SWAP6 PUSH2 0x322A PUSH1 0x1 SWAP8 DUP9 DUP4 ADD PUSH2 0x47AE JUMP JUMPDEST SWAP2 MLOAD DUP1 MLOAD PUSH1 0x1 PUSH1 0x40 SHL SWAP4 SWAP2 PUSH1 0x2 DUP4 ADD SWAP1 DUP6 DUP4 GT PUSH2 0x3431 JUMPI DUP9 SWAP1 DUP3 SLOAD DUP5 DUP5 SSTORE DUP1 DUP6 LT PUSH2 0x33AF JUMPI JUMPDEST POP ADD SWAP1 PUSH1 0x0 MSTORE DUP8 PUSH1 0x0 KECCAK256 DUP10 DUP10 PUSH1 0x0 SWAP4 JUMPDEST DUP6 DUP6 LT PUSH2 0x3392 JUMPI POP POP POP POP POP POP DUP1 PUSH1 0x3 PUSH1 0x4 SWAP3 ADD PUSH1 0x1 DUP1 PUSH1 0xA0 SHL SUB DUP1 SWAP11 MLOAD AND PUSH1 0x1 DUP1 PUSH1 0xA0 SHL SUB NOT DUP3 SLOAD AND OR SWAP1 SSTORE ADD SWAP3 MLOAD SWAP2 DUP3 MLOAD SWAP5 DUP6 GT PUSH2 0x337D JUMPI DUP5 GT PUSH2 0x3369 JUMPI POP DUP4 SWAP1 DUP3 SLOAD DUP5 DUP5 SSTORE DUP1 DUP6 LT PUSH2 0x334C JUMPI JUMPDEST POP ADD SWAP1 PUSH1 0x0 MSTORE DUP3 PUSH1 0x0 KECCAK256 PUSH1 0x0 JUMPDEST DUP4 DUP2 LT PUSH2 0x333B JUMPI PUSH1 0x0 DUP1 DUP1 DUP1 DUP11 DUP11 PUSH1 0xA DUP12 CALLER DUP6 MSTORE MSTORE PUSH1 0x40 DUP4 KECCAK256 SWAP1 PUSH1 0xFF NOT DUP3 SLOAD AND OR SWAP1 SSTORE PUSH1 0x10 SLOAD AND DUP2 SWAP1 CALLVALUE ISZERO PUSH2 0x3331 JUMPI JUMPDEST CALLVALUE SWAP2 CALL ISZERO PUSH2 0x1052 JUMPI PUSH1 0xD SLOAD PUSH1 0x40 DUP1 MLOAD SWAP2 DUP3 MSTORE CALLER PUSH1 0x20 DUP4 ADD MSTORE PUSH32 0x5D15CCD14DF016B6E249336C7A4BB971599B3BF46CBAA924C7FE6FFADCD87B2D SWAP2 SWAP1 DUP2 SWAP1 DUP2 ADD PUSH2 0x7D3 JUMP JUMPDEST PUSH2 0x8FC SWAP2 POP PUSH2 0x32ED JUMP JUMPDEST DUP3 MLOAD DUP3 DUP3 ADD SSTORE SWAP2 DUP5 ADD SWAP2 DUP6 ADD PUSH2 0x32BD JUMP JUMPDEST PUSH2 0x3363 SWAP1 DUP5 PUSH1 0x0 MSTORE DUP6 DUP5 PUSH1 0x0 KECCAK256 SWAP2 DUP3 ADD SWAP2 ADD PUSH2 0x4797 JUMP JUMPDEST DUP8 PUSH2 0x32B0 JUMP JUMPDEST PUSH4 0x4E487B71 PUSH1 0xE0 SHL PUSH1 0x0 SWAP1 DUP2 MSTORE PUSH1 0x41 PUSH1 0x4 MSTORE REVERT JUMPDEST POP PUSH4 0x4E487B71 PUSH1 0xE0 SHL PUSH1 0x0 SWAP1 DUP2 MSTORE PUSH1 0x41 PUSH1 0x4 MSTORE REVERT JUMPDEST SWAP1 DUP2 PUSH2 0x33A0 DUP5 SWAP4 MLOAD DUP7 PUSH2 0x47AE JUMP JUMPDEST ADD SWAP3 ADD SWAP3 ADD SWAP2 SWAP1 DUP10 DUP12 SWAP2 PUSH2 0x3260 JUMP JUMPDEST DUP4 PUSH1 0x0 MSTORE DUP3 PUSH1 0x0 KECCAK256 SWAP1 DUP13 DUP7 DUP4 ADD JUMPDEST DUP3 DUP5 ADD DUP2 LT PUSH2 0x33CE JUMPI POP POP POP PUSH2 0x3250 JUMP JUMPDEST SWAP1 SWAP2 SWAP3 SWAP4 SWAP5 PUSH2 0x33DD DUP3 SLOAD PUSH2 0x40CE JUMP JUMPDEST DUP1 PUSH2 0x33F1 JUMPI JUMPDEST POP POP ADD SWAP1 DUP13 DUP13 SWAP5 SWAP4 SWAP3 PUSH2 0x33BD JUMP JUMPDEST PUSH1 0x1F SWAP2 DUP3 DUP3 GT PUSH1 0x1 EQ PUSH2 0x340D JUMPI POP POP POP PUSH1 0x0 DUP2 SSTORE JUMPDEST DUP13 CODESIZE PUSH2 0x33E3 JUMP JUMPDEST PUSH1 0x0 SWAP3 PUSH2 0x3428 SWAP2 DUP6 DUP6 MSTORE DUP5 KECCAK256 SWAP3 ADD PUSH1 0x5 SHR DUP3 ADD DUP6 DUP4 ADD PUSH2 0x4797 JUMP JUMPDEST DUP2 DUP4 SSTORE SSTORE PUSH2 0x3406 JUMP JUMPDEST DUP5 PUSH4 0x4E487B71 PUSH1 0xE0 SHL PUSH1 0x0 MSTORE PUSH1 0x41 PUSH1 0x4 MSTORE PUSH1 0x0 REVERT JUMPDEST DUP3 PUSH1 0x1D PUSH1 0x64 SWAP3 PUSH1 0x40 MLOAD SWAP3 PUSH3 0x461BCD PUSH1 0xE5 SHL DUP5 MSTORE PUSH1 0x4 DUP5 ADD MSTORE DUP3 ADD MSTORE PUSH32 0x50617469656E7420697320616C72656164792072656769737465726564000000 PUSH1 0x44 DUP3 ADD MSTORE REVERT JUMPDEST DUP3 CALLDATALOAD DUP7 DUP2 GT PUSH2 0x425 JUMPI DUP8 SWAP2 PUSH2 0x34A4 DUP4 SWAP3 DUP9 CALLDATASIZE SWAP2 DUP8 ADD ADD PUSH2 0x42F8 JUMP JUMPDEST DUP2 MSTORE ADD SWAP3 ADD SWAP2 PUSH2 0x3188 JUMP JUMPDEST CALLVALUE PUSH2 0x425 JUMPI PUSH1 0x20 CALLDATASIZE PUSH1 0x3 NOT ADD SLT PUSH2 0x425 JUMPI PUSH1 0x1 PUSH1 0x1 PUSH1 0xA0 SHL SUB PUSH2 0x34D0 PUSH2 0x40A2 JUMP JUMPDEST AND PUSH1 0x0 MSTORE PUSH1 0x9 PUSH1 0x20 MSTORE PUSH1 0x20 PUSH1 0xFF PUSH1 0x40 PUSH1 0x0 KECCAK256 SLOAD AND PUSH1 0x40 MLOAD SWAP1 ISZERO ISZERO DUP2 MSTORE RETURN JUMPDEST CALLVALUE PUSH2 0x425 JUMPI PUSH32 0x72C1DAF6E13CE6CA90B14E03629096AD6D0DB94B6CFFDCE97E62CF5008AB1FD4 PUSH1 0x40 PUSH2 0x351F CALLDATASIZE PUSH2 0x4316 JUMP JUMPDEST PUSH2 0x3534 PUSH1 0x1 DUP1 PUSH1 0xA0 SHL SUB PUSH1 0x10 SLOAD AND CALLER EQ PUSH2 0x4731 JUMP JUMPDEST PUSH2 0x3542 PUSH1 0xB SLOAD DUP4 GT ISZERO PUSH2 0x4A01 JUMP JUMPDEST DUP2 PUSH1 0x0 MSTORE PUSH1 0x4 PUSH1 0x20 MSTORE DUP1 PUSH1 0x2 DUP5 PUSH1 0x0 KECCAK256 ADD SSTORE PUSH2 0x189A DUP4 MLOAD PUSH2 0x3562 DUP2 PUSH2 0x4190 JUMP JUMPDEST PUSH1 0x23 DUP2 MSTORE PUSH32 0x4D65646963696E65207072696365207570646174656420737563636573736675 PUSH1 0x20 DUP3 ADD MSTORE PUSH3 0x6C6C79 PUSH1 0xE8 SHL DUP6 DUP3 ADD MSTORE PUSH2 0x5B9 PUSH2 0x48B2 JUMP JUMPDEST CALLVALUE PUSH2 0x425 JUMPI PUSH2 0x696 PUSH2 0x35B0 CALLDATASIZE PUSH2 0x4316 JUMP JUMPDEST CALLER PUSH1 0x0 MSTORE PUSH32 0x90D667BFA211B72F96ED398BBCFAE5988D97E3A4C929A0F5D46888F6899D77A0 DUP2 PUSH1 0x20 SWAP4 PUSH1 0x9 DUP6 MSTORE PUSH2 0x35EE PUSH1 0xFF PUSH1 0x40 PUSH1 0x0 KECCAK256 SLOAD AND PUSH2 0x4AF9 JUMP JUMPDEST PUSH2 0x35F7 CALLER PUSH2 0x4FDC JUMP JUMPDEST PUSH1 0x0 MSTORE PUSH1 0x5 DUP6 MSTORE PUSH2 0x3612 PUSH1 0xFF PUSH1 0x5 PUSH1 0x40 PUSH1 0x0 KECCAK256 ADD SLOAD AND PUSH2 0x4C49 JUMP JUMPDEST PUSH2 0x361D PUSH1 0xE SLOAD PUSH2 0x4788 JUMP JUMPDEST DUP1 PUSH1 0xE SSTORE PUSH1 0x4 PUSH2 0x362C CALLER PUSH2 0x4FDC JUMP JUMPDEST SWAP2 PUSH1 0x40 MLOAD SWAP3 PUSH2 0x363A DUP5 PUSH2 0x4123 JUMP JUMPDEST DUP2 DUP5 MSTORE DUP9 DUP5 ADD DUP6 DUP2 MSTORE PUSH1 0x40 DUP6 ADD SWAP1 DUP8 DUP3 MSTORE PUSH1 0x60 DUP7 ADD SWAP3 DUP4 MSTORE PUSH1 0x80 DUP7 ADD SWAP4 TIMESTAMP DUP6 MSTORE PUSH1 0x0 MSTORE PUSH1 0x7 DUP12 MSTORE PUSH1 0x40 PUSH1 0x0 KECCAK256 SWAP6 MLOAD DUP7 SSTORE MLOAD PUSH1 0x1 DUP7 ADD SSTORE MLOAD PUSH1 0x2 DUP6 ADD SSTORE MLOAD PUSH1 0x3 DUP5 ADD SSTORE MLOAD SWAP2 ADD SSTORE PUSH2 0x36BC PUSH1 0xE SLOAD PUSH2 0x368F CALLER PUSH2 0x4FDC JUMP JUMPDEST PUSH1 0x40 MLOAD SWAP5 DUP6 SWAP5 TIMESTAMP SWAP4 DUP7 SWAP2 SWAP3 PUSH1 0x80 SWAP4 SWAP7 SWAP6 SWAP5 SWAP2 SWAP7 PUSH1 0xA0 DUP5 ADD SWAP8 DUP5 MSTORE PUSH1 0x20 DUP5 ADD MSTORE PUSH1 0x40 DUP4 ADD MSTORE PUSH1 0x60 DUP3 ADD MSTORE ADD MSTORE JUMP JUMPDEST SUB SWAP1 LOG1 PUSH2 0x3711 PUSH1 0x40 MLOAD PUSH2 0x36CE DUP2 PUSH2 0x4190 JUMP JUMPDEST PUSH1 0x29 DUP2 MSTORE PUSH32 0x596F752068617665207375636365737366756C6C792070726573637269626564 DUP5 DUP3 ADD MSTORE PUSH9 0x206D65646963696E65 PUSH1 0xB8 SHL PUSH1 0x40 DUP3 ADD MSTORE PUSH2 0x5B9 PUSH2 0x4AD7 JUMP JUMPDEST PUSH1 0x0 MSTORE PUSH1 0x6 DUP2 MSTORE PUSH1 0x1 DUP1 PUSH1 0xA0 SHL SUB PUSH2 0x376A DUP2 PUSH1 0x3 PUSH1 0x40 PUSH1 0x0 KECCAK256 ADD SLOAD AND PUSH1 0x40 MLOAD PUSH2 0x3739 DUP2 PUSH2 0x415A JUMP JUMPDEST PUSH1 0x1E DUP2 MSTORE PUSH32 0x446F63746F72207072657363726962656420796F75206D65646963696E650000 DUP6 DUP3 ADD MSTORE PUSH2 0x63C PUSH2 0x4AD7 JUMP JUMPDEST PUSH1 0x10 SLOAD AND SWAP1 PUSH32 0x446F63746F722070726573637269626564206D65646963696E65207375636365 PUSH1 0x40 MLOAD SWAP2 PUSH2 0x379D DUP4 PUSH2 0x4190 JUMP JUMPDEST PUSH1 0x27 DUP4 MSTORE DUP3 ADD MSTORE PUSH7 0x737366756C6C79 PUSH1 0xC8 SHL PUSH1 0x40 DUP3 ADD MSTORE PUSH2 0x63C PUSH2 0x4AD7 JUMP JUMPDEST CALLVALUE PUSH2 0x425 JUMPI PUSH2 0x696 PUSH2 0x37CD CALLDATASIZE PUSH2 0x432C JUMP JUMPDEST SWAP1 CALLER PUSH1 0x0 MSTORE PUSH2 0x3810 PUSH1 0x20 SWAP3 PUSH1 0x9 DUP5 MSTORE PUSH2 0x37ED PUSH1 0xFF PUSH1 0x40 PUSH1 0x0 KECCAK256 SLOAD AND PUSH2 0x4AF9 JUMP JUMPDEST PUSH2 0x37FB PUSH1 0xD SLOAD DUP5 GT ISZERO PUSH2 0x4B5D JUMP JUMPDEST DUP3 PUSH1 0x0 MSTORE PUSH1 0x6 DUP5 MSTORE PUSH1 0x2 PUSH1 0x40 PUSH1 0x0 KECCAK256 ADD PUSH2 0x4BBA JUMP JUMPDEST PUSH2 0x386E PUSH1 0x40 MLOAD PUSH2 0x381F DUP2 PUSH2 0x4190 JUMP JUMPDEST PUSH1 0x35 DUP2 MSTORE PUSH32 0x596F752068617665207375636365737366756C6C79207570646174652C207061 DUP5 DUP3 ADD MSTORE PUSH21 0x7469656E74206D65646963616C20686973746F7279 PUSH1 0x58 SHL PUSH1 0x40 DUP3 ADD MSTORE PUSH2 0x5B9 PUSH2 0x4AD7 JUMP JUMPDEST PUSH1 0x0 MSTORE PUSH1 0x6 DUP2 MSTORE PUSH2 0x38D5 PUSH1 0x1 DUP1 PUSH1 0xA0 SHL SUB PUSH1 0x3 PUSH1 0x40 PUSH1 0x0 KECCAK256 ADD SLOAD AND PUSH1 0x40 MLOAD PUSH2 0x3895 DUP2 PUSH2 0x4190 JUMP JUMPDEST PUSH1 0x26 DUP2 MSTORE PUSH32 0x596F7572206D65646963616C20686973746F7279207570646174656420627920 DUP5 DUP3 ADD MSTORE PUSH6 0x3237B1BA37B9 PUSH1 0xD1 SHL PUSH1 0x40 DUP3 ADD MSTORE PUSH2 0x63C PUSH2 0x4AD7 JUMP JUMPDEST PUSH32 0x50617469656E74206D6564696369616C20686973746F72792069732075706461 PUSH1 0x40 MLOAD SWAP2 PUSH2 0x3903 DUP4 PUSH2 0x4190 JUMP JUMPDEST PUSH1 0x23 DUP4 MSTORE DUP3 ADD MSTORE PUSH3 0x1D1959 PUSH1 0xEA SHL PUSH1 0x40 DUP3 ADD MSTORE PUSH2 0x5B9 PUSH2 0x4AD7 JUMP JUMPDEST CALLVALUE PUSH2 0x425 JUMPI PUSH1 0x20 CALLDATASIZE PUSH1 0x3 NOT ADD SLT PUSH2 0x425 JUMPI PUSH1 0x4 CALLDATALOAD PUSH1 0x0 MSTORE PUSH1 0x7 PUSH1 0x20 MSTORE PUSH1 0x40 PUSH1 0x0 KECCAK256 DUP1 SLOAD PUSH2 0x4C1 PUSH1 0x1 DUP4 ADD SLOAD SWAP3 PUSH1 0x2 DUP2 ADD SLOAD SWAP1 PUSH1 0x4 PUSH1 0x3 DUP3 ADD SLOAD SWAP2 ADD SLOAD SWAP2 PUSH1 0x40 MLOAD SWAP6 DUP7 SWAP6 DUP7 SWAP2 SWAP3 PUSH1 0x80 SWAP4 SWAP7 SWAP6 SWAP5 SWAP2 SWAP7 PUSH1 0xA0 DUP5 ADD SWAP8 DUP5 MSTORE PUSH1 0x20 DUP5 ADD MSTORE PUSH1 0x40 DUP4 ADD MSTORE PUSH1 0x60 DUP3 ADD MSTORE ADD MSTORE JUMP JUMPDEST CALLVALUE PUSH2 0x425 JUMPI PUSH32 0x1E689CD9AC52751E42953A5ACD30B7EAC0CC9804EC5C814B2CB6BFF6E8AB852B PUSH1 0x40 PUSH2 0x39B7 CALLDATASIZE PUSH2 0x4316 JUMP JUMPDEST PUSH2 0x39CC PUSH1 0x1 DUP1 PUSH1 0xA0 SHL SUB PUSH1 0x10 SLOAD AND CALLER EQ PUSH2 0x4731 JUMP JUMPDEST PUSH2 0x39DA PUSH1 0xB SLOAD DUP4 GT ISZERO PUSH2 0x4A01 JUMP JUMPDEST DUP2 PUSH1 0x0 MSTORE PUSH1 0x4 PUSH1 0x20 MSTORE DUP1 PUSH1 0x3 DUP5 PUSH1 0x0 KECCAK256 ADD SSTORE PUSH2 0x189A DUP4 MLOAD PUSH2 0x39FA DUP2 PUSH2 0x4190 JUMP JUMPDEST PUSH1 0x26 DUP2 MSTORE PUSH32 0x4D65646963696E65207175616E74697479207570646174656420737563636573 PUSH1 0x20 DUP3 ADD MSTORE PUSH6 0x7366756C6C79 PUSH1 0xD0 SHL DUP6 DUP3 ADD MSTORE PUSH2 0x5B9 PUSH2 0x48B2 JUMP JUMPDEST CALLVALUE PUSH2 0x425 JUMPI PUSH1 0x20 DUP1 PUSH1 0x3 NOT CALLDATASIZE ADD SLT PUSH2 0x425 JUMPI PUSH1 0x1 PUSH1 0x1 PUSH1 0xA0 SHL SUB SWAP1 DUP2 PUSH2 0x3A5E PUSH2 0x40A2 JUMP JUMPDEST AND PUSH1 0x0 MSTORE PUSH1 0x2 SWAP1 DUP2 DUP2 MSTORE PUSH1 0x40 PUSH1 0x0 KECCAK256 SWAP1 DUP2 SLOAD PUSH2 0x3A79 DUP2 PUSH2 0x435B JUMP JUMPDEST SWAP4 PUSH2 0x3A87 PUSH1 0x40 MLOAD SWAP6 DUP7 PUSH2 0x41AB JUMP JUMPDEST DUP2 DUP6 MSTORE PUSH1 0x0 SWAP4 DUP5 MSTORE DUP3 DUP5 KECCAK256 DUP4 DUP7 ADD SWAP5 SWAP2 DUP6 JUMPDEST DUP5 DUP5 LT PUSH2 0x3B41 JUMPI POP POP POP POP POP PUSH1 0x40 MLOAD SWAP3 DUP2 DUP5 ADD SWAP1 DUP3 DUP6 MSTORE MLOAD DUP1 SWAP2 MSTORE PUSH1 0x40 DUP5 ADD SWAP2 PUSH1 0x40 DUP3 PUSH1 0x5 SHL DUP7 ADD ADD SWAP4 SWAP3 PUSH1 0x0 SWAP7 JUMPDEST DUP4 DUP9 LT PUSH2 0x3AD5 JUMPI DUP7 DUP7 SUB DUP8 RETURN JUMPDEST SWAP1 SWAP2 SWAP3 SWAP4 SWAP5 DUP4 DUP1 PUSH2 0x3B30 PUSH1 0x1 SWAP4 PUSH1 0x3F NOT DUP12 DUP3 SUB ADD DUP8 MSTORE DUP10 MLOAD DUP1 MLOAD DUP3 MSTORE DUP7 DUP5 DUP3 ADD MLOAD AND DUP5 DUP4 ADD MSTORE PUSH2 0x3B13 PUSH1 0x40 DUP3 ADD MLOAD PUSH1 0xA0 DUP1 PUSH1 0x40 DUP7 ADD MSTORE DUP5 ADD SWAP1 PUSH2 0x4272 JUMP JUMPDEST SWAP2 PUSH1 0x60 DUP1 DUP4 ADD MLOAD SWAP1 DUP3 ADD MSTORE PUSH1 0x80 DUP1 SWAP3 ADD MLOAD SWAP2 DUP2 DUP5 SUB SWAP2 ADD MSTORE PUSH2 0x4272 JUMP JUMPDEST SWAP8 ADD SWAP4 ADD SWAP8 ADD SWAP7 SWAP1 SWAP4 SWAP3 SWAP2 SWAP4 PUSH2 0x3AC8 JUMP JUMPDEST PUSH1 0x5 DUP7 PUSH1 0x1 SWAP3 PUSH1 0x40 SWAP11 SWAP9 SWAP11 MLOAD PUSH2 0x3B56 DUP2 PUSH2 0x4123 JUMP JUMPDEST DUP7 SLOAD DUP2 MSTORE DUP13 DUP6 DUP9 ADD SLOAD AND DUP4 DUP3 ADD MSTORE PUSH2 0x3B6F DUP7 DUP9 ADD PUSH2 0x41CC JUMP JUMPDEST PUSH1 0x40 DUP3 ADD MSTORE PUSH1 0x3 DUP8 ADD SLOAD PUSH1 0x60 DUP3 ADD MSTORE PUSH2 0x3B8A PUSH1 0x4 DUP9 ADD PUSH2 0x41CC JUMP JUMPDEST PUSH1 0x80 DUP3 ADD MSTORE DUP2 MSTORE ADD SWAP4 ADD SWAP4 ADD SWAP3 SWAP2 SWAP7 SWAP5 SWAP7 PUSH2 0x3A99 JUMP JUMPDEST CALLVALUE PUSH2 0x425 JUMPI PUSH1 0x60 CALLDATASIZE PUSH1 0x3 NOT ADD SLT PUSH2 0x425 JUMPI PUSH1 0x1 PUSH1 0x1 PUSH1 0x40 SHL SUB PUSH1 0x4 CALLDATALOAD PUSH1 0x24 CALLDATALOAD DUP3 DUP2 GT PUSH2 0x425 JUMPI PUSH2 0x3BD4 SWAP1 CALLDATASIZE SWAP1 PUSH1 0x4 ADD PUSH2 0x42F8 JUMP JUMPDEST SWAP1 PUSH1 0x44 CALLDATALOAD SWAP3 DUP4 GT PUSH2 0x425 JUMPI PUSH2 0x3BF0 PUSH2 0x696 SWAP4 CALLDATASIZE SWAP1 PUSH1 0x4 ADD PUSH2 0x42F8 JUMP JUMPDEST POP PUSH2 0x3BFF PUSH1 0xD SLOAD DUP3 GT ISZERO PUSH2 0x4B5D JUMP JUMPDEST CALLER PUSH1 0x0 MSTORE PUSH1 0x9 PUSH1 0x20 MSTORE PUSH1 0xFF PUSH1 0x40 PUSH1 0x0 KECCAK256 SLOAD AND DUP1 ISZERO PUSH2 0x3C36 JUMPI JUMPDEST PUSH2 0x3C21 SWAP1 PUSH2 0x53C9 JUMP JUMPDEST PUSH1 0x0 MSTORE PUSH1 0x6 PUSH1 0x20 MSTORE PUSH1 0x2 PUSH1 0x40 PUSH1 0x0 KECCAK256 ADD PUSH2 0x4BBA JUMP JUMPDEST POP PUSH1 0x0 DUP2 DUP2 MSTORE PUSH1 0x6 PUSH1 0x20 MSTORE PUSH1 0x40 SWAP1 KECCAK256 PUSH1 0x3 ADD SLOAD PUSH1 0x1 PUSH1 0x1 PUSH1 0xA0 SHL SUB AND CALLER EQ PUSH2 0x3C18 JUMP JUMPDEST CALLVALUE PUSH2 0x425 JUMPI PUSH1 0x20 CALLDATASIZE PUSH1 0x3 NOT ADD SLT PUSH2 0x425 JUMPI PUSH1 0x20 PUSH2 0x3C7C PUSH2 0x3C77 PUSH2 0x40A2 JUMP JUMPDEST PUSH2 0x508E JUMP JUMPDEST PUSH1 0x40 MLOAD SWAP1 ISZERO ISZERO DUP2 MSTORE RETURN JUMPDEST PUSH1 0x20 DUP1 PUSH1 0x3 NOT CALLDATASIZE ADD SLT PUSH2 0x425 JUMPI PUSH1 0x4 CALLDATALOAD PUSH1 0x1 PUSH1 0x1 PUSH1 0x40 SHL SUB DUP2 GT PUSH2 0x425 JUMPI PUSH2 0x3CB2 SWAP1 CALLDATASIZE SWAP1 PUSH1 0x4 ADD PUSH2 0x42F8 JUMP JUMPDEST SWAP1 PUSH2 0x3CC0 PUSH1 0x11 SLOAD CALLVALUE EQ PUSH2 0x4A47 JUMP JUMPDEST CALLER PUSH1 0x0 MSTORE PUSH1 0x9 DUP2 MSTORE PUSH1 0xFF PUSH1 0x40 PUSH1 0x0 KECCAK256 SLOAD AND PUSH2 0x3DF5 JUMPI PUSH1 0x0 DUP1 DUP1 SWAP4 PUSH1 0x9 DUP3 SWAP5 PUSH2 0x3D87 PUSH2 0x3CEC PUSH1 0xC SLOAD PUSH2 0x4788 JUMP JUMPDEST DUP1 PUSH1 0xC SSTORE PUSH1 0x5 PUSH1 0x40 MLOAD SWAP2 PUSH2 0x3CFF DUP4 PUSH2 0x4108 JUMP JUMPDEST DUP1 DUP4 MSTORE DUP5 DUP4 ADD SWAP7 DUP8 MSTORE PUSH1 0x40 DUP4 ADD SWAP7 CALLER DUP9 MSTORE PUSH1 0x60 DUP5 ADD DUP10 DUP2 MSTORE PUSH2 0x3D41 PUSH1 0x80 DUP7 ADD SWAP3 DUP12 DUP5 MSTORE PUSH1 0xA0 DUP8 ADD SWAP5 DUP13 DUP7 MSTORE DUP13 MSTORE DUP6 DUP10 MSTORE PUSH1 0x40 DUP13 KECCAK256 SWAP7 MLOAD DUP8 SSTORE MLOAD PUSH1 0x1 DUP8 ADD PUSH2 0x47AE JUMP JUMPDEST SWAP8 MLOAD PUSH1 0x2 DUP6 ADD DUP1 SLOAD PUSH1 0x1 PUSH1 0x1 PUSH1 0xA0 SHL SUB SWAP3 DUP4 AND PUSH1 0x1 PUSH1 0x1 PUSH1 0xA0 SHL SUB NOT SWAP1 SWAP2 AND OR SWAP1 SSTORE SWAP8 MLOAD PUSH1 0x3 DUP6 ADD SSTORE MLOAD PUSH1 0x4 DUP5 ADD SSTORE MLOAD SWAP2 ADD DUP1 SLOAD PUSH1 0xFF NOT AND SWAP2 ISZERO ISZERO PUSH1 0xFF AND SWAP2 SWAP1 SWAP2 OR SWAP1 SSTORE JUMP JUMPDEST CALLER DUP5 MSTORE MSTORE PUSH1 0x40 DUP3 KECCAK256 DUP1 SLOAD PUSH1 0xFF NOT AND PUSH1 0x1 OR SWAP1 SSTORE PUSH1 0x10 SLOAD DUP3 SWAP2 AND CALLVALUE ISZERO PUSH2 0x3DEB JUMPI JUMPDEST CALLVALUE SWAP2 CALL ISZERO PUSH2 0x1052 JUMPI PUSH1 0xC SLOAD PUSH1 0x40 DUP1 MLOAD SWAP2 DUP3 MSTORE CALLER PUSH1 0x20 DUP4 ADD MSTORE PUSH32 0xDBB5721B905019EAEF363A42E3A802936975F37211A4E965D7A8B00EEA9EF3EC SWAP2 SWAP1 DUP2 SWAP1 DUP2 ADD PUSH2 0x7D3 JUMP JUMPDEST PUSH2 0x8FC SWAP2 POP PUSH2 0x3DA7 JUMP JUMPDEST PUSH1 0x64 SWAP1 PUSH1 0x40 MLOAD SWAP1 PUSH3 0x461BCD PUSH1 0xE5 SHL DUP3 MSTORE PUSH1 0x4 DUP3 ADD MSTORE PUSH1 0x1C PUSH1 0x24 DUP3 ADD MSTORE PUSH32 0x446F63746F7220697320616C7265616479207265676973746572656400000000 PUSH1 0x44 DUP3 ADD MSTORE REVERT JUMPDEST CALLVALUE PUSH2 0x425 JUMPI PUSH1 0x20 CALLDATASIZE PUSH1 0x3 NOT ADD SLT PUSH2 0x425 JUMPI PUSH1 0x4 CALLDATALOAD PUSH1 0x0 MSTORE PUSH1 0x8 PUSH1 0x20 MSTORE PUSH1 0x40 PUSH1 0x0 KECCAK256 DUP1 SLOAD PUSH1 0x1 DUP3 ADD SLOAD SWAP2 PUSH1 0x2 DUP2 ADD SLOAD SWAP1 PUSH1 0x3 DUP2 ADD SLOAD PUSH1 0x4 DUP3 ADD PUSH2 0x3E7A SWAP1 PUSH2 0x41CC JUMP JUMPDEST PUSH2 0x3E86 PUSH1 0x5 DUP5 ADD PUSH2 0x41CC JUMP JUMPDEST PUSH2 0x3E92 PUSH1 0x6 DUP6 ADD PUSH2 0x41CC JUMP JUMPDEST SWAP2 PUSH2 0x3E9F PUSH1 0x7 DUP7 ADD PUSH2 0x41CC JUMP JUMPDEST SWAP4 PUSH2 0x3EAC PUSH1 0x8 DUP8 ADD PUSH2 0x41CC JUMP JUMPDEST SWAP6 PUSH1 0x9 ADD SLOAD PUSH1 0xFF AND SWAP7 PUSH1 0x40 MLOAD SWAP10 DUP11 SWAP10 DUP11 MSTORE PUSH1 0x20 DUP11 ADD MSTORE PUSH1 0x40 DUP10 ADD MSTORE PUSH1 0x60 DUP9 ADD MSTORE PUSH2 0x140 DUP1 PUSH1 0x80 DUP10 ADD MSTORE DUP8 ADD PUSH2 0x3EE0 SWAP2 PUSH2 0x4272 JUMP JUMPDEST DUP7 DUP2 SUB PUSH1 0xA0 DUP9 ADD MSTORE PUSH2 0x3EF1 SWAP2 PUSH2 0x4272 JUMP JUMPDEST DUP6 DUP2 SUB PUSH1 0xC0 DUP8 ADD MSTORE PUSH2 0x3F02 SWAP2 PUSH2 0x4272 JUMP JUMPDEST DUP5 DUP2 SUB PUSH1 0xE0 DUP7 ADD MSTORE PUSH2 0x3F13 SWAP2 PUSH2 0x4272 JUMP JUMPDEST DUP4 DUP2 SUB PUSH2 0x100 DUP6 ADD MSTORE PUSH2 0x3F25 SWAP2 PUSH2 0x4272 JUMP JUMPDEST SWAP1 ISZERO ISZERO PUSH2 0x120 DUP4 ADD MSTORE SUB SWAP1 RETURN JUMPDEST CALLVALUE PUSH2 0x425 JUMPI PUSH1 0x20 CALLDATASIZE PUSH1 0x3 NOT ADD SLT PUSH2 0x425 JUMPI PUSH1 0x20 PUSH2 0x3F55 PUSH2 0x3F50 PUSH2 0x40A2 JUMP JUMPDEST PUSH2 0x4FDC JUMP JUMPDEST PUSH1 0x40 MLOAD SWAP1 DUP2 MSTORE RETURN JUMPDEST CALLVALUE PUSH2 0x425 JUMPI PUSH1 0x20 CALLDATASIZE PUSH1 0x3 NOT ADD SLT PUSH2 0x425 JUMPI PUSH1 0x20 PUSH2 0x3F55 PUSH2 0x3F7B PUSH2 0x40A2 JUMP JUMPDEST PUSH2 0x4E3E JUMP JUMPDEST CALLVALUE PUSH2 0x425 JUMPI PUSH1 0x20 CALLDATASIZE PUSH1 0x3 NOT ADD SLT PUSH2 0x425 JUMPI PUSH1 0x10 SLOAD PUSH2 0x696 SWAP1 PUSH1 0x1 PUSH1 0x1 PUSH1 0xA0 SHL SUB AND PUSH2 0x3FAC CALLER DUP3 EQ PUSH2 0x4731 JUMP JUMPDEST PUSH1 0x4 CALLDATALOAD PUSH1 0x13 SSTORE PUSH1 0x40 MLOAD PUSH2 0x3FBE DUP2 PUSH2 0x4190 JUMP JUMPDEST PUSH1 0x2D DUP2 MSTORE PUSH32 0x596F752068617665207375636365737366756C6C792075706461746564204170 PUSH1 0x20 DUP3 ADD MSTORE PUSH13 0x706F696E746D656E7420666565 PUSH1 0x98 SHL PUSH1 0x40 DUP3 ADD MSTORE PUSH2 0x63C PUSH2 0x4CBE JUMP JUMPDEST CALLVALUE PUSH2 0x425 JUMPI PUSH1 0x20 CALLDATASIZE PUSH1 0x3 NOT ADD SLT PUSH2 0x425 JUMPI PUSH1 0x1 PUSH1 0x1 PUSH1 0xA0 SHL SUB PUSH1 0x4 CALLDATALOAD DUP2 DUP2 AND SWAP1 DUP2 SWAP1 SUB PUSH2 0x425 JUMPI DUP1 PUSH2 0x696 SWAP3 PUSH2 0x4042 PUSH1 0x10 SLOAD SWAP2 DUP3 AND CALLER EQ PUSH2 0x4731 JUMP JUMPDEST PUSH1 0x1 PUSH1 0x1 PUSH1 0xA0 SHL SUB NOT AND OR PUSH1 0x10 SSTORE PUSH1 0x40 MLOAD PUSH2 0x405C DUP2 PUSH2 0x4190 JUMP JUMPDEST PUSH1 0x2B DUP2 MSTORE PUSH32 0x596F752068617665207375636365737366756C6C792075706461746564206164 PUSH1 0x20 DUP3 ADD MSTORE PUSH11 0x6D696E2061646472657373 PUSH1 0xA8 SHL PUSH1 0x40 DUP3 ADD MSTORE PUSH2 0x63C PUSH2 0x4CBE JUMP JUMPDEST PUSH1 0x4 CALLDATALOAD SWAP1 PUSH1 0x1 PUSH1 0x1 PUSH1 0xA0 SHL SUB DUP3 AND DUP3 SUB PUSH2 0x425 JUMPI JUMP JUMPDEST PUSH1 0x24 CALLDATALOAD SWAP1 PUSH1 0x1 PUSH1 0x1 PUSH1 0xA0 SHL SUB DUP3 AND DUP3 SUB PUSH2 0x425 JUMPI JUMP JUMPDEST SWAP1 PUSH1 0x1 DUP3 DUP2 SHR SWAP3 AND DUP1 ISZERO PUSH2 0x40FE JUMPI JUMPDEST PUSH1 0x20 DUP4 LT EQ PUSH2 0x40E8 JUMPI JUMP JUMPDEST PUSH4 0x4E487B71 PUSH1 0xE0 SHL PUSH1 0x0 MSTORE PUSH1 0x22 PUSH1 0x4 MSTORE PUSH1 0x24 PUSH1 0x0 REVERT JUMPDEST SWAP2 PUSH1 0x7F AND SWAP2 PUSH2 0x40DD JUMP JUMPDEST PUSH1 0xC0 DUP2 ADD SWAP1 DUP2 LT PUSH1 0x1 PUSH1 0x1 PUSH1 0x40 SHL SUB DUP3 GT OR PUSH2 0xB01 JUMPI PUSH1 0x40 MSTORE JUMP JUMPDEST PUSH1 0xA0 DUP2 ADD SWAP1 DUP2 LT PUSH1 0x1 PUSH1 0x1 PUSH1 0x40 SHL SUB DUP3 GT OR PUSH2 0xB01 JUMPI PUSH1 0x40 MSTORE JUMP JUMPDEST PUSH2 0x140 DUP2 ADD SWAP1 DUP2 LT PUSH1 0x1 PUSH1 0x1 PUSH1 0x40 SHL SUB DUP3 GT OR PUSH2 0xB01 JUMPI PUSH1 0x40 MSTORE JUMP JUMPDEST PUSH1 0x40 DUP2 ADD SWAP1 DUP2 LT PUSH1 0x1 PUSH1 0x1 PUSH1 0x40 SHL SUB DUP3 GT OR PUSH2 0xB01 JUMPI PUSH1 0x40 MSTORE JUMP JUMPDEST PUSH1 0xE0 DUP2 ADD SWAP1 DUP2 LT PUSH1 0x1 PUSH1 0x1 PUSH1 0x40 SHL SUB DUP3 GT OR PUSH2 0xB01 JUMPI PUSH1 0x40 MSTORE JUMP JUMPDEST PUSH1 0x60 DUP2 ADD SWAP1 DUP2 LT PUSH1 0x1 PUSH1 0x1 PUSH1 0x40 SHL SUB DUP3 GT OR PUSH2 0xB01 JUMPI PUSH1 0x40 MSTORE JUMP JUMPDEST SWAP1 PUSH1 0x1F DUP1 NOT SWAP2 ADD AND DUP2 ADD SWAP1 DUP2 LT PUSH1 0x1 PUSH1 0x1 PUSH1 0x40 SHL SUB DUP3 GT OR PUSH2 0xB01 JUMPI PUSH1 0x40 MSTORE JUMP JUMPDEST SWAP1 PUSH1 0x40 MLOAD SWAP2 DUP3 PUSH1 0x0 DUP3 SLOAD SWAP3 PUSH2 0x41E0 DUP5 PUSH2 0x40CE JUMP JUMPDEST SWAP1 DUP2 DUP5 MSTORE PUSH1 0x1 SWAP5 DUP6 DUP2 AND SWAP1 DUP2 PUSH1 0x0 EQ PUSH2 0x424F JUMPI POP PUSH1 0x1 EQ PUSH2 0x420C JUMPI JUMPDEST POP POP PUSH2 0x420A SWAP3 POP SUB DUP4 PUSH2 0x41AB JUMP JUMPDEST JUMP JUMPDEST SWAP1 SWAP4 SWAP2 POP PUSH1 0x0 MSTORE PUSH1 0x20 SWAP1 DUP2 PUSH1 0x0 KECCAK256 SWAP4 PUSH1 0x0 SWAP2 JUMPDEST DUP2 DUP4 LT PUSH2 0x4237 JUMPI POP POP PUSH2 0x420A SWAP4 POP DUP3 ADD ADD CODESIZE DUP1 PUSH2 0x41FC JUMP JUMPDEST DUP6 SLOAD DUP9 DUP5 ADD DUP6 ADD MSTORE SWAP5 DUP6 ADD SWAP5 DUP8 SWAP5 POP SWAP2 DUP4 ADD SWAP2 PUSH2 0x421F JUMP JUMPDEST SWAP2 POP POP PUSH2 0x420A SWAP5 POP PUSH1 0x20 SWAP3 POP PUSH1 0xFF NOT AND DUP3 DUP5 ADD MSTORE ISZERO ISZERO PUSH1 0x5 SHL DUP3 ADD ADD CODESIZE DUP1 PUSH2 0x41FC JUMP JUMPDEST SWAP2 SWAP1 DUP3 MLOAD SWAP3 DUP4 DUP3 MSTORE PUSH1 0x0 JUMPDEST DUP5 DUP2 LT PUSH2 0x429E JUMPI POP POP DUP3 PUSH1 0x0 PUSH1 0x20 DUP1 SWAP5 SWAP6 DUP5 ADD ADD MSTORE PUSH1 0x1F DUP1 NOT SWAP2 ADD AND ADD ADD SWAP1 JUMP JUMPDEST PUSH1 0x20 DUP2 DUP4 ADD DUP2 ADD MLOAD DUP5 DUP4 ADD DUP3 ADD MSTORE ADD PUSH2 0x427D JUMP JUMPDEST SWAP3 SWAP2 SWAP3 PUSH1 0x1 PUSH1 0x1 PUSH1 0x40 SHL SUB DUP3 GT PUSH2 0xB01 JUMPI PUSH1 0x40 MLOAD SWAP2 PUSH2 0x42DB PUSH1 0x1F DUP3 ADD PUSH1 0x1F NOT AND PUSH1 0x20 ADD DUP5 PUSH2 0x41AB JUMP JUMPDEST DUP3 SWAP5 DUP2 DUP5 MSTORE DUP2 DUP4 ADD GT PUSH2 0x425 JUMPI DUP3 DUP2 PUSH1 0x20 SWAP4 DUP5 PUSH1 0x0 SWAP7 ADD CALLDATACOPY ADD ADD MSTORE JUMP JUMPDEST SWAP1 DUP1 PUSH1 0x1F DUP4 ADD SLT ISZERO PUSH2 0x425 JUMPI DUP2 PUSH1 0x20 PUSH2 0x4313 SWAP4 CALLDATALOAD SWAP2 ADD PUSH2 0x42B2 JUMP JUMPDEST SWAP1 JUMP JUMPDEST PUSH1 0x40 SWAP1 PUSH1 0x3 NOT ADD SLT PUSH2 0x425 JUMPI PUSH1 0x4 CALLDATALOAD SWAP1 PUSH1 0x24 CALLDATALOAD SWAP1 JUMP JUMPDEST SWAP1 PUSH1 0x40 PUSH1 0x3 NOT DUP4 ADD SLT PUSH2 0x425 JUMPI PUSH1 0x4 CALLDATALOAD SWAP2 PUSH1 0x24 CALLDATALOAD SWAP1 PUSH1 0x1 PUSH1 0x1 PUSH1 0x40 SHL SUB DUP3 GT PUSH2 0x425 JUMPI PUSH2 0x4313 SWAP2 PUSH1 0x4 ADD PUSH2 0x42F8 JUMP JUMPDEST PUSH1 0x1 PUSH1 0x1 PUSH1 0x40 SHL SUB DUP2 GT PUSH2 0xB01 JUMPI PUSH1 0x5 SHL PUSH1 0x20 ADD SWAP1 JUMP JUMPDEST SWAP1 DUP2 MLOAD DUP2 MSTORE PUSH1 0x20 DUP3 ADD MLOAD PUSH1 0x20 DUP3 ADD MSTORE PUSH1 0x40 DUP3 ADD MLOAD PUSH1 0x40 DUP3 ADD MSTORE PUSH1 0x60 DUP3 ADD MLOAD PUSH1 0x60 DUP3 ADD MSTORE PUSH2 0x4404 PUSH2 0x43F0 PUSH2 0x43DE PUSH2 0x43CC PUSH2 0x43BA PUSH1 0x80 DUP8 ADD MLOAD PUSH2 0x140 DUP1 PUSH1 0x80 DUP10 ADD MSTORE DUP8 ADD SWAP1 PUSH2 0x4272 JUMP JUMPDEST PUSH1 0xA0 DUP8 ADD MLOAD DUP7 DUP3 SUB PUSH1 0xA0 DUP9 ADD MSTORE PUSH2 0x4272 JUMP JUMPDEST PUSH1 0xC0 DUP7 ADD MLOAD DUP6 DUP3 SUB PUSH1 0xC0 DUP8 ADD MSTORE PUSH2 0x4272 JUMP JUMPDEST PUSH1 0xE0 DUP6 ADD MLOAD DUP5 DUP3 SUB PUSH1 0xE0 DUP7 ADD MSTORE PUSH2 0x4272 JUMP JUMPDEST PUSH2 0x100 DUP1 DUP6 ADD MLOAD SWAP1 DUP5 DUP4 SUB SWAP1 DUP6 ADD MSTORE PUSH2 0x4272 JUMP JUMPDEST SWAP2 PUSH2 0x120 DUP1 SWAP2 ADD MLOAD ISZERO ISZERO SWAP2 ADD MSTORE SWAP1 JUMP JUMPDEST PUSH1 0x20 DUP1 DUP3 ADD SWAP1 DUP1 DUP4 MSTORE DUP4 MLOAD DUP1 SWAP3 MSTORE PUSH1 0x40 DUP4 ADD SWAP3 DUP2 PUSH1 0x40 DUP5 PUSH1 0x5 SHL DUP4 ADD ADD SWAP6 ADD SWAP4 PUSH1 0x0 SWAP2 JUMPDEST DUP5 DUP4 LT PUSH2 0x4448 JUMPI POP POP POP POP POP POP SWAP1 JUMP JUMPDEST SWAP1 SWAP2 SWAP3 SWAP4 SWAP5 SWAP6 DUP5 DUP1 PUSH2 0x4466 PUSH1 0x1 SWAP4 PUSH1 0x3F NOT DUP7 DUP3 SUB ADD DUP8 MSTORE DUP11 MLOAD PUSH2 0x4372 JUMP JUMPDEST SWAP9 ADD SWAP4 ADD SWAP4 ADD SWAP2 SWAP5 SWAP4 SWAP3 SWAP1 PUSH2 0x4438 JUMP JUMPDEST SWAP1 DUP2 MLOAD DUP1 DUP3 MSTORE PUSH1 0x20 DUP1 DUP1 SWAP4 ADD SWAP4 ADD SWAP2 PUSH1 0x0 JUMPDEST DUP3 DUP2 LT PUSH2 0x4496 JUMPI POP POP POP POP SWAP1 JUMP JUMPDEST DUP4 MLOAD DUP6 MSTORE SWAP4 DUP2 ADD SWAP4 SWAP3 DUP2 ADD SWAP3 PUSH1 0x1 ADD PUSH2 0x4488 JUMP JUMPDEST SWAP1 DUP1 DUP3 MLOAD SWAP1 DUP2 DUP2 MSTORE PUSH1 0x20 DUP1 SWAP2 ADD SWAP3 DUP2 DUP1 DUP5 PUSH1 0x5 SHL DUP4 ADD ADD SWAP6 ADD SWAP4 PUSH1 0x0 SWAP2 JUMPDEST DUP5 DUP4 LT PUSH2 0x44D8 JUMPI POP POP POP POP POP POP SWAP1 JUMP JUMPDEST SWAP1 SWAP2 SWAP3 SWAP4 SWAP5 SWAP6 DUP5 DUP1 PUSH2 0x44F6 PUSH1 0x1 SWAP4 PUSH1 0x1F NOT DUP7 DUP3 SUB ADD DUP8 MSTORE DUP11 MLOAD PUSH2 0x4272 JUMP JUMPDEST SWAP9 ADD SWAP4 ADD SWAP4 ADD SWAP2 SWAP5 SWAP4 SWAP3 SWAP1 PUSH2 0x44C8 JUMP JUMPDEST PUSH2 0x4313 SWAP2 DUP2 MLOAD DUP2 MSTORE PUSH1 0x80 PUSH2 0x453E PUSH2 0x452C PUSH1 0x20 DUP6 ADD MLOAD PUSH1 0xA0 PUSH1 0x20 DUP7 ADD MSTORE PUSH1 0xA0 DUP6 ADD SWAP1 PUSH2 0x4272 JUMP JUMPDEST PUSH1 0x40 DUP6 ADD MLOAD DUP5 DUP3 SUB PUSH1 0x40 DUP7 ADD MSTORE PUSH2 0x44AA JUMP JUMPDEST SWAP3 PUSH1 0x1 DUP1 PUSH1 0xA0 SHL SUB PUSH1 0x60 DUP3 ADD MLOAD AND PUSH1 0x60 DUP5 ADD MSTORE ADD MLOAD SWAP1 PUSH1 0x80 DUP2 DUP5 SUB SWAP2 ADD MSTORE PUSH2 0x4476 JUMP JUMPDEST SWAP1 DUP2 MLOAD DUP2 MSTORE PUSH1 0xA0 DUP1 PUSH2 0x4582 PUSH1 0x20 DUP6 ADD MLOAD PUSH1 0xC0 PUSH1 0x20 DUP7 ADD MSTORE PUSH1 0xC0 DUP6 ADD SWAP1 PUSH2 0x4272 JUMP JUMPDEST SWAP4 PUSH1 0x1 DUP1 DUP4 SHL SUB PUSH1 0x40 DUP3 ADD MLOAD AND PUSH1 0x40 DUP6 ADD MSTORE PUSH1 0x60 DUP2 ADD MLOAD PUSH1 0x60 DUP6 ADD MSTORE PUSH1 0x80 DUP2 ADD MLOAD PUSH1 0x80 DUP6 ADD MSTORE ADD MLOAD ISZERO ISZERO SWAP2 ADD MSTORE SWAP1 JUMP JUMPDEST PUSH1 0x20 DUP1 DUP3 ADD SWAP1 DUP1 DUP4 MSTORE DUP4 MLOAD DUP1 SWAP3 MSTORE PUSH1 0x40 DUP4 ADD SWAP3 DUP2 PUSH1 0x40 DUP5 PUSH1 0x5 SHL DUP4 ADD ADD SWAP6 ADD SWAP4 PUSH1 0x0 SWAP2 JUMPDEST DUP5 DUP4 LT PUSH2 0x45E6 JUMPI POP POP POP POP POP POP SWAP1 JUMP JUMPDEST SWAP1 SWAP2 SWAP3 SWAP4 SWAP5 SWAP6 DUP5 DUP1 PUSH2 0x4604 PUSH1 0x1 SWAP4 PUSH1 0x3F NOT DUP7 DUP3 SUB ADD DUP8 MSTORE DUP11 MLOAD PUSH2 0x4561 JUMP JUMPDEST SWAP9 ADD SWAP4 ADD SWAP4 ADD SWAP2 SWAP5 SWAP4 SWAP3 SWAP1 PUSH2 0x45D6 JUMP JUMPDEST PUSH1 0x80 DUP1 SWAP2 DUP1 MLOAD DUP5 MSTORE PUSH1 0x20 DUP2 ADD MLOAD PUSH1 0x20 DUP6 ADD MSTORE PUSH1 0x40 DUP2 ADD MLOAD PUSH1 0x40 DUP6 ADD MSTORE PUSH1 0x60 DUP2 ADD MLOAD PUSH1 0x60 DUP6 ADD MSTORE ADD MLOAD SWAP2 ADD MSTORE JUMP JUMPDEST PUSH1 0x20 SWAP1 DUP2 PUSH1 0x40 DUP2 DUP4 ADD SWAP3 DUP3 DUP2 MSTORE DUP6 MLOAD DUP1 SWAP5 MSTORE ADD SWAP4 ADD SWAP2 PUSH1 0x0 JUMPDEST DUP3 DUP2 LT PUSH2 0x4668 JUMPI POP POP POP POP SWAP1 JUMP JUMPDEST SWAP1 SWAP2 SWAP3 SWAP4 DUP3 PUSH1 0xA0 DUP3 PUSH2 0x467D PUSH1 0x1 SWAP5 DUP10 MLOAD PUSH2 0x4614 JUMP JUMPDEST ADD SWAP6 ADD SWAP4 SWAP3 SWAP2 ADD PUSH2 0x465A JUMP JUMPDEST SWAP1 DUP2 MLOAD DUP2 MSTORE PUSH1 0xC0 DUP1 PUSH2 0x46DD PUSH2 0x46AD PUSH1 0x20 DUP7 ADD MLOAD PUSH1 0xE0 PUSH1 0x20 DUP8 ADD MSTORE PUSH1 0xE0 DUP7 ADD SWAP1 PUSH2 0x4272 JUMP JUMPDEST PUSH1 0x40 DUP7 ADD MLOAD PUSH1 0x40 DUP7 ADD MSTORE PUSH1 0x60 DUP7 ADD MLOAD PUSH1 0x60 DUP7 ADD MSTORE PUSH1 0x80 DUP7 ADD MLOAD PUSH1 0x80 DUP7 ADD MSTORE PUSH1 0xA0 DUP7 ADD MLOAD DUP6 DUP3 SUB PUSH1 0xA0 DUP8 ADD MSTORE PUSH2 0x4272 JUMP JUMPDEST SWAP4 ADD MLOAD ISZERO ISZERO SWAP2 ADD MSTORE SWAP1 JUMP JUMPDEST DUP1 SLOAD DUP3 LT ISZERO PUSH2 0xAEB JUMPI PUSH1 0x0 MSTORE PUSH1 0x6 PUSH1 0x20 PUSH1 0x0 KECCAK256 SWAP2 MUL ADD SWAP1 PUSH1 0x0 SWAP1 JUMP JUMPDEST SWAP2 DUP2 PUSH1 0x1F DUP5 ADD SLT ISZERO PUSH2 0x425 JUMPI DUP3 CALLDATALOAD SWAP2 PUSH1 0x1 PUSH1 0x1 PUSH1 0x40 SHL SUB DUP4 GT PUSH2 0x425 JUMPI PUSH1 0x20 DUP4 DUP2 DUP7 ADD SWAP6 ADD ADD GT PUSH2 0x425 JUMPI JUMP JUMPDEST ISZERO PUSH2 0x4738 JUMPI JUMP JUMPDEST PUSH1 0x40 MLOAD PUSH3 0x461BCD PUSH1 0xE5 SHL DUP2 MSTORE PUSH1 0x20 PUSH1 0x4 DUP3 ADD MSTORE PUSH1 0x22 PUSH1 0x24 DUP3 ADD MSTORE PUSH32 0x4F6E6C792061646D696E2063616E20706572666F726D20746869732061637469 PUSH1 0x44 DUP3 ADD MSTORE PUSH2 0x37B7 PUSH1 0xF1 SHL PUSH1 0x64 DUP3 ADD MSTORE PUSH1 0x84 SWAP1 REVERT JUMPDEST PUSH1 0x0 NOT DUP2 EQ PUSH2 0x1A72 JUMPI PUSH1 0x1 ADD SWAP1 JUMP JUMPDEST DUP2 DUP2 LT PUSH2 0x47A2 JUMPI POP POP JUMP JUMPDEST PUSH1 0x0 DUP2 SSTORE PUSH1 0x1 ADD PUSH2 0x4797 JUMP JUMPDEST SWAP2 SWAP1 SWAP2 DUP3 MLOAD PUSH1 0x1 PUSH1 0x1 PUSH1 0x40 SHL SUB DUP2 GT PUSH2 0xB01 JUMPI PUSH2 0x47CB DUP3 SLOAD PUSH2 0x40CE JUMP JUMPDEST PUSH1 0x1F DUP2 GT PUSH2 0x4875 JUMPI JUMPDEST POP PUSH1 0x20 DUP1 PUSH1 0x1F DUP4 GT PUSH1 0x1 EQ PUSH2 0x4811 JUMPI POP DUP2 SWAP3 SWAP4 SWAP5 PUSH1 0x0 SWAP3 PUSH2 0x4806 JUMPI JUMPDEST POP POP DUP2 PUSH1 0x1 SHL SWAP2 PUSH1 0x0 NOT SWAP1 PUSH1 0x3 SHL SHR NOT AND OR SWAP1 SSTORE JUMP JUMPDEST ADD MLOAD SWAP1 POP CODESIZE DUP1 PUSH2 0x47F0 JUMP JUMPDEST SWAP1 PUSH1 0x1F NOT DUP4 AND SWAP6 DUP5 PUSH1 0x0 MSTORE DUP3 PUSH1 0x0 KECCAK256 SWAP3 PUSH1 0x0 SWAP1 JUMPDEST DUP9 DUP3 LT PUSH2 0x485D JUMPI POP POP DUP4 PUSH1 0x1 SWAP6 SWAP7 SWAP8 LT PUSH2 0x4844 JUMPI JUMPDEST POP POP POP DUP2 SHL ADD SWAP1 SSTORE JUMP JUMPDEST ADD MLOAD PUSH1 0x0 NOT PUSH1 0xF8 DUP5 PUSH1 0x3 SHL AND SHR NOT AND SWAP1 SSTORE CODESIZE DUP1 DUP1 PUSH2 0x483A JUMP JUMPDEST DUP1 PUSH1 0x1 DUP6 SWAP7 DUP3 SWAP5 SWAP7 DUP7 ADD MLOAD DUP2 SSTORE ADD SWAP6 ADD SWAP4 ADD SWAP1 PUSH2 0x4825 JUMP JUMPDEST PUSH2 0x48A2 SWAP1 DUP4 PUSH1 0x0 MSTORE PUSH1 0x20 PUSH1 0x0 KECCAK256 PUSH1 0x1F DUP5 ADD PUSH1 0x5 SHR DUP2 ADD SWAP2 PUSH1 0x20 DUP6 LT PUSH2 0x48A8 JUMPI JUMPDEST PUSH1 0x1F ADD PUSH1 0x5 SHR ADD SWAP1 PUSH2 0x4797 JUMP JUMPDEST CODESIZE PUSH2 0x47D4 JUMP JUMPDEST SWAP1 SWAP2 POP DUP2 SWAP1 PUSH2 0x4895 JUMP JUMPDEST PUSH1 0x40 MLOAD SWAP1 PUSH2 0x48BF DUP3 PUSH2 0x415A JUMP JUMPDEST PUSH1 0x8 DUP3 MSTORE PUSH8 0x4D65646963696E65 PUSH1 0xC0 SHL PUSH1 0x20 DUP4 ADD MSTORE JUMP JUMPDEST PUSH1 0x1 PUSH1 0x1 PUSH1 0xA0 SHL SUB SWAP1 DUP2 AND PUSH1 0x0 DUP2 DUP2 MSTORE PUSH1 0x2 PUSH1 0x20 MSTORE PUSH1 0x40 DUP1 DUP3 KECCAK256 SLOAD DUP2 MLOAD SWAP4 SWAP7 SWAP2 SWAP5 SWAP2 SWAP3 SWAP2 SWAP1 PUSH2 0x4904 DUP6 PUSH2 0x4123 JUMP JUMPDEST DUP5 MSTORE PUSH1 0x20 DUP5 ADD DUP8 DUP2 MSTORE DUP6 DUP6 ADD SWAP2 DUP8 DUP4 MSTORE PUSH1 0x60 DUP7 ADD SWAP4 TIMESTAMP DUP6 MSTORE PUSH1 0x80 DUP8 ADD SWAP6 DUP7 MSTORE DUP10 DUP2 MSTORE PUSH1 0x2 PUSH1 0x20 MSTORE DUP8 DUP2 KECCAK256 SWAP1 DUP2 SLOAD SWAP2 PUSH1 0x1 PUSH1 0x40 SHL DUP4 LT ISZERO PUSH2 0x49ED JUMPI PUSH1 0x1 DUP4 ADD DUP1 DUP3 SSTORE DUP4 LT ISZERO PUSH2 0x49D9 JUMPI SWAP4 PUSH32 0x9C26059514AB57D9B1C23A991546F58E9339E76427BF2909F3EB15FEB61CD571 SWAP11 SWAP10 SWAP9 SWAP7 SWAP4 PUSH2 0x49AD SWAP4 PUSH1 0x5 PUSH1 0x20 DUP6 PUSH2 0x49BB SWAP13 SWAP10 PUSH1 0x4 SWAP12 SWAP8 MSTORE KECCAK256 SWAP2 MUL ADD SWAP8 MLOAD DUP9 SSTORE PUSH1 0x1 DUP9 ADD SWAP2 MLOAD AND PUSH1 0x1 DUP1 PUSH1 0xA0 SHL SUB NOT DUP3 SLOAD AND OR SWAP1 SSTORE MLOAD PUSH1 0x2 DUP7 ADD PUSH2 0x47AE JUMP JUMPDEST MLOAD PUSH1 0x3 DUP5 ADD SSTORE MLOAD SWAP2 ADD PUSH2 0x47AE JUMP JUMPDEST PUSH2 0x49CE DUP2 MLOAD SWAP3 DUP3 DUP5 SWAP4 DUP5 MSTORE DUP4 ADD SWAP1 PUSH2 0x4272 JUMP JUMPDEST TIMESTAMP PUSH1 0x20 DUP4 ADD MSTORE SUB SWAP1 LOG2 JUMP JUMPDEST PUSH4 0x4E487B71 PUSH1 0xE0 SHL DUP3 MSTORE PUSH1 0x32 PUSH1 0x4 MSTORE PUSH1 0x24 DUP3 REVERT JUMPDEST PUSH4 0x4E487B71 PUSH1 0xE0 SHL DUP3 MSTORE PUSH1 0x41 PUSH1 0x4 MSTORE PUSH1 0x24 DUP3 REVERT JUMPDEST ISZERO PUSH2 0x4A08 JUMPI JUMP JUMPDEST PUSH1 0x40 MLOAD PUSH3 0x461BCD PUSH1 0xE5 SHL DUP2 MSTORE PUSH1 0x20 PUSH1 0x4 DUP3 ADD MSTORE PUSH1 0x17 PUSH1 0x24 DUP3 ADD MSTORE PUSH23 0x1359591A58DA5B9948191BD95CC81B9BDD08195E1A5CDD PUSH1 0x4A SHL PUSH1 0x44 DUP3 ADD MSTORE PUSH1 0x64 SWAP1 REVERT JUMPDEST ISZERO PUSH2 0x4A4E JUMPI JUMP JUMPDEST PUSH1 0x40 MLOAD PUSH3 0x461BCD PUSH1 0xE5 SHL DUP2 MSTORE PUSH1 0x20 PUSH1 0x4 DUP3 ADD MSTORE PUSH1 0x1A PUSH1 0x24 DUP3 ADD MSTORE PUSH32 0x496E636F727265637420726567697374726174696F6E20666565000000000000 PUSH1 0x44 DUP3 ADD MSTORE PUSH1 0x64 SWAP1 REVERT JUMPDEST ISZERO PUSH2 0x4A9A JUMPI JUMP JUMPDEST PUSH1 0x40 MLOAD PUSH3 0x461BCD PUSH1 0xE5 SHL DUP2 MSTORE PUSH1 0x20 PUSH1 0x4 DUP3 ADD MSTORE PUSH1 0x15 PUSH1 0x24 DUP3 ADD MSTORE PUSH21 0x111BD8DD1BDC88191BD95CC81B9BDD08195E1A5CDD PUSH1 0x5A SHL PUSH1 0x44 DUP3 ADD MSTORE PUSH1 0x64 SWAP1 REVERT JUMPDEST PUSH1 0x40 MLOAD SWAP1 PUSH2 0x4AE4 DUP3 PUSH2 0x415A JUMP JUMPDEST PUSH1 0x6 DUP3 MSTORE PUSH6 0x2237B1BA37B9 PUSH1 0xD1 SHL PUSH1 0x20 DUP4 ADD MSTORE JUMP JUMPDEST ISZERO PUSH2 0x4B00 JUMPI JUMP JUMPDEST PUSH1 0x40 MLOAD PUSH3 0x461BCD PUSH1 0xE5 SHL DUP2 MSTORE PUSH1 0x20 PUSH1 0x4 DUP3 ADD MSTORE PUSH1 0x2F PUSH1 0x24 DUP3 ADD MSTORE PUSH32 0x4F6E6C79207265676973746572656420646F63746F72732063616E2070657266 PUSH1 0x44 DUP3 ADD MSTORE PUSH15 0x37B936903A3434B99030B1BA34B7B7 PUSH1 0x89 SHL PUSH1 0x64 DUP3 ADD MSTORE PUSH1 0x84 SWAP1 REVERT JUMPDEST ISZERO PUSH2 0x4B64 JUMPI JUMP JUMPDEST PUSH1 0x40 MLOAD PUSH3 0x461BCD PUSH1 0xE5 SHL DUP2 MSTORE PUSH1 0x20 PUSH1 0x4 DUP3 ADD MSTORE PUSH1 0x16 PUSH1 0x24 DUP3 ADD MSTORE PUSH22 0x14185D1A595B9D08191BD95CC81B9BDD08195E1A5CDD PUSH1 0x52 SHL PUSH1 0x44 DUP3 ADD MSTORE PUSH1 0x64 SWAP1 REVERT JUMPDEST DUP1 SLOAD DUP3 LT ISZERO PUSH2 0xAEB JUMPI PUSH1 0x0 MSTORE PUSH1 0x20 PUSH1 0x0 KECCAK256 ADD SWAP1 PUSH1 0x0 SWAP1 JUMP JUMPDEST DUP1 SLOAD PUSH1 0x1 PUSH1 0x40 SHL DUP2 LT ISZERO PUSH2 0xB01 JUMPI PUSH2 0x4BD7 SWAP2 PUSH1 0x1 DUP3 ADD DUP2 SSTORE PUSH2 0x4BA2 JUMP JUMPDEST SWAP2 SWAP1 SWAP2 PUSH2 0x4BE7 JUMPI PUSH2 0x420A SWAP2 PUSH2 0x47AE JUMP JUMPDEST PUSH4 0x4E487B71 PUSH1 0xE0 SHL PUSH1 0x0 MSTORE PUSH1 0x0 PUSH1 0x4 MSTORE PUSH1 0x24 PUSH1 0x0 REVERT JUMPDEST ISZERO PUSH2 0x4C04 JUMPI JUMP JUMPDEST PUSH1 0x40 MLOAD PUSH3 0x461BCD PUSH1 0xE5 SHL DUP2 MSTORE PUSH1 0x20 PUSH1 0x4 DUP3 ADD MSTORE PUSH1 0x1A PUSH1 0x24 DUP3 ADD MSTORE PUSH32 0x4170706F696E746D656E7420646F6573206E6F74206578697374000000000000 PUSH1 0x44 DUP3 ADD MSTORE PUSH1 0x64 SWAP1 REVERT JUMPDEST ISZERO PUSH2 0x4C50 JUMPI JUMP JUMPDEST PUSH1 0x40 MLOAD PUSH3 0x461BCD PUSH1 0xE5 SHL DUP2 MSTORE PUSH1 0x20 PUSH1 0x4 DUP3 ADD MSTORE PUSH1 0x16 PUSH1 0x24 DUP3 ADD MSTORE PUSH22 0x111BD8DD1BDC881A5CC81B9BDD08185C1C1C9BDD9959 PUSH1 0x52 SHL PUSH1 0x44 DUP3 ADD MSTORE PUSH1 0x64 SWAP1 REVERT JUMPDEST SWAP2 SWAP1 DUP3 SUB SWAP2 DUP3 GT PUSH2 0x1A72 JUMPI JUMP JUMPDEST PUSH1 0x40 MLOAD SWAP1 PUSH2 0x4CA8 DUP3 PUSH2 0x415A JUMP JUMPDEST PUSH1 0x7 DUP3 MSTORE PUSH7 0x14185D1A595B9D PUSH1 0xCA SHL PUSH1 0x20 DUP4 ADD MSTORE JUMP JUMPDEST PUSH1 0x40 MLOAD SWAP1 PUSH2 0x4CCB DUP3 PUSH2 0x415A JUMP JUMPDEST PUSH1 0x5 DUP3 MSTORE PUSH5 0x20B236B4B7 PUSH1 0xD9 SHL PUSH1 0x20 DUP4 ADD MSTORE JUMP JUMPDEST PUSH1 0x40 MLOAD SWAP1 PUSH2 0x4CEC DUP3 PUSH2 0x4123 JUMP JUMPDEST PUSH1 0x0 PUSH1 0x80 DUP4 DUP3 DUP2 MSTORE DUP3 PUSH1 0x20 DUP3 ADD MSTORE DUP3 PUSH1 0x40 DUP3 ADD MSTORE DUP3 PUSH1 0x60 DUP3 ADD MSTORE ADD MSTORE JUMP JUMPDEST SWAP1 PUSH2 0x4D14 DUP3 PUSH2 0x435B JUMP JUMPDEST PUSH2 0x4D21 PUSH1 0x40 MLOAD SWAP2 DUP3 PUSH2 0x41AB JUMP JUMPDEST DUP3 DUP2 MSTORE DUP1 SWAP3 PUSH2 0x4D32 PUSH1 0x1F NOT SWAP2 PUSH2 0x435B JUMP JUMPDEST ADD SWAP1 PUSH1 0x0 JUMPDEST DUP3 DUP2 LT PUSH2 0x4D43 JUMPI POP POP POP JUMP JUMPDEST PUSH1 0x20 SWAP1 PUSH2 0x4D4E PUSH2 0x4CDF JUMP JUMPDEST DUP3 DUP3 DUP6 ADD ADD MSTORE ADD PUSH2 0x4D37 JUMP JUMPDEST DUP1 MLOAD DUP3 LT ISZERO PUSH2 0xAEB JUMPI PUSH1 0x20 SWAP2 PUSH1 0x5 SHL ADD ADD SWAP1 JUMP JUMPDEST PUSH1 0x40 MLOAD SWAP1 PUSH2 0x4D7B DUP3 PUSH2 0x4123 JUMP JUMPDEST PUSH1 0x60 PUSH1 0x80 DUP4 PUSH1 0x0 DUP2 MSTORE DUP3 PUSH1 0x20 DUP3 ADD MSTORE DUP3 PUSH1 0x40 DUP3 ADD MSTORE PUSH1 0x0 DUP4 DUP3 ADD MSTORE ADD MSTORE JUMP JUMPDEST SWAP1 DUP2 SLOAD PUSH2 0x4DA6 DUP2 PUSH2 0x435B JUMP JUMPDEST SWAP3 PUSH2 0x4DB4 PUSH1 0x40 MLOAD SWAP5 DUP6 PUSH2 0x41AB JUMP JUMPDEST DUP2 DUP5 MSTORE PUSH1 0x0 SWAP1 DUP2 MSTORE PUSH1 0x20 DUP1 DUP3 KECCAK256 DUP2 DUP7 ADD JUMPDEST DUP5 DUP5 LT PUSH2 0x4DD3 JUMPI POP POP POP POP POP JUMP JUMPDEST PUSH1 0x1 DUP4 DUP2 SWAP3 PUSH2 0x4DE1 DUP6 PUSH2 0x41CC JUMP JUMPDEST DUP2 MSTORE ADD SWAP3 ADD SWAP4 ADD SWAP3 SWAP1 PUSH2 0x4DC5 JUMP JUMPDEST SWAP1 PUSH1 0x40 MLOAD SWAP2 DUP3 DUP2 SLOAD SWAP2 DUP3 DUP3 MSTORE PUSH1 0x20 SWAP3 DUP4 DUP4 ADD SWAP2 PUSH1 0x0 MSTORE DUP4 PUSH1 0x0 KECCAK256 SWAP4 PUSH1 0x0 SWAP1 JUMPDEST DUP3 DUP3 LT PUSH2 0x4E24 JUMPI POP POP POP PUSH2 0x420A SWAP3 POP SUB DUP4 PUSH2 0x41AB JUMP JUMPDEST DUP6 SLOAD DUP5 MSTORE PUSH1 0x1 SWAP6 DUP7 ADD SWAP6 DUP9 SWAP6 POP SWAP4 DUP2 ADD SWAP4 SWAP1 SWAP2 ADD SWAP1 PUSH2 0x4E0E JUMP JUMPDEST PUSH1 0xD SLOAD SWAP1 PUSH1 0x0 PUSH1 0x1 JUMPDEST DUP4 DUP2 GT ISZERO PUSH2 0x4E88 JUMPI PUSH1 0x40 MLOAD PUSH3 0x461BCD PUSH1 0xE5 SHL DUP2 MSTORE PUSH1 0x20 PUSH1 0x4 DUP3 ADD MSTORE PUSH1 0x11 PUSH1 0x24 DUP3 ADD MSTORE PUSH17 0x14185D1A595B9D081B9BDD08199BDD5B99 PUSH1 0x7A SHL PUSH1 0x44 DUP3 ADD MSTORE PUSH1 0x64 SWAP1 REVERT JUMPDEST DUP1 DUP3 MSTORE PUSH1 0x6 PUSH1 0x20 MSTORE PUSH1 0x40 DUP3 KECCAK256 PUSH1 0x3 ADD SLOAD PUSH1 0x1 PUSH1 0x1 PUSH1 0xA0 SHL SUB DUP5 DUP2 AND SWAP2 AND EQ PUSH2 0x4EB8 JUMPI PUSH2 0x4EB3 SWAP1 PUSH2 0x4788 JUMP JUMPDEST PUSH2 0x4E47 JUMP JUMPDEST SWAP3 POP POP POP SWAP1 JUMP JUMPDEST PUSH1 0x40 MLOAD SWAP1 PUSH2 0x4ECC DUP3 PUSH2 0x413E JUMP JUMPDEST PUSH1 0x0 PUSH2 0x120 DUP4 DUP3 DUP2 MSTORE DUP3 PUSH1 0x20 DUP3 ADD MSTORE DUP3 PUSH1 0x40 DUP3 ADD MSTORE PUSH1 0x60 DUP4 DUP2 DUP4 ADD MSTORE DUP1 PUSH1 0x80 DUP4 ADD MSTORE DUP1 PUSH1 0xA0 DUP4 ADD MSTORE DUP1 PUSH1 0xC0 DUP4 ADD MSTORE DUP1 PUSH1 0xE0 DUP4 ADD MSTORE PUSH2 0x100 DUP3 ADD MSTORE ADD MSTORE JUMP JUMPDEST SWAP1 PUSH2 0x4F14 DUP3 PUSH2 0x435B JUMP JUMPDEST PUSH2 0x4F21 PUSH1 0x40 MLOAD SWAP2 DUP3 PUSH2 0x41AB JUMP JUMPDEST DUP3 DUP2 MSTORE DUP1 SWAP3 PUSH2 0x4F32 PUSH1 0x1F NOT SWAP2 PUSH2 0x435B JUMP JUMPDEST ADD SWAP1 PUSH1 0x0 JUMPDEST DUP3 DUP2 LT PUSH2 0x4F43 JUMPI POP POP POP JUMP JUMPDEST PUSH1 0x20 SWAP1 PUSH2 0x4F4E PUSH2 0x4EBF JUMP JUMPDEST DUP3 DUP3 DUP6 ADD ADD MSTORE ADD PUSH2 0x4F37 JUMP JUMPDEST PUSH1 0x40 MLOAD SWAP1 PUSH2 0x4F67 DUP3 PUSH2 0x4108 JUMP JUMPDEST PUSH1 0x0 PUSH1 0xA0 DUP4 DUP3 DUP2 MSTORE PUSH1 0x60 PUSH1 0x20 DUP3 ADD MSTORE DUP3 PUSH1 0x40 DUP3 ADD MSTORE DUP3 PUSH1 0x60 DUP3 ADD MSTORE DUP3 PUSH1 0x80 DUP3 ADD MSTORE ADD MSTORE JUMP JUMPDEST SWAP1 PUSH2 0x4F96 DUP3 PUSH2 0x435B JUMP JUMPDEST PUSH2 0x4FA3 PUSH1 0x40 MLOAD SWAP2 DUP3 PUSH2 0x41AB JUMP JUMPDEST DUP3 DUP2 MSTORE DUP1 SWAP3 PUSH2 0x4FB4 PUSH1 0x1F NOT SWAP2 PUSH2 0x435B JUMP JUMPDEST ADD SWAP1 PUSH1 0x0 JUMPDEST DUP3 DUP2 LT PUSH2 0x4FC5 JUMPI POP POP POP JUMP JUMPDEST PUSH1 0x20 SWAP1 PUSH2 0x4FD0 PUSH2 0x4F5A JUMP JUMPDEST DUP3 DUP3 DUP6 ADD ADD MSTORE ADD PUSH2 0x4FB9 JUMP JUMPDEST PUSH1 0xC SLOAD SWAP1 PUSH1 0x0 PUSH1 0x1 JUMPDEST DUP4 DUP2 GT ISZERO PUSH2 0x5025 JUMPI PUSH1 0x40 MLOAD PUSH3 0x461BCD PUSH1 0xE5 SHL DUP2 MSTORE PUSH1 0x20 PUSH1 0x4 DUP3 ADD MSTORE PUSH1 0x10 PUSH1 0x24 DUP3 ADD MSTORE PUSH16 0x111BD8DD1BDC881B9BDD08199BDD5B99 PUSH1 0x82 SHL PUSH1 0x44 DUP3 ADD MSTORE PUSH1 0x64 SWAP1 REVERT JUMPDEST DUP1 DUP3 MSTORE PUSH1 0x5 PUSH1 0x20 MSTORE PUSH1 0x40 DUP3 KECCAK256 PUSH1 0x2 ADD SLOAD PUSH1 0x1 PUSH1 0x1 PUSH1 0xA0 SHL SUB DUP5 DUP2 AND SWAP2 AND EQ PUSH2 0x4EB8 JUMPI PUSH2 0x5050 SWAP1 PUSH2 0x4788 JUMP JUMPDEST PUSH2 0x4FE5 JUMP JUMPDEST PUSH1 0x40 MLOAD SWAP1 PUSH2 0x5062 DUP3 PUSH2 0x4175 JUMP JUMPDEST PUSH1 0x0 PUSH1 0xC0 DUP4 DUP3 DUP2 MSTORE PUSH1 0x60 PUSH1 0x20 DUP3 ADD MSTORE DUP3 PUSH1 0x40 DUP3 ADD MSTORE DUP3 PUSH1 0x60 DUP3 ADD MSTORE DUP3 PUSH1 0x80 DUP3 ADD MSTORE PUSH1 0x60 PUSH1 0xA0 DUP3 ADD MSTORE ADD MSTORE JUMP JUMPDEST PUSH1 0x1 DUP1 PUSH1 0xA0 SHL SUB AND PUSH1 0x0 MSTORE PUSH1 0x0 PUSH1 0x20 MSTORE PUSH2 0x50AC PUSH1 0x40 PUSH1 0x0 KECCAK256 SLOAD PUSH2 0x40CE JUMP JUMPDEST ISZERO ISZERO SWAP1 JUMP JUMPDEST ISZERO PUSH2 0x50B8 JUMPI JUMP JUMPDEST PUSH1 0x40 MLOAD PUSH3 0x461BCD PUSH1 0xE5 SHL DUP2 MSTORE PUSH1 0x20 PUSH1 0x4 DUP3 ADD MSTORE PUSH1 0x16 PUSH1 0x24 DUP3 ADD MSTORE PUSH22 0x155CD95C881A5CC81B9BDD081C9959DA5CDD195C9959 PUSH1 0x52 SHL PUSH1 0x44 DUP3 ADD MSTORE PUSH1 0x64 SWAP1 REVERT JUMPDEST SWAP1 DUP2 SLOAD PUSH2 0x5102 DUP2 PUSH2 0x435B JUMP JUMPDEST SWAP3 PUSH1 0x40 SWAP4 PUSH2 0x5112 DUP6 MLOAD SWAP2 DUP3 PUSH2 0x41AB JUMP JUMPDEST DUP3 DUP2 MSTORE DUP1 SWAP5 PUSH1 0x20 DUP1 SWAP3 ADD SWAP3 PUSH1 0x0 MSTORE DUP2 PUSH1 0x0 KECCAK256 SWAP1 PUSH1 0x0 SWAP4 JUMPDEST DUP6 DUP6 LT PUSH2 0x5138 JUMPI POP POP POP POP POP POP JUMP JUMPDEST PUSH1 0x2 DUP5 PUSH1 0x1 SWAP3 DUP5 MLOAD PUSH2 0x5149 DUP2 PUSH2 0x415A JUMP JUMPDEST DUP5 DUP1 PUSH1 0xA0 SHL SUB DUP8 SLOAD AND DUP2 MSTORE PUSH2 0x515F DUP6 DUP9 ADD PUSH2 0x41CC JUMP JUMPDEST DUP4 DUP3 ADD MSTORE DUP2 MSTORE ADD SWAP4 ADD SWAP5 ADD SWAP4 SWAP2 PUSH2 0x5129 JUMP JUMPDEST ISZERO PUSH2 0x5178 JUMPI JUMP JUMPDEST PUSH1 0x40 MLOAD PUSH3 0x461BCD PUSH1 0xE5 SHL DUP2 MSTORE PUSH1 0x20 PUSH1 0x4 DUP3 ADD MSTORE PUSH1 0x17 PUSH1 0x24 DUP3 ADD MSTORE PUSH23 0x10DC99585D1948185B881858D8DBDD5B9D08199A5C9CDD PUSH1 0x4A SHL PUSH1 0x44 DUP3 ADD MSTORE PUSH1 0x64 SWAP1 REVERT JUMPDEST DUP1 SLOAD DUP3 LT ISZERO PUSH2 0xAEB JUMPI PUSH1 0x0 MSTORE PUSH1 0x20 PUSH1 0x0 KECCAK256 SWAP1 PUSH1 0x1 SHL ADD SWAP1 PUSH1 0x0 SWAP1 JUMP JUMPDEST SWAP1 PUSH1 0x1 DUP1 PUSH1 0xA0 SHL SUB PUSH1 0x0 DUP2 DUP5 AND DUP2 MSTORE PUSH1 0x20 DUP2 DUP2 MSTORE PUSH1 0x2 SWAP1 PUSH1 0x40 SWAP1 DUP3 DUP3 DUP6 KECCAK256 ADD SLOAD DUP6 DUP8 AND DUP6 MSTORE DUP4 DUP4 DUP7 KECCAK256 ADD SLOAD LT PUSH2 0x525F JUMPI JUMPDEST DUP4 SWAP1 JUMPDEST DUP6 DUP9 AND DUP6 MSTORE DUP5 DUP2 MSTORE DUP4 DUP4 DUP7 KECCAK256 ADD DUP1 SLOAD DUP4 LT ISZERO PUSH2 0x5253 JUMPI PUSH2 0x5228 DUP4 DUP9 SWAP3 PUSH2 0x51B7 JUMP JUMPDEST POP SLOAD AND DUP7 DUP9 AND EQ PUSH2 0x5246 JUMPI DUP6 PUSH2 0x523E DUP7 SWAP4 PUSH2 0x4788 JUMP JUMPDEST SWAP3 POP POP PUSH2 0x5207 JUMP JUMPDEST POP POP POP POP POP POP POP POP PUSH1 0x1 SWAP1 JUMP JUMPDEST POP POP POP POP POP SWAP3 POP POP POP SWAP1 JUMP JUMPDEST SWAP5 SWAP6 SWAP5 PUSH2 0x5204 JUMP JUMPDEST SWAP2 SWAP1 PUSH1 0x40 MLOAD PUSH2 0x5275 DUP2 PUSH2 0x415A JUMP JUMPDEST PUSH1 0x1 PUSH1 0x1 PUSH1 0xA0 SHL SUB SWAP2 DUP3 AND DUP2 MSTORE PUSH1 0x20 DUP1 DUP3 ADD SWAP4 DUP5 MSTORE SWAP4 DUP3 AND PUSH1 0x0 SWAP1 DUP2 MSTORE SWAP4 DUP5 SWAP1 MSTORE PUSH1 0x40 DUP5 KECCAK256 PUSH1 0x2 ADD DUP1 SLOAD SWAP1 PUSH1 0x1 PUSH1 0x40 SHL DUP3 LT ISZERO PUSH2 0x52F7 JUMPI SWAP1 PUSH2 0x52BC SWAP2 PUSH1 0x1 DUP3 ADD DUP2 SSTORE PUSH2 0x51B7 JUMP JUMPDEST SWAP5 SWAP1 SWAP5 PUSH2 0x52E3 JUMPI POP MLOAD DUP4 SLOAD PUSH1 0x1 PUSH1 0x1 PUSH1 0xA0 SHL SUB NOT AND SWAP2 AND OR DUP3 SSTORE MLOAD PUSH2 0x420A SWAP2 PUSH1 0x1 ADD PUSH2 0x47AE JUMP JUMPDEST PUSH4 0x4E487B71 PUSH1 0xE0 SHL DUP2 MSTORE PUSH1 0x4 DUP2 SWAP1 MSTORE PUSH1 0x24 SWAP1 REVERT JUMPDEST PUSH4 0x4E487B71 PUSH1 0xE0 SHL DUP7 MSTORE PUSH1 0x41 PUSH1 0x4 MSTORE PUSH1 0x24 DUP7 REVERT JUMPDEST PUSH1 0x40 MLOAD SWAP1 PUSH2 0x5318 DUP3 PUSH2 0x415A JUMP JUMPDEST PUSH1 0x7 DUP3 MSTORE PUSH7 0x4D657373616765 PUSH1 0xC8 SHL PUSH1 0x20 DUP4 ADD MSTORE JUMP JUMPDEST SWAP1 PUSH1 0x1 PUSH1 0x1 PUSH1 0xA0 SHL SUB DUP1 DUP3 AND SWAP1 DUP4 AND LT ISZERO PUSH2 0x5391 JUMPI PUSH2 0x538B PUSH2 0x537D SWAP2 PUSH1 0x40 MLOAD SWAP3 DUP4 SWAP2 PUSH1 0x20 DUP4 ADD SWAP6 DUP7 SWAP1 PUSH1 0x28 SWAP3 PUSH12 0xFFFFFFFFFFFFFFFFFFFFFFFF NOT DUP1 SWAP3 PUSH1 0x60 SHL AND DUP4 MSTORE PUSH1 0x60 SHL AND PUSH1 0x14 DUP3 ADD MSTORE ADD SWAP1 JUMP JUMPDEST SUB PUSH1 0x1F NOT DUP2 ADD DUP4 MSTORE DUP3 PUSH2 0x41AB JUMP JUMPDEST MLOAD SWAP1 KECCAK256 SWAP1 JUMP JUMPDEST PUSH1 0x40 MLOAD PUSH12 0xFFFFFFFFFFFFFFFFFFFFFFFF NOT PUSH1 0x60 SWAP3 DUP4 SHL DUP2 AND PUSH1 0x20 DUP4 ADD SWAP1 DUP2 MSTORE SWAP4 SWAP1 SWAP3 SHL SWAP1 SWAP2 AND PUSH1 0x34 DUP3 ADD MSTORE PUSH2 0x538B DUP2 PUSH1 0x48 DUP2 ADD PUSH2 0x537D JUMP JUMPDEST ISZERO PUSH2 0x53D0 JUMPI JUMP JUMPDEST PUSH1 0x40 MLOAD PUSH3 0x461BCD PUSH1 0xE5 SHL DUP2 MSTORE PUSH1 0x20 PUSH1 0x4 DUP3 ADD MSTORE PUSH1 0xE PUSH1 0x24 DUP3 ADD MSTORE PUSH14 0x139BDD08185D5D1A1BDC9A5E9959 PUSH1 0x92 SHL PUSH1 0x44 DUP3 ADD MSTORE PUSH1 0x64 SWAP1 REVERT INVALID LOG2 PUSH5 0x6970667358 0x22 SLT KECCAK256 0xAA AND 0x4F 0xB8 INVALID 0xE9 0xE0 SWAP11 0xC7 ADDMOD 0x2C 0xEC 0xC3 0xBC 0x2D CHAINID 0xBB AND PUSH23 0x8709BB31981A000BD1D200A5ED64736F6C634300081300 CALLER "},"methodIdentifiers":{"ADD_MEDICINE(string,uint256,uint256,uint256,string)":"dd1bf902","APPROVE_DOCTOR_STATUS(uint256)":"5597958e","AddMedicalRecord(uint256,string,string)":"235f9167","BOOK_APPOINTMENT(uint256,uint256,string,string,string,string,string,address,string)":"ebd557d9","BUY_MEDICINE(uint256,uint256,uint256)":"8366304b","CHECK_USER_EXISTS(address)":"1b82207e","COMPLETE_APPOINTMENT(uint256)":"fd9510d5","FetchMedicalRecord(uint256,uint256)":"934fedcd","GET_ALL_APPOINTMENTS()":"ea51cd6c","GET_ALL_APPROVED_DOCTORS()":"d0da2306","GET_ALL_APP_USER()":"828b10da","GET_ALL_PATIENT_ORDERS(uint256)":"56baa64e","GET_ALL_PRESCRIBED_MEDICINES()":"8c9e245d","GET_ALL_PRESCRIBED_MEDICINES_OF_PATIENT(uint256)":"7c0b501a","GET_ALL_REGISTERED_DOCTORS()":"770d954d","GET_ALL_REGISTERED_MEDICINES()":"9fea8c26","GET_ALL_REGISTERED_PATIENTS()":"842f8dd0","GET_BOUGHT_MEDICINE_BY_PAITENT(uint256)":"636d3627","GET_DOCTOR_APPOINTMENTS_HISTORYS(uint256)":"72de4401","GET_DOCTOR_DETAILS(uint256)":"fe60efa1","GET_DOCTOR_ID(address)":"082ed547","GET_MEDICINE_DETAILS(uint256)":"e92f0a68","GET_MOST_POPULAR_DOCTOR()":"b27b24f8","GET_MY_FRIEND_LIST(address)":"b3e0c710","GET_NOTIFICATIONS(address)":"2a42e74c","GET_PATIENT_APPOINTMENT(uint256)":"84e7aa2e","GET_PATIENT_APPOINTMENT_HISTORYS(uint256)":"559160b8","GET_PATIENT_DETAILS(uint256)":"74cdd534","GET_PATIENT_ID(address)":"04c0adb7","GET_PATIENT_MEDICIAL_HISTORY(uint256)":"a72c1623","GET_PRESCRIPTION_DETAILS(uint256)":"f27e44cc","GET_READ_MESSAGE(address,address)":"b039ece9","GET_USERNAME_TYPE(address)":"ff09a64e","PRESCRIBE_MEDICINE(uint256,uint256)":"37a92da7","RegisterDoctor(string)":"1878f6c1","RegisterPatient(string,string[])":"4a49158e","UPDATE_ADMIN_ADDRESS(address)":"02cce770","UPDATE_APPOINTMENT_FEE(uint256)":"046a07ed","UPDATE_MEDICINE_ACTIVE(uint256)":"c0a5999a","UPDATE_MEDICINE_DISCOUNT(uint256,uint256)":"bbece2bb","UPDATE_MEDICINE_LOCATION(uint256,string)":"fb5333b7","UPDATE_MEDICINE_PRICE(uint256,uint256)":"39d519a9","UPDATE_MEDICINE_QUANTITY(uint256,uint256)":"2c486bd5","UPDATE_PATIENT_MEDICAL_HISTORY(uint256,string)":"354b365f","UPDATE_REGISTRATION_FEE(uint256)":"f28136a9","UPDATE_REGISTRATION_PATIENT_FEE(uint256)":"d174ea41","_SEND_MESSAGE(address,address,string)":"ed74e848","admin()":"f851a440","appointmentCount()":"eebc3fb2","appointmentFee()":"dabf826a","appointments(uint256)":"12dc9013","doctorCount()":"78522bc4","doctors(uint256)":"6efb1b84","medicineCount()":"4dafd490","medicines(uint256)":"c85e766d","patientCount()":"a0303c41","patientOrders(uint256,uint256)":"a48f87d0","patients(uint256)":"93119a83","prescriptionCount()":"b6558498","prescriptions(uint256)":"31dfc91b","registeredDoctors(address)":"3f308cd2","registeredPatients(address)":"9cdaaad8","registrationDoctorFee()":"e40b850e","registrationPatientFee()":"540a6614"}}}}}