{
  "_format": "hh-sol-artifact-1",
  "contractName": "Healthcare",
  "sourceName": "contracts/Healthcare.sol",
  "abi": [
    {
      "anonymous": false,
      "inputs": [
        {
          "indexed": true,
          "internalType": "address",
          "name": "patient",
          "type": "address"
        },
        {
          "indexed": true,
          "internalType": "address",
          "name": "doctor",
          "type": "address"
        },
        {
          "indexed": false,
          "internalType": "string",
          "name": "ipfsHash",
          "type": "string"
        }
      ],
      "name": "MedicalRecordAdded",
      "type": "event"
    },
    {
      "anonymous": false,
      "inputs": [
        {
          "indexed": true,
          "internalType": "address",
          "name": "userAddress",
          "type": "address"
        },
        {
          "indexed": false,
          "internalType": "string",
          "name": "role",
          "type": "string"
        }
      ],
      "name": "UserRegistered",
      "type": "event"
    },
    {
      "inputs": [
        {
          "internalType": "address",
          "name": "_patient",
          "type": "address"
        },
        {
          "internalType": "string",
          "name": "_ipfsHash",
          "type": "string"
        }
      ],
      "name": "addMedicalRecord",
      "outputs": [],
      "stateMutability": "nonpayable",
      "type": "function"
    },
    {
      "inputs": [
        {
          "internalType": "address",
          "name": "_patient",
          "type": "address"
        }
      ],
      "name": "getPatientRecords",
      "outputs": [
        {
          "components": [
            {
              "internalType": "string",
              "name": "ipfsHash",
              "type": "string"
            },
            {
              "internalType": "address",
              "name": "patient",
              "type": "address"
            },
            {
              "internalType": "address",
              "name": "doctor",
              "type": "address"
            },
            {
              "internalType": "uint256",
              "name": "timestamp",
              "type": "uint256"
            }
          ],
          "internalType": "struct Healthcare.MedicalRecord[]",
          "name": "",
          "type": "tuple[]"
        }
      ],
      "stateMutability": "view",
      "type": "function"
    },
    {
      "inputs": [
        {
          "internalType": "address",
          "name": "_userAddress",
          "type": "address"
        }
      ],
      "name": "getUserDetails",
      "outputs": [
        {
          "components": [
            {
              "internalType": "string",
              "name": "name",
              "type": "string"
            },
            {
              "internalType": "string",
              "name": "role",
              "type": "string"
            },
            {
              "internalType": "string",
              "name": "ipfsHash",
              "type": "string"
            },
            {
              "internalType": "bool",
              "name": "isRegistered",
              "type": "bool"
            }
          ],
          "internalType": "struct Healthcare.User",
          "name": "",
          "type": "tuple"
        }
      ],
      "stateMutability": "view",
      "type": "function"
    },
    {
      "inputs": [
        {
          "internalType": "address",
          "name": "",
          "type": "address"
        },
        {
          "internalType": "uint256",
          "name": "",
          "type": "uint256"
        }
      ],
      "name": "patientRecords",
      "outputs": [
        {
          "internalType": "string",
          "name": "ipfsHash",
          "type": "string"
        },
        {
          "internalType": "address",
          "name": "patient",
          "type": "address"
        },
        {
          "internalType": "address",
          "name": "doctor",
          "type": "address"
        },
        {
          "internalType": "uint256",
          "name": "timestamp",
          "type": "uint256"
        }
      ],
      "stateMutability": "view",
      "type": "function"
    },
    {
      "inputs": [
        {
          "internalType": "string",
          "name": "_name",
          "type": "string"
        },
        {
          "internalType": "string",
          "name": "_role",
          "type": "string"
        },
        {
          "internalType": "string",
          "name": "_ipfsHash",
          "type": "string"
        }
      ],
      "name": "registerUser",
      "outputs": [],
      "stateMutability": "nonpayable",
      "type": "function"
    },
    {
      "inputs": [
        {
          "internalType": "address",
          "name": "",
          "type": "address"
        }
      ],
      "name": "users",
      "outputs": [
        {
          "internalType": "string",
          "name": "name",
          "type": "string"
        },
        {
          "internalType": "string",
          "name": "role",
          "type": "string"
        },
        {
          "internalType": "string",
          "name": "ipfsHash",
          "type": "string"
        },
        {
          "internalType": "bool",
          "name": "isRegistered",
          "type": "bool"
        }
      ],
      "stateMutability": "view",
      "type": "function"
    }
  ],
  "bytecode": "0x6080806040523461001657611108908161001c8239f35b600080fdfe608080604052600436101561001357600080fd5b60003560e01c90816318bd484714610c3d575080633a9b131c1461086e57806394f0df61146107dc578063a87430ba1461073c578063cc3d967b146105f55763d637dcfa1461006157600080fd5b346105f05760603660031901126105f0576004356001600160401b0381116105f057610091903690600401610ee7565b6024356001600160401b0381116105f0576100b0903690600401610ee7565b6044356001600160401b0381116105f0576100cf903690600401610ee7565b33600052600060205260ff600360406000200154166105b1576040516020810183519161011460208281880195610107818789610e48565b8101038084520182610ec6565b5190206040516020810190661c185d1a595b9d60ca1b82526007815261013981610eab565b51902014908115610564575b5015610530576040519261015884610e90565b835281602084015260408301526001606083015233600052600060205260406000209082519283516001600160401b0381116103a1576101988454610f6f565b601f81116104ec575b506020601f8211600114610483578192939495600092610478575b50508160011b916000199060031b1c19161783555b60208101519283516001600160401b0381116103a1576101f46001830154610f6f565b601f8111610431575b506020601f82116001146103c25781929394956000926103b7575b50508160011b916000199060031b1c19161760018201555b6002810160408301518051906001600160401b0382116103a1576102548354610f6f565b601f8111610359575b50602090601f83116001146102ec57918060039492606096946000926102e1575b50508160011b9160001990861b1c19161790555b01910151151560ff801983541691161790557f48cac28ad4dc618e15f4c2dd5e97751182f166de97b25618318b2112aa951a2f60405160208152806102dc33946020830190610e6b565b0390a2005b01519050388061027e565b90601f198316918460005260206000209260005b8181106103415750926001928592606098966003989610610329575b505050811b019055610292565b015160001983881b60f8161c1916905538808061031c565b92936020600181928786015181550195019301610300565b836000526020600020601f840160051c81019160208510610397575b601f0160051c01905b81811061038b575061025d565b6000815560010161037e565b9091508190610375565b634e487b7160e01b600052604160045260246000fd5b015190503880610218565b6001830160005260206000209060005b601f1984168110610419575060019394959683601f19811610610400575b505050811b016001820155610230565b015160001960f88460031b161c191690553880806103f0565b9091602060018192858b0151815501930191016103d2565b600183016000526020600020601f830160051c810160208410610471575b601f830160051c820181106104655750506101fd565b6000815560010161044f565b508061044f565b0151905038806101bc565b8460005260206000209060005b601f19841681106104d4575060019394959683601f198116106104bb575b505050811b0183556101d1565b015160001960f88460031b161c191690553880806104ae565b9091602060018192858b015181550193019101610490565b846000526020600020601f830160051c810160208410610529575b601f830160051c8201811061051d5750506101a1565b60008155600101610507565b5080610507565b60405162461bcd60e51b815260206004820152600c60248201526b496e76616c696420726f6c6560a01b6044820152606490fd5b6101079150610583602060405180938282019586918951928391610e48565b5190206040516020810190653237b1ba37b960d11b8252600681526105a781610eab565b5190201438610145565b60405162461bcd60e51b8152602060048201526017602482015276155cd95c88185b1c9958591e481c9959da5cdd195c9959604a1b6044820152606490fd5b600080fd5b346105f0576020806003193601126105f05761060f610e32565b6040519061061c82610e90565b6000606083818095528186820152816040820152015260018060a01b0316806000526000835260ff60036040600020015416156107065791608092600052600081526106f960406000206040519361067385610e90565b61067c82610fa9565b855261068a60018301610fa9565b908486019182526106e96106d360ff60036106a760028801610fa9565b9660408b01978852015416968389019715158852604051998a99828b5251918a015260a0890190610e6b565b925192601f1993848983030160408a0152610e6b565b9251918684030190860152610e6b565b9051151560808301520390f35b60405162461bcd60e51b815260048101849052600e60248201526d155cd95c881b9bdd08199bdd5b9960921b6044820152606490fd5b346105f05760203660031901126105f0576001600160a01b0361075d610e32565b1660005260006020526107b4604060002061077781610fa9565b906107d061078760018301610fa9565b916107c260ff600361079b60028501610fa9565b9301541693604051968796608088526080880190610e6b565b908682036020880152610e6b565b908482036040860152610e6b565b90151560608301520390f35b346105f05760403660031901126105f0576107f5610e32565b6024359060018060a01b038091166000526001602052604060002080548310156105f05761085a9261082691610f3d565b509061083182610fa9565b916003826001830154169260028301541691015490604051948594608086526080860190610e6b565b926020850152604084015260608301520390f35b346105f05760403660031901126105f057610887610e32565b6024906001600160401b039082358281116105f0576108aa903690600401610ee7565b90336000526020936000855260ff6003604060002001541615610c02576001600160a01b039182166000818152808752604090206003015490949060ff1615610bc5573360005260008652600180604060002001604051610920816109128b8201809561104f565b03601f198101835282610ec6565b51902060405188810190653237b1ba37b960d11b82526006815261094381610eab565b51902003610b81576040519361095885610e90565b858552878501918783526040860193338552606087019542875289600052828b526040600020805490600160401b821015610b6c579061099c918582018155610f3d565b989098610b575751908151928311610b4357506109b98854610f6f565b601f8111610afa575b508a90601f8311600114610a675793610a57989693836003979483947f45fb52644d1c28cab10d4f28bc3618dcc8d9779aab1c535cb434759fdc6369e49d9b98600092610a5c575b5050600019828a1b1c191690821b1788555b87019251169160018060a01b031992838254161790556002860192511690825416179055519101556040519182918683523396830190610e6b565b0390a3005b015190508f80610a0a565b60008981528c8120929190601f198516908e5b828210610ae3575050948487947f45fb52644d1c28cab10d4f28bc3618dcc8d9779aab1c535cb434759fdc6369e49d9b9894839460039b98610a579f9d9a10610acb575b505050811b018855610a1c565b0151600019838c1b60f8161c191690558f8080610abe565b808886978294978701518155019601940190610a7a565b886000528b600020601f840160051c8101918d8510610b39575b601f0160051c019084905b828110610b2d5750506109c2565b60008155018490610b1f565b9091508190610b14565b634e487b7160e01b60009081526041600452fd5b50634e487b7160e01b60005260006004526000fd5b82634e487b7160e01b60005260416004526000fd5b60405162461bcd60e51b815260048101889052601c818501527f4f6e6c7920646f63746f72732063616e20616464207265636f726473000000006044820152606490fd5b60405162461bcd60e51b8152600481018790526016818401527514185d1a595b9d081b9bdd081c9959da5cdd195c995960521b6044820152606490fd5b8460156064926040519262461bcd60e51b8452600484015282015274111bd8dd1bdc881b9bdd081c9959da5cdd195c9959605a1b6044820152fd5b346105f0576020806003193601126105f0576001600160a01b039182610c61610e32565b1690813314908115610de1575b5015610dad5760005260018082526040600020918254906001600160401b0382116103a15783858460405194610ca9858260051b0187610ec6565b8086528486018094600052856000206000915b838310610d5657505050506040519484869586019181875251809252604086019360408360051b88010195946000915b848310610cf95788880389f35b9193959750919384808298603f198c82030186528a5190610d2282516080808452830190610e6b565b9186848201511684830152866040820151166040830152606080910151910152990193019301909288979694929593610cec565b936004888298999660409b989b51610d6d81610e90565b610d7686610fa9565b81528c8587015416838201528c60028701541660408201526003860154606082015281520192019201919097949796959396610cbc565b60405162461bcd60e51b815260048101839052600c60248201526b155b985d5d1a1bdc9a5e995960a21b6044820152606490fd5b90503360005260008352600160406000200190610e0581610912868201809561104f565b51902060405183810190653237b1ba37b960d11b825260068152610e2881610eab565b5190201484610c6e565b600435906001600160a01b03821682036105f057565b60005b838110610e5b5750506000910152565b8181015183820152602001610e4b565b90602091610e8481518092818552858086019101610e48565b601f01601f1916010190565b608081019081106001600160401b038211176103a157604052565b604081019081106001600160401b038211176103a157604052565b90601f801991011681019081106001600160401b038211176103a157604052565b81601f820112156105f0578035906001600160401b0382116103a15760405192610f1b601f8401601f191660200185610ec6565b828452602083830101116105f057816000926020809301838601378301015290565b8054821015610f595760005260206000209060021b0190600090565b634e487b7160e01b600052603260045260246000fd5b90600182811c92168015610f9f575b6020831014610f8957565b634e487b7160e01b600052602260045260246000fd5b91607f1691610f7e565b9060405191826000825492610fbd84610f6f565b90818452600194858116908160001461102c5750600114610fe9575b5050610fe792500383610ec6565b565b9093915060005260209081600020936000915b818310611014575050610fe793508201013880610fd9565b85548884018501529485019487945091830191610ffc565b915050610fe794506020925060ff191682840152151560051b8201013880610fd9565b60009291815461105e81610f6f565b926001918083169081156110b7575060011461107b575b50505050565b90919293945060005260209081600020906000915b8583106110a65750505050019038808080611075565b805485840152918301918101611090565b60ff191684525050508115159091020191503880808061107556fea26469706673582212206354befe1fd942a8274ffc5732584688bd50b2b5215dd5f36e27e19ab6ed035564736f6c63430008130033",
  "linkReferences": {},
  "deployedLinkReferences": {}
}