{
  "_format": "hh-sol-artifact-1",
  "contractName": "Healthcare",
  "sourceName": "contracts/Healthcare.sol",
  "abi": [
    {
      "inputs": [],
      "stateMutability": "nonpayable",
      "type": "constructor"
    },
    {
      "anonymous": false,
      "inputs": [
        {
          "indexed": true,
          "internalType": "address",
          "name": "patient",
          "type": "address"
        },
        {
          "indexed": true,
          "internalType": "address",
          "name": "doctor",
          "type": "address"
        },
        {
          "indexed": false,
          "internalType": "string",
          "name": "ipfsHash",
          "type": "string"
        }
      ],
      "name": "MedicalRecordAdded",
      "type": "event"
    },
    {
      "anonymous": false,
      "inputs": [
        {
          "indexed": true,
          "internalType": "address",
          "name": "user",
          "type": "address"
        },
        {
          "indexed": false,
          "internalType": "uint256",
          "name": "amount",
          "type": "uint256"
        }
      ],
      "name": "RegistrationFeePaid",
      "type": "event"
    },
    {
      "anonymous": false,
      "inputs": [
        {
          "indexed": true,
          "internalType": "address",
          "name": "userAddress",
          "type": "address"
        },
        {
          "indexed": false,
          "internalType": "string",
          "name": "role",
          "type": "string"
        }
      ],
      "name": "UserRegistered",
      "type": "event"
    },
    {
      "inputs": [],
      "name": "REGISTRATION_FEE",
      "outputs": [
        {
          "internalType": "uint256",
          "name": "",
          "type": "uint256"
        }
      ],
      "stateMutability": "view",
      "type": "function"
    },
    {
      "inputs": [
        {
          "internalType": "address",
          "name": "_patient",
          "type": "address"
        },
        {
          "internalType": "string",
          "name": "_ipfsHash",
          "type": "string"
        }
      ],
      "name": "addMedicalRecord",
      "outputs": [],
      "stateMutability": "nonpayable",
      "type": "function"
    },
    {
      "inputs": [
        {
          "internalType": "uint256",
          "name": "",
          "type": "uint256"
        }
      ],
      "name": "doctorAddresses",
      "outputs": [
        {
          "internalType": "address",
          "name": "",
          "type": "address"
        }
      ],
      "stateMutability": "view",
      "type": "function"
    },
    {
      "inputs": [],
      "name": "getAllDoctors",
      "outputs": [
        {
          "internalType": "address[]",
          "name": "",
          "type": "address[]"
        }
      ],
      "stateMutability": "view",
      "type": "function"
    },
    {
      "inputs": [
        {
          "internalType": "address",
          "name": "_patient",
          "type": "address"
        }
      ],
      "name": "getPatientRecords",
      "outputs": [
        {
          "components": [
            {
              "internalType": "string",
              "name": "ipfsHash",
              "type": "string"
            },
            {
              "internalType": "address",
              "name": "patient",
              "type": "address"
            },
            {
              "internalType": "address",
              "name": "doctor",
              "type": "address"
            },
            {
              "internalType": "uint256",
              "name": "timestamp",
              "type": "uint256"
            }
          ],
          "internalType": "struct Healthcare.MedicalRecord[]",
          "name": "",
          "type": "tuple[]"
        }
      ],
      "stateMutability": "view",
      "type": "function"
    },
    {
      "inputs": [],
      "name": "getRegistrationFee",
      "outputs": [
        {
          "internalType": "uint256",
          "name": "",
          "type": "uint256"
        }
      ],
      "stateMutability": "pure",
      "type": "function"
    },
    {
      "inputs": [
        {
          "internalType": "address",
          "name": "_userAddress",
          "type": "address"
        }
      ],
      "name": "getUserDetails",
      "outputs": [
        {
          "components": [
            {
              "internalType": "string",
              "name": "name",
              "type": "string"
            },
            {
              "internalType": "string",
              "name": "role",
              "type": "string"
            },
            {
              "internalType": "string",
              "name": "ipfsHash",
              "type": "string"
            },
            {
              "internalType": "bool",
              "name": "isRegistered",
              "type": "bool"
            }
          ],
          "internalType": "struct Healthcare.User",
          "name": "",
          "type": "tuple"
        }
      ],
      "stateMutability": "view",
      "type": "function"
    },
    {
      "inputs": [],
      "name": "owner",
      "outputs": [
        {
          "internalType": "address",
          "name": "",
          "type": "address"
        }
      ],
      "stateMutability": "view",
      "type": "function"
    },
    {
      "inputs": [
        {
          "internalType": "address",
          "name": "",
          "type": "address"
        },
        {
          "internalType": "uint256",
          "name": "",
          "type": "uint256"
        }
      ],
      "name": "patientRecords",
      "outputs": [
        {
          "internalType": "string",
          "name": "ipfsHash",
          "type": "string"
        },
        {
          "internalType": "address",
          "name": "patient",
          "type": "address"
        },
        {
          "internalType": "address",
          "name": "doctor",
          "type": "address"
        },
        {
          "internalType": "uint256",
          "name": "timestamp",
          "type": "uint256"
        }
      ],
      "stateMutability": "view",
      "type": "function"
    },
    {
      "inputs": [
        {
          "internalType": "string",
          "name": "_name",
          "type": "string"
        },
        {
          "internalType": "string",
          "name": "_role",
          "type": "string"
        },
        {
          "internalType": "string",
          "name": "_ipfsHash",
          "type": "string"
        }
      ],
      "name": "registerUser",
      "outputs": [],
      "stateMutability": "payable",
      "type": "function"
    },
    {
      "inputs": [
        {
          "internalType": "address",
          "name": "",
          "type": "address"
        }
      ],
      "name": "users",
      "outputs": [
        {
          "internalType": "string",
          "name": "name",
          "type": "string"
        },
        {
          "internalType": "string",
          "name": "role",
          "type": "string"
        },
        {
          "internalType": "string",
          "name": "ipfsHash",
          "type": "string"
        },
        {
          "internalType": "bool",
          "name": "isRegistered",
          "type": "bool"
        }
      ],
      "stateMutability": "view",
      "type": "function"
    }
  ],
  "bytecode": "0x608060405234801561001057600080fd5b50600080546001600160a01b0319163317905561165e806100326000396000f3fe60806040526004361061009c5760003560e01c80638da5cb5b116100645780638da5cb5b1461016a57806394f0df611461018a578063a87430ba146101ba578063cc3d967b146101ea578063d637dcfa14610217578063f0d950901461022a57600080fd5b80630946e807146100a157806318bd4847146100c95780633a9b131c146100f65780633ba51e7c1461011857806364b4f75114610150575b600080fd5b3480156100ad57600080fd5b5065e35fa931a0005b6040519081526020015b60405180910390f35b3480156100d557600080fd5b506100e96100e4366004611034565b61024c565b6040516100c091906110a6565b34801561010257600080fd5b506101166101113660046111e0565b610438565b005b34801561012457600080fd5b5061013861013336600461122e565b610691565b6040516001600160a01b0390911681526020016100c0565b34801561015c57600080fd5b506100b665e35fa931a00081565b34801561017657600080fd5b50600054610138906001600160a01b031681565b34801561019657600080fd5b506101aa6101a5366004611247565b6106bb565b6040516100c09493929190611271565b3480156101c657600080fd5b506101da6101d5366004611034565b61079d565b6040516100c094939291906112a7565b3480156101f657600080fd5b5061020a610205366004611034565b610960565b6040516100c091906112f4565b610116610225366004611365565b610bd8565b34801561023657600080fd5b5061023f610fb6565b6040516100c091906113ed565b6060336001600160a01b03831614806102c45750604051653237b1ba37b960d11b602082015260260160408051601f198184030181528282528051602091820120336000908152600180845293902090936102ac93919091019101611474565b60405160208183030381529060405280519060200120145b6103045760405162461bcd60e51b815260206004820152600c60248201526b155b985d5d1a1bdc9a5e995960a21b60448201526064015b60405180910390fd5b6001600160a01b038216600090815260026020908152604080832080548251818502810185019093528083529193909284015b8282101561042d578382906000526020600020906004020160405180608001604052908160008201805461036a9061143a565b80601f01602080910402602001604051908101604052809291908181526020018280546103969061143a565b80156103e35780601f106103b8576101008083540402835291602001916103e3565b820191906000526020600020905b8154815290600101906020018083116103c657829003601f168201915b50505091835250506001828101546001600160a01b039081166020808501919091526002850154909116604084015260039093015460609092019190915291835292019101610337565b505050509050919050565b3360009081526001602052604090206003015460ff166104925760405162461bcd60e51b8152602060048201526015602482015274111bd8dd1bdc881b9bdd081c9959da5cdd195c9959605a1b60448201526064016102fb565b6001600160a01b03821660009081526001602052604090206003015460ff166104f65760405162461bcd60e51b815260206004820152601660248201527514185d1a595b9d081b9bdd081c9959da5cdd195c995960521b60448201526064016102fb565b604051653237b1ba37b960d11b602082015260260160408051601f1981840301815282825280516020918201203360009081526001808452939020909361054293919091019101611474565b60405160208183030381529060405280519060200120146105a55760405162461bcd60e51b815260206004820152601c60248201527f4f6e6c7920646f63746f72732063616e20616464207265636f7264730000000060448201526064016102fb565b604080516080810182528281526001600160a01b03841660208083018290523383850152426060840152600091825260028152928120805460018101825590825292902081519192839260049091029091019081906106049082611539565b5060208201516001820180546001600160a01b03199081166001600160a01b039384161790915560408085015160028501805490931690841617909155606090930151600390920191909155905133918516907f45fb52644d1c28cab10d4f28bc3618dcc8d9779aab1c535cb434759fdc6369e4906106849086906115f9565b60405180910390a3505050565b600381815481106106a157600080fd5b6000918252602090912001546001600160a01b0316905081565b600260205281600052604060002081815481106106d757600080fd5b9060005260206000209060040201600091509150508060000180546106fb9061143a565b80601f01602080910402602001604051908101604052809291908181526020018280546107279061143a565b80156107745780601f1061074957610100808354040283529160200191610774565b820191906000526020600020905b81548152906001019060200180831161075757829003601f168201915b505050506001830154600284015460039094015492936001600160a01b03918216939116915084565b6001602052600090815260409020805481906107b89061143a565b80601f01602080910402602001604051908101604052809291908181526020018280546107e49061143a565b80156108315780601f1061080657610100808354040283529160200191610831565b820191906000526020600020905b81548152906001019060200180831161081457829003601f168201915b5050505050908060010180546108469061143a565b80601f01602080910402602001604051908101604052809291908181526020018280546108729061143a565b80156108bf5780601f10610894576101008083540402835291602001916108bf565b820191906000526020600020905b8154815290600101906020018083116108a257829003601f168201915b5050505050908060020180546108d49061143a565b80601f01602080910402602001604051908101604052809291908181526020018280546109009061143a565b801561094d5780601f106109225761010080835404028352916020019161094d565b820191906000526020600020905b81548152906001019060200180831161093057829003601f168201915b5050506003909301549192505060ff1684565b61098d60405180608001604052806060815260200160608152602001606081526020016000151581525090565b6001600160a01b03821660009081526001602052604090206003015460ff166109e95760405162461bcd60e51b815260206004820152600e60248201526d155cd95c881b9bdd08199bdd5b9960921b60448201526064016102fb565b6001600160a01b03821660009081526001602052604090819020815160808101909252805482908290610a1b9061143a565b80601f0160208091040260200160405190810160405280929190818152602001828054610a479061143a565b8015610a945780601f10610a6957610100808354040283529160200191610a94565b820191906000526020600020905b815481529060010190602001808311610a7757829003601f168201915b50505050508152602001600182018054610aad9061143a565b80601f0160208091040260200160405190810160405280929190818152602001828054610ad99061143a565b8015610b265780601f10610afb57610100808354040283529160200191610b26565b820191906000526020600020905b815481529060010190602001808311610b0957829003601f168201915b50505050508152602001600282018054610b3f9061143a565b80601f0160208091040260200160405190810160405280929190818152602001828054610b6b9061143a565b8015610bb85780601f10610b8d57610100808354040283529160200191610bb8565b820191906000526020600020905b815481529060010190602001808311610b9b57829003601f168201915b50505091835250506003919091015460ff16151560209091015292915050565b3360009081526001602052604090206003015460ff1615610c3b5760405162461bcd60e51b815260206004820152601760248201527f5573657220616c7265616479207265676973746572656400000000000000000060448201526064016102fb565b604051661c185d1a595b9d60ca1b60208201526027016040516020818303038152906040528051906020012082604051602001610c78919061160c565b604051602081830303815290604052805190602001201480610ce95750604051653237b1ba37b960d11b60208201526026016040516020818303038152906040528051906020012082604051602001610cd1919061160c565b60405160208183030381529060405280519060200120145b610d245760405162461bcd60e51b815260206004820152600c60248201526b496e76616c696420726f6c6560a01b60448201526064016102fb565b65e35fa931a0003414610d795760405162461bcd60e51b815260206004820152601a60248201527f496e636f727265637420726567697374726174696f6e2066656500000000000060448201526064016102fb565b60408051608081018252848152602080820185905281830184905260016060830181905233600090815291529190912081518190610db79082611539565b5060208201516001820190610dcc9082611539565b5060408201516002820190610de19082611539565b50606091909101516003909101805460ff1916911515919091179055604051653237b1ba37b960d11b60208201526026016040516020818303038152906040528051906020012082604051602001610e39919061160c565b6040516020818303038152906040528051906020012003610e9757600380546001810182556000919091527fc2575a0e9e593c00f959f8c92f12db2869c3395a3b0502d05e2516446f71f85b0180546001600160a01b031916331790555b600080546040516001600160a01b039091169034908381818185875af1925050503d8060008114610ee4576040519150601f19603f3d011682016040523d82523d6000602084013e610ee9565b606091505b5050905080610f3a5760405162461bcd60e51b815260206004820152601f60248201527f4661696c656420746f2073656e6420726567697374726174696f6e206665650060448201526064016102fb565b336001600160a01b03167f48cac28ad4dc618e15f4c2dd5e97751182f166de97b25618318b2112aa951a2f84604051610f7391906115f9565b60405180910390a260405134815233907f7111f0e8e9dcc93b06ab6bf56fd094a95f76a198a82b93ed856b451053f235b19060200160405180910390a250505050565b6060600380548060200260200160405190810160405280929190818152602001828054801561100e57602002820191906000526020600020905b81546001600160a01b03168152600190910190602001808311610ff0575b5050505050905090565b80356001600160a01b038116811461102f57600080fd5b919050565b60006020828403121561104657600080fd5b61104f82611018565b9392505050565b60005b83811015611071578181015183820152602001611059565b50506000910152565b60008151808452611092816020860160208601611056565b601f01601f19169290920160200192915050565b60006020808301818452808551808352604092508286019150828160051b87010184880160005b8381101561112f57603f198984030185528151608081518186526110f38287018261107a565b838b01516001600160a01b03908116888d01528a850151168a8801526060938401519390960192909252505093860193908601906001016110cd565b509098975050505050505050565b634e487b7160e01b600052604160045260246000fd5b600082601f83011261116457600080fd5b813567ffffffffffffffff8082111561117f5761117f61113d565b604051601f8301601f19908116603f011681019082821181831017156111a7576111a761113d565b816040528381528660208588010111156111c057600080fd5b836020870160208301376000602085830101528094505050505092915050565b600080604083850312156111f357600080fd5b6111fc83611018565b9150602083013567ffffffffffffffff81111561121857600080fd5b61122485828601611153565b9150509250929050565b60006020828403121561124057600080fd5b5035919050565b6000806040838503121561125a57600080fd5b61126383611018565b946020939093013593505050565b608081526000611284608083018761107a565b6001600160a01b0395861660208401529390941660408201526060015292915050565b6080815260006112ba608083018761107a565b82810360208401526112cc818761107a565b905082810360408401526112e0818661107a565b915050821515606083015295945050505050565b60208152600082516080602084015261131060a084018261107a565b90506020840151601f198085840301604086015261132e838361107a565b925060408601519150808584030160608601525061134c828261107a565b9150506060840151151560808401528091505092915050565b60008060006060848603121561137a57600080fd5b833567ffffffffffffffff8082111561139257600080fd5b61139e87838801611153565b945060208601359150808211156113b457600080fd5b6113c087838801611153565b935060408601359150808211156113d657600080fd5b506113e386828701611153565b9150509250925092565b6020808252825182820181905260009190848201906040850190845b8181101561142e5783516001600160a01b031683529284019291840191600101611409565b50909695505050505050565b600181811c9082168061144e57607f821691505b60208210810361146e57634e487b7160e01b600052602260045260246000fd5b50919050565b60008083546114828161143a565b6001828116801561149a57600181146114af576114de565b60ff19841687528215158302870194506114de565b8760005260208060002060005b858110156114d55781548a8201529084019082016114bc565b50505082870194505b50929695505050505050565b601f82111561153457600081815260208120601f850160051c810160208610156115115750805b601f850160051c820191505b818110156115305782815560010161151d565b5050505b505050565b815167ffffffffffffffff8111156115535761155361113d565b61156781611561845461143a565b846114ea565b602080601f83116001811461159c57600084156115845750858301515b600019600386901b1c1916600185901b178555611530565b600085815260208120601f198616915b828110156115cb578886015182559484019460019091019084016115ac565b50858210156115e95787850151600019600388901b60f8161c191681555b5050505050600190811b01905550565b60208152600061104f602083018461107a565b6000825161161e818460208701611056565b919091019291505056fea2646970667358221220ccd9f46074a81a868646c4a72fd707754730aad293e119d2597724bf407b805e64736f6c63430008130033",
  "linkReferences": {},
  "deployedLinkReferences": {}
}