{
  "_format": "hh-sol-artifact-1",
  "contractName": "Healthcare",
  "sourceName": "contracts/Healthcare.sol",
  "abi": [
    {
      "inputs": [],
      "stateMutability": "nonpayable",
      "type": "constructor"
    },
    {
      "anonymous": false,
      "inputs": [
        {
          "indexed": true,
          "internalType": "address",
          "name": "patient",
          "type": "address"
        },
        {
          "indexed": true,
          "internalType": "address",
          "name": "doctor",
          "type": "address"
        },
        {
          "indexed": false,
          "internalType": "string",
          "name": "ipfsHash",
          "type": "string"
        }
      ],
      "name": "MedicalRecordAdded",
      "type": "event"
    },
    {
      "anonymous": false,
      "inputs": [
        {
          "indexed": true,
          "internalType": "address",
          "name": "user",
          "type": "address"
        },
        {
          "indexed": false,
          "internalType": "uint256",
          "name": "amount",
          "type": "uint256"
        }
      ],
      "name": "RegistrationFeePaid",
      "type": "event"
    },
    {
      "anonymous": false,
      "inputs": [
        {
          "indexed": true,
          "internalType": "address",
          "name": "userAddress",
          "type": "address"
        },
        {
          "indexed": false,
          "internalType": "string",
          "name": "role",
          "type": "string"
        }
      ],
      "name": "UserRegistered",
      "type": "event"
    },
    {
      "inputs": [],
      "name": "REGISTRATION_FEE",
      "outputs": [
        {
          "internalType": "uint256",
          "name": "",
          "type": "uint256"
        }
      ],
      "stateMutability": "view",
      "type": "function"
    },
    {
      "inputs": [
        {
          "internalType": "address",
          "name": "_patient",
          "type": "address"
        },
        {
          "internalType": "string",
          "name": "_ipfsHash",
          "type": "string"
        }
      ],
      "name": "addMedicalRecord",
      "outputs": [],
      "stateMutability": "nonpayable",
      "type": "function"
    },
    {
      "inputs": [
        {
          "internalType": "address",
          "name": "_patient",
          "type": "address"
        }
      ],
      "name": "getPatientRecords",
      "outputs": [
        {
          "components": [
            {
              "internalType": "string",
              "name": "ipfsHash",
              "type": "string"
            },
            {
              "internalType": "address",
              "name": "patient",
              "type": "address"
            },
            {
              "internalType": "address",
              "name": "doctor",
              "type": "address"
            },
            {
              "internalType": "uint256",
              "name": "timestamp",
              "type": "uint256"
            }
          ],
          "internalType": "struct Healthcare.MedicalRecord[]",
          "name": "",
          "type": "tuple[]"
        }
      ],
      "stateMutability": "view",
      "type": "function"
    },
    {
      "inputs": [],
      "name": "getRegistrationFee",
      "outputs": [
        {
          "internalType": "uint256",
          "name": "",
          "type": "uint256"
        }
      ],
      "stateMutability": "pure",
      "type": "function"
    },
    {
      "inputs": [
        {
          "internalType": "address",
          "name": "_userAddress",
          "type": "address"
        }
      ],
      "name": "getUserDetails",
      "outputs": [
        {
          "components": [
            {
              "internalType": "string",
              "name": "name",
              "type": "string"
            },
            {
              "internalType": "string",
              "name": "role",
              "type": "string"
            },
            {
              "internalType": "string",
              "name": "ipfsHash",
              "type": "string"
            },
            {
              "internalType": "bool",
              "name": "isRegistered",
              "type": "bool"
            }
          ],
          "internalType": "struct Healthcare.User",
          "name": "",
          "type": "tuple"
        }
      ],
      "stateMutability": "view",
      "type": "function"
    },
    {
      "inputs": [],
      "name": "owner",
      "outputs": [
        {
          "internalType": "address",
          "name": "",
          "type": "address"
        }
      ],
      "stateMutability": "view",
      "type": "function"
    },
    {
      "inputs": [
        {
          "internalType": "address",
          "name": "",
          "type": "address"
        },
        {
          "internalType": "uint256",
          "name": "",
          "type": "uint256"
        }
      ],
      "name": "patientRecords",
      "outputs": [
        {
          "internalType": "string",
          "name": "ipfsHash",
          "type": "string"
        },
        {
          "internalType": "address",
          "name": "patient",
          "type": "address"
        },
        {
          "internalType": "address",
          "name": "doctor",
          "type": "address"
        },
        {
          "internalType": "uint256",
          "name": "timestamp",
          "type": "uint256"
        }
      ],
      "stateMutability": "view",
      "type": "function"
    },
    {
      "inputs": [
        {
          "internalType": "string",
          "name": "_name",
          "type": "string"
        },
        {
          "internalType": "string",
          "name": "_role",
          "type": "string"
        },
        {
          "internalType": "string",
          "name": "_ipfsHash",
          "type": "string"
        }
      ],
      "name": "registerUser",
      "outputs": [],
      "stateMutability": "payable",
      "type": "function"
    },
    {
      "inputs": [
        {
          "internalType": "address",
          "name": "",
          "type": "address"
        }
      ],
      "name": "users",
      "outputs": [
        {
          "internalType": "string",
          "name": "name",
          "type": "string"
        },
        {
          "internalType": "string",
          "name": "role",
          "type": "string"
        },
        {
          "internalType": "string",
          "name": "ipfsHash",
          "type": "string"
        },
        {
          "internalType": "bool",
          "name": "isRegistered",
          "type": "bool"
        }
      ],
      "stateMutability": "view",
      "type": "function"
    }
  ],
  "bytecode": "0x608060405234801561001057600080fd5b50600080546001600160a01b0319163317905561147a806100326000396000f3fe6080604052600436106100865760003560e01c80638da5cb5b116100595780638da5cb5b1461011c57806394f0df6114610154578063a87430ba14610184578063cc3d967b146101b4578063d637dcfa146101e157600080fd5b80630946e8071461008b57806318bd4847146100b35780633a9b131c146100e057806364b4f75114610102575b600080fd5b34801561009757600080fd5b5065e35fa931a0005b6040519081526020015b60405180910390f35b3480156100bf57600080fd5b506100d36100ce366004610eb6565b6101f4565b6040516100aa9190610f28565b3480156100ec57600080fd5b506101006100fb366004611062565b6103e0565b005b34801561010e57600080fd5b506100a065e35fa931a00081565b34801561012857600080fd5b5060005461013c906001600160a01b031681565b6040516001600160a01b0390911681526020016100aa565b34801561016057600080fd5b5061017461016f3660046110b0565b610639565b6040516100aa94939291906110da565b34801561019057600080fd5b506101a461019f366004610eb6565b61071b565b6040516100aa9493929190611110565b3480156101c057600080fd5b506101d46101cf366004610eb6565b6108de565b6040516100aa919061115d565b6101006101ef3660046111ce565b610b56565b6060336001600160a01b038316148061026c5750604051653237b1ba37b960d11b602082015260260160408051601f1981840301815282825280516020918201203360009081526001808452939020909361025493919091019101611290565b60405160208183030381529060405280519060200120145b6102ac5760405162461bcd60e51b815260206004820152600c60248201526b155b985d5d1a1bdc9a5e995960a21b60448201526064015b60405180910390fd5b6001600160a01b038216600090815260026020908152604080832080548251818502810185019093528083529193909284015b828210156103d5578382906000526020600020906004020160405180608001604052908160008201805461031290611256565b80601f016020809104026020016040519081016040528092919081815260200182805461033e90611256565b801561038b5780601f106103605761010080835404028352916020019161038b565b820191906000526020600020905b81548152906001019060200180831161036e57829003601f168201915b50505091835250506001828101546001600160a01b0390811660208085019190915260028501549091166040840152600390930154606090920191909152918352920191016102df565b505050509050919050565b3360009081526001602052604090206003015460ff1661043a5760405162461bcd60e51b8152602060048201526015602482015274111bd8dd1bdc881b9bdd081c9959da5cdd195c9959605a1b60448201526064016102a3565b6001600160a01b03821660009081526001602052604090206003015460ff1661049e5760405162461bcd60e51b815260206004820152601660248201527514185d1a595b9d081b9bdd081c9959da5cdd195c995960521b60448201526064016102a3565b604051653237b1ba37b960d11b602082015260260160408051601f198184030181528282528051602091820120336000908152600180845293902090936104ea93919091019101611290565b604051602081830303815290604052805190602001201461054d5760405162461bcd60e51b815260206004820152601c60248201527f4f6e6c7920646f63746f72732063616e20616464207265636f7264730000000060448201526064016102a3565b604080516080810182528281526001600160a01b03841660208083018290523383850152426060840152600091825260028152928120805460018101825590825292902081519192839260049091029091019081906105ac9082611355565b5060208201516001820180546001600160a01b03199081166001600160a01b039384161790915560408085015160028501805490931690841617909155606090930151600390920191909155905133918516907f45fb52644d1c28cab10d4f28bc3618dcc8d9779aab1c535cb434759fdc6369e49061062c908690611415565b60405180910390a3505050565b6002602052816000526040600020818154811061065557600080fd5b90600052602060002090600402016000915091505080600001805461067990611256565b80601f01602080910402602001604051908101604052809291908181526020018280546106a590611256565b80156106f25780601f106106c7576101008083540402835291602001916106f2565b820191906000526020600020905b8154815290600101906020018083116106d557829003601f168201915b505050506001830154600284015460039094015492936001600160a01b03918216939116915084565b60016020526000908152604090208054819061073690611256565b80601f016020809104026020016040519081016040528092919081815260200182805461076290611256565b80156107af5780601f10610784576101008083540402835291602001916107af565b820191906000526020600020905b81548152906001019060200180831161079257829003601f168201915b5050505050908060010180546107c490611256565b80601f01602080910402602001604051908101604052809291908181526020018280546107f090611256565b801561083d5780601f106108125761010080835404028352916020019161083d565b820191906000526020600020905b81548152906001019060200180831161082057829003601f168201915b50505050509080600201805461085290611256565b80601f016020809104026020016040519081016040528092919081815260200182805461087e90611256565b80156108cb5780601f106108a0576101008083540402835291602001916108cb565b820191906000526020600020905b8154815290600101906020018083116108ae57829003601f168201915b5050506003909301549192505060ff1684565b61090b60405180608001604052806060815260200160608152602001606081526020016000151581525090565b6001600160a01b03821660009081526001602052604090206003015460ff166109675760405162461bcd60e51b815260206004820152600e60248201526d155cd95c881b9bdd08199bdd5b9960921b60448201526064016102a3565b6001600160a01b0382166000908152600160205260409081902081516080810190925280548290829061099990611256565b80601f01602080910402602001604051908101604052809291908181526020018280546109c590611256565b8015610a125780601f106109e757610100808354040283529160200191610a12565b820191906000526020600020905b8154815290600101906020018083116109f557829003601f168201915b50505050508152602001600182018054610a2b90611256565b80601f0160208091040260200160405190810160405280929190818152602001828054610a5790611256565b8015610aa45780601f10610a7957610100808354040283529160200191610aa4565b820191906000526020600020905b815481529060010190602001808311610a8757829003601f168201915b50505050508152602001600282018054610abd90611256565b80601f0160208091040260200160405190810160405280929190818152602001828054610ae990611256565b8015610b365780601f10610b0b57610100808354040283529160200191610b36565b820191906000526020600020905b815481529060010190602001808311610b1957829003601f168201915b50505091835250506003919091015460ff16151560209091015292915050565b3360009081526001602052604090206003015460ff1615610bb95760405162461bcd60e51b815260206004820152601760248201527f5573657220616c7265616479207265676973746572656400000000000000000060448201526064016102a3565b604051661c185d1a595b9d60ca1b60208201526027016040516020818303038152906040528051906020012082604051602001610bf69190611428565b604051602081830303815290604052805190602001201480610c675750604051653237b1ba37b960d11b60208201526026016040516020818303038152906040528051906020012082604051602001610c4f9190611428565b60405160208183030381529060405280519060200120145b610ca25760405162461bcd60e51b815260206004820152600c60248201526b496e76616c696420726f6c6560a01b60448201526064016102a3565b65e35fa931a0003414610cf75760405162461bcd60e51b815260206004820152601a60248201527f496e636f727265637420726567697374726174696f6e2066656500000000000060448201526064016102a3565b60408051608081018252848152602080820185905281830184905260016060830181905233600090815291529190912081518190610d359082611355565b5060208201516001820190610d4a9082611355565b5060408201516002820190610d5f9082611355565b50606091909101516003909101805460ff1916911515919091179055600080546040516001600160a01b039091169034908381818185875af1925050503d8060008114610dc8576040519150601f19603f3d011682016040523d82523d6000602084013e610dcd565b606091505b5050905080610e1e5760405162461bcd60e51b815260206004820152601f60248201527f4661696c656420746f2073656e6420726567697374726174696f6e206665650060448201526064016102a3565b336001600160a01b03167f48cac28ad4dc618e15f4c2dd5e97751182f166de97b25618318b2112aa951a2f84604051610e579190611415565b60405180910390a260405134815233907f7111f0e8e9dcc93b06ab6bf56fd094a95f76a198a82b93ed856b451053f235b19060200160405180910390a250505050565b80356001600160a01b0381168114610eb157600080fd5b919050565b600060208284031215610ec857600080fd5b610ed182610e9a565b9392505050565b60005b83811015610ef3578181015183820152602001610edb565b50506000910152565b60008151808452610f14816020860160208601610ed8565b601f01601f19169290920160200192915050565b60006020808301818452808551808352604092508286019150828160051b87010184880160005b83811015610fb157603f19898403018552815160808151818652610f7582870182610efc565b838b01516001600160a01b03908116888d01528a850151168a880152606093840151939096019290925250509386019390860190600101610f4f565b509098975050505050505050565b634e487b7160e01b600052604160045260246000fd5b600082601f830112610fe657600080fd5b813567ffffffffffffffff8082111561100157611001610fbf565b604051601f8301601f19908116603f0116810190828211818310171561102957611029610fbf565b8160405283815286602085880101111561104257600080fd5b836020870160208301376000602085830101528094505050505092915050565b6000806040838503121561107557600080fd5b61107e83610e9a565b9150602083013567ffffffffffffffff81111561109a57600080fd5b6110a685828601610fd5565b9150509250929050565b600080604083850312156110c357600080fd5b6110cc83610e9a565b946020939093013593505050565b6080815260006110ed6080830187610efc565b6001600160a01b0395861660208401529390941660408201526060015292915050565b6080815260006111236080830187610efc565b82810360208401526111358187610efc565b905082810360408401526111498186610efc565b915050821515606083015295945050505050565b60208152600082516080602084015261117960a0840182610efc565b90506020840151601f19808584030160408601526111978383610efc565b92506040860151915080858403016060860152506111b58282610efc565b9150506060840151151560808401528091505092915050565b6000806000606084860312156111e357600080fd5b833567ffffffffffffffff808211156111fb57600080fd5b61120787838801610fd5565b9450602086013591508082111561121d57600080fd5b61122987838801610fd5565b9350604086013591508082111561123f57600080fd5b5061124c86828701610fd5565b9150509250925092565b600181811c9082168061126a57607f821691505b60208210810361128a57634e487b7160e01b600052602260045260246000fd5b50919050565b600080835461129e81611256565b600182811680156112b657600181146112cb576112fa565b60ff19841687528215158302870194506112fa565b8760005260208060002060005b858110156112f15781548a8201529084019082016112d8565b50505082870194505b50929695505050505050565b601f82111561135057600081815260208120601f850160051c8101602086101561132d5750805b601f850160051c820191505b8181101561134c57828155600101611339565b5050505b505050565b815167ffffffffffffffff81111561136f5761136f610fbf565b6113838161137d8454611256565b84611306565b602080601f8311600181146113b857600084156113a05750858301515b600019600386901b1c1916600185901b17855561134c565b600085815260208120601f198616915b828110156113e7578886015182559484019460019091019084016113c8565b50858210156114055787850151600019600388901b60f8161c191681555b5050505050600190811b01905550565b602081526000610ed16020830184610efc565b6000825161143a818460208701610ed8565b919091019291505056fea264697066735822122099f6fbe83986288f17d9d7fb56069c323f8857e82f09966a79e8b4009ce02d5564736f6c63430008130033",
  "linkReferences": {},
  "deployedLinkReferences": {}
}